:020000040800F2
:10300000B04B002061CB000801CB000803CB0008C7
:1030100005CB000807CB000809CB00080000000022
:10302000000000000000000000000000F17F000828
:103030000BCB0008000000009F7F0008B17E000855
:10304000A1CB0008A5CB0008A9CB0008ADCB000898
:10305000B1CB0008B5CB0008B9CB000815CB0008F0
:10306000C1CB000817CB0008C9CB0008CDCB0008A6
:10307000D1CB0008D5CB0008D9CB0008DDCB0008A8
:10308000E1CB0008E5CB0008E9CB0008EDCB000858
:1030900093C40008F5CB0008F9CB000819CB000851
:1030A00001CC000805CC000809CC00080DCC0008B4
:1030B000C5C4000815CC000819CC00081DCC0008B8
:1030C00021CC000825CC000829CC00082DCC000814
:1030D00031CC000835CC000839CC00083DCC0008C4
:1030E00041CC000845CC000849CC00084DCC000874
:1030F00051CC000855CC000859CC00085DCC000824
:1031000061CC00080DCB000869CC00086DCC00082C
:1031100071CC000875CC000879CC00087DCC000883
:1031200081CC000885CC000889CC00088DCC000833
:1031300070B58EB004000D00DFF81007007800288D
:103140002AD1DFF80C07807800281ED1DFF80007AD
:103150000078202814D1DFF8F806407801280FD134
:10316000DFF8EC064078801C844209D1DFF8DC06E9
:103170000121017000220121002000F0E9FF63E33A
:103180000421002001F01EF85EE30521DFF8C006EF
:10319000807801F017F857E3DFF8B406807800284C
:1031A00037D0012854D0022871D0032800F0948031
:1031B000072800F0F380082800F0AD80102800F008
:1031C000D180122800F01181132800F036811428D4
:1031D00000F05281152800F0AB81172800F06B81B8
:1031E000182800F08781202800F0D481212800F0E1
:1031F000FA81222800F01E82502800F042825128D5
:1032000000F0A582522800F0D782532800F0F38204
:1032100015E3DFF83C060078202814D1DFF83006EB
:10322000407801280FD1DFF828064078801C8442BE
:1032300009D1DFF8180601210170002201210020C8
:1032400000F086FF03E00421002000F0BBFFFBE25A
:10325000DFF8FC050078202814D1DFF8F405407869
:1032600001280FD1DFF8E8054078801C844209D19D
:10327000DFF8D8050021017000220121012000F0B3
:1032800067FF03E00421012000F09CFFDCE2DFF88F
:10329000C005007820281AD1DFF8B405407801284D
:1032A00015D1DFF8AC054078801C84420FD1002294
:1032B0000121022000F04CFF4FF4FA7001F00AF9EE
:1032C000DFF888050021017001F08DFC03E0042186
:1032D000022000F077FFB7E2DFF8740500782028BD
:1032E00014D1DFF86C05407801280FD1DFF86005B4
:1032F0004078801C844209D100220121032000F083
:1033000027FF01F077FC01F06EFC03E004210320AD
:1033100000F058FF98E2DFF83805007820281CD12B
:10332000DFF82C054078022817D1DFF82405407813
:10333000801C844211D1DFF81805C078002803D022
:10334000002001F01FFD02E0002001F026FD002218
:103350000121082000F0FCFE03E00421082000F019
:1033600031FF71E2DFF8E8040078202811D1DFF89E
:10337000E004407801280CD1DFF8D4044078801CA8
:10338000844206D1DFF8CC240221102000F0E0FEB8
:1033900003E00421102000F015FF55E2DFF8B0042F
:1033A000007820281CD1DFF8A8044078022817D123
:1033B000DFF89C044078801C844211D1DFF890042F
:1033C000C078002803D0012000F0ACFF02E000200C
:1033D00000F0A8FF00220121072000F0B9FE03E061
:1033E0000421072000F0EEFE2EE2DFF864040078EE
:1033F00020281DD1DFF858044078012818D1DFF8C3
:1034000050044078801C844212D100200C2809DA34
:10341000D0F10C01491EDFF8282D895C0BAA8154DC
:10342000401CF3E70BAA0D21122000F091FE03E0EF
:103430000421122000F0C6FE06E2DFF81404007832
:10344000202814D1DFF80804407801280FD1DFF8D4
:1034500000044078801C844209D1DFF8E82C012068
:1034600010F11A01C9B2132000F072FE03E004212A
:10347000132000F0A7FEE7E1DFF8D403007820284E
:1034800014D1DFF8CC03407801280FD1DFF8C00356
:103490004078801C844209D1DFF8AC2C012010F167
:1034A0001B01C9B2142000F053FE03E004211420D4
:1034B00000F088FEC8E1DFF898030078202814D1D6
:1034C000DFF88C03407801280FD1DFF884034078BF
:1034D000801C844209D1DFF8742C012010F11801FE
:1034E000C9B2172000F034FE03E00421172000F0D9
:1034F00069FEA9E1DFF858030078202813D1DFF82E
:103500005003407801280ED1DFF844034078801C36
:10351000844208D109208DF8040001AA0221182054
:1035200000F016FE03E00421182000F04BFE8BE1B2
:10353000C7480078202828D1C5484078012824D1E0
:10354000C3484078801C84421FD1002001F01AFC3F
:1035500000200C2809DAD0F10C01491EDFF8E02B1D
:10356000895C08AA8154401CF3E708AA0D211520A4
:1035700000F0EEFD0026072E0BDA002001F018FC0B
:10358000322000F0A7FF761CF5E70421152000F09B
:1035900019FE59E1AE48007820281FD1AC48407888
:1035A000801C84421AD1DFF8240D0090A84840788E
:1035B000831EDBB2A6480279A548C178280001F035
:1035C000D9FC002805D000220121202000F0C0FDF8
:1035D00008E00321202000F0F5FD03E00421202075
:1035E00000F0F0FD30E19A48007820281DD198487D
:1035F0004078801C844218D105AB954802799448E4
:10360000C178280002F0E7F8002809D00DF1150272
:103610009DF81400411CC9B2212000F099FD08E07A
:103620000321212000F0CEFD03E00421212000F041
:10363000C9FD09E18648007820281DD184484078DA
:10364000801C844218D102AB814802798048C1783D
:10365000280002F0BCFA002809D00DF109029DF8FB
:103660000800411CC9B2222000F072FD08E00321CD
:10367000222000F0A7FD03E00421222000F0A2FD9B
:10368000E2E07348007820285CD171484078052832
:1036900058D16F484078801C844253D16C480079DF
:1036A000C02108424ED16A48C078C0F3C01010F063
:1036B000010000F0FEFD6648C078C0F3401010F035
:1036C000010000F0F9FD6248C078DFF8601C087066
:1036D00000F0F5FD002804D0DFF8540C0321017040
:1036E00006E05B480079C0F3C200DFF8441C0870B4
:1036F0005748007910F00300DFF8381C0870DFF835
:10370000300C0078082804D2DFF8280C0078012853
:1037100004D30221502000F055FD17E0DFF8100C13
:10372000007800F063FD4A4840794949897911EBF6
:103730000020DFF8041C088000220121502000F046
:1037400007FD03E00421502000F03CFD7CE04048F0
:10375000007820282BD13E484078012827D13C48CA
:103760004078801C844222D1DFF8C00B00788DF8AD
:103770000000DFF8BC0B0078DFF8B81B097811F007
:10378000070111EBC0008DF80100DFF8AC0B0088D9
:1037900080B2000A8DF80200DFF89C0B00888DF8DB
:1037A000030000AA0521512000F0D2FC03E004210F
:1037B000512000F007FD47E025480078202815D16A
:1037C00023484078012811D121484078801C844248
:1037D0000CD1DFF8680B002101800022012152206A
:1037E00000F0B6FC012000F04CFD03E00421522063
:1037F00000F0E8FC28E01648007820281AD1144888
:103800004078012816D112484078801C844211D19A
:10381000002000F036FD01215FF0804002F0F4FB53
:10382000DFF8180B0021018000220121532000F055
:103830008FFC03E00421532000F0C4FC04E00121CC
:103840000348807800F0BEFC0EB070BDA147002098
:10385000E4450020A24700202DE9F0479EB0040077
:103860000D0000260EA83C2102F0D2FBDFF8CC0AA6
:103870000088DFF8C41A0988884205D3DFF8B80A3F
:103880000088002840F0558400F019FD002800F061
:10389000A482A81D02F0BEFC280002F036FE15F13D
:1038A0000C0002F0CFFEE0065AD500F00BFD002818
:1038B00015D0F6B20EA83018811C280002F036FF91
:1038C000F6B20EA83018011DA81C02F02FFFF6B2A8
:1038D0000EA83018811D281D02F028FF3FE0B5F921
:1038E000000002F043FFA96902F058FF02F0D4FF84
:1038F000B5F84410401AADF83000B5F9020002F0F6
:1039000035FFE96902F04AFF02F0C6FFB5F846103C
:10391000401AADF83200B5F9040002F027FF296A19
:1039200002F03CFF02F0B8FFB5F84810401AADF8BD
:103930003400F6B20EA83018811C0CA802F0F6FE76
:10394000F6B20EA83018011D0DF1320002F0EEFEA5
:10395000F6B20EA83018811D0DA802F0E7FEB61DC4
:1039600020076ED500F0AEFC002817D0F6B20EA8E6
:103970003018811CA81D02F0D9FEF6B20EA830182E
:10398000011D15F1080002F0D1FEF6B20EA83018A4
:10399000811D15F10A0002F0C9FE51E0B5F90600DB
:1039A00002F0E4FE696A02F0F9FE8246B5F94A00C7
:1039B00002F0DCFE0100504602F090FF02F06CFFC6
:1039C000ADF82800B5F9080002F0D0FEA96A02F0AF
:1039D000E5FE8246B5F94C0002F0C8FE01005046F3
:1039E00002F07CFF02F058FFADF82A00B5F90A009A
:1039F00002F0BCFEE96A02F0D1FE8246B5F94E0043
:103A000002F0B4FE0100504602F068FF02F044FFED
:103A1000ADF82C00F6B20EA83018811C0AA802F0EE
:103A200085FEF6B20EA83018011D0DF12A0002F035
:103A30007DFEF6B20EA83018811D0BA802F076FEAE
:103A4000B61D600766D500F03DFC002818D0F6B220
:103A50000EA83018811C15F10C0002F067FEF6B2BA
:103A60000EA83018011D15F10E0002F05FFEF6B22F
:103A70000EA83018811D15F1100002F057FE48E025
:103A8000B5F90C004FF47A71484302F06FFE296BD0
:103A900002F084FE02F000FFB5F85010401AADF8B5
:103AA0002000B5F90E004FF47A71484302F05EFE33
:103AB000696B02F073FE02F0EFFEB5F85210401A87
:103AC000ADF82200B5F910004FF47A71484302F0C6
:103AD0004DFEA96B02F062FE02F0DEFEB5F8541056
:103AE000401AADF82400F6B20EA83018811C08A8C0
:103AF00002F01CFEF6B20EA83018011D0DF12200D6
:103B000002F014FEF6B20EA83018811D09A802F0CA
:103B10000DFEB61DA0072CD515F1140002F0F0FF24
:103B200000F0D0FB002808D0F6B20EA83018811C97
:103B300015F1140002F003FE1AE0A88A02F020FE3C
:103B4000E96B02F02BFE8246B5F9560002F00EFE3C
:103B50000100504602F0C2FE02F09EFEADF80600E3
:103B6000F6B20EA83018811C0DF1060002F0E7FD38
:103B7000B61CE00722D500F0A5FB00280CD015F1FB
:103B8000120003F0DCF8F6B20EA83018811C15F113
:103B9000120002F0CBFD10E015F1120003F0E2F884
:103BA000688AB5F85810401AADF80400F6B20EA8AD
:103BB0003018811C01A802F0B9FDB61CB5F902004D
:103BC00002F0D4FD03F072F902000B00DFF8700779
:103BD000DFF8701703F092F90022DFF86C3703F07A
:103BE0005FFA03F081FB6867B5F9000002F0BEFDE3
:103BF00003F05CF902000B00DFF84407DFF844171C
:103C000003F07CF90022DFF8403703F049FA03F0B3
:103C10006BFBA867B5F9040002F0A8FD90F0004026
:103C200003F044F902000B00DFF81407DFF8141763
:103C300003F064F90022DFF8103703F031FA03F0E3
:103C400053FBE867B5F9060002F090FD03F02EF98A
:103C500002000B00DFF8F406DFF8F41603F04EF96B
:103C6000DFF8F026DFF8F03603F01AFA03F03CFB39
:103C7000C5F88400B5F9080002F078FD03F016F9E4
:103C800002000B00DFF8C406DFF8C41603F036F9B3
:103C9000DFF8C026DFF8C03603F002FA03F024FB99
:103CA000C5F88000B5F90A0002F060FD90F0004010
:103CB00003F0FCF802000B00DFF89006DFF8901626
:103CC00003F01CF9DFF89426DFF8943603F0E8F9E6
:103CD00003F00AFBC5F88800B5F90C0002F046FDB8
:103CE000DFF8801602F05AFDC5F89000B5F90E0015
:103CF00002F03CFDDFF86C1602F050FDC5F88C00B8
:103D0000B5F9100002F032FD90F00040DFF85816CF
:103D100002F044FDC5F8940015F15C0215F1E001D4
:103D200015F16C0003F0BCFBD5F8E010DFF83C06A1
:103D300003F07CFFDFF8381602F030FD8146D5F83D
:103D4000E410DFF8280603F071FFDFF8241602F014
:103D500025FD8046D5F8E810DFF8100603F066FF71
:103D6000DFF80C1602F01AFD0700F6B20EA83018A4
:103D7000811C484602F0ECFCF6B20EA83018811DFA
:103D8000404602F0E5FCF6B20EA8301810F10A0128
:103D9000380002F0DDFCF6B20EA8301810F10E016A
:103DA000E86D02F0D5FCF6B20EA8301810F1120141
:103DB000286E02F0CDFCF6B20EA8301810F11601F4
:103DC000686E02F0C5FCF6B20EA8301810F11A01A8
:103DD000A86E02F0BDFC1C3694E1E0065DD528001B
:103DE00002F093FB00F06EFA002815D0F6B20EA890
:103DF0003018811C280002F099FCF6B20EA8301889
:103E0000011DA81C02F092FCF6B20EA83018811D0C
:103E1000281D02F08BFC3FE0B5F9000002F0A6FC83
:103E2000A96902F0BBFC02F037FDB5F84410401A56
:103E3000ADF81800B5F9020002F098FCE96902F04B
:103E4000ADFC02F029FDB5F84610401AADF81A0095
:103E5000B5F9040002F08AFC296A02F09FFC02F026
:103E60001BFDB5F84810401AADF81C00F6B20EA8BC
:103E70003018811C06A802F059FCF6B20EA83018C2
:103E8000011D0DF11A0002F051FCF6B20EA8301817
:103E9000811D07A802F04AFCB61D200771D5A81D98
:103EA00002F0B8F900F00EFA002817D0F6B20EA80A
:103EB0003018811CA81D02F039FCF6B20EA830188B
:103EC000011D15F1080002F031FCF6B20EA8301801
:103ED000811D15F10A0002F029FC51E0B5F9060038
:103EE00002F044FC696A02F059FC0700B5F94A0087
:103EF00002F03CFC0100380002F0F0FC02F0CCFCC7
:103F0000ADF81000B5F9080002F030FCA96A02F023
:103F100045FC0700B5F94C0002F028FC0100380010
:103F200002F0DCFC02F0B8FCADF81200B5F90A00B2
:103F300002F01CFCE96A02F031FC0700B5F94E0002
:103F400002F014FC0100380002F0C8FC02F0A4FCEE
:103F5000ADF81400F6B20EA83018811C04A802F0C7
:103F6000E5FBF6B20EA83018011D0DF1120002F0AB
:103F7000DDFBF6B20EA83018811D05A802F0D6FBB5
:103F8000B61D60076AD515F10C0002F05BFB00F06E
:103F900099F9002818D0F6B20EA83018811C15F136
:103FA0000C0002F0C3FBF6B20EA83018011D15F18B
:103FB0000E0002F0BBFBF6B20EA83018811D15F101
:103FC000100002F0B3FB48E0B5F90C004FF47A7131
:103FD000484302F0CBFB296B02F0E0FB02F05CFCF3
:103FE000B5F85010401AADF80800B5F90E004FF4BE
:103FF0007A71484302F0BAFB696B02F0CFFB02F022
:104000004BFCB5F85210401AADF80A00B5F9100093
:104010004FF47A71484302F0A9FBA96B02F0BEFB92
:1040200002F03AFCB5F85410401AADF80C00F6B2A4
:104030000EA83018811C02A802F078FBF6B20EA878
:104040003018011D0DF10A0002F070FBF6B20EA847
:104050003018811D03A802F069FBB61DA0072CD5FE
:1040600015F1140002F04CFD00F02CF9002808D0E6
:10407000F6B20EA83018811C15F1140002F05FFB97
:104080001AE0A88A02F07CFBE96B02F087FB0700CC
:10409000B5F9560002F06AFB0100380002F01EFC80
:1040A00002F0FAFBADF80200F6B20EA83018811C3F
:1040B0000DF1020002F043FBB61CE00722D500F030
:1040C00001F900280CD015F1120002F038FEF6B20A
:1040D0000EA83018811C15F1120002F027FB10E029
:1040E00015F1120002F03EFE688AB5F85810401A29
:1040F000ADF80000F6B20EA83018811C00A802F03E
:1041000015FBB61C8D480088401C8C4908808B48E4
:10411000008880B2000A8DF83800884800888DF841
:104120003900B61C0EAA711CC9B2522000F02DF83D
:1041300002E0002000F0A5F81EB0BDE8F087000006
:10414000E8F7FF1FD0420008EC42000808430008CF
:1041500070B588B004000D00160080208DF80000B6
:104160008DF801508DF80240EDB2022D06D36A1E83
:10417000D2B20DF10301300002F0CEFAA91CC9B28F
:1041800000A800F08FFD08B070BD70B59AB00400B3
:104190000D00160040208DF800008DF801508DF8BC
:1041A0000240EDB2022D06D36A1ED2B20DF1030118
:1041B000300002F0B1FAA91CC9B200A800F072FDEB
:1041C0001AB070BD30B589B004000D00C0208DF864
:1041D000000002208DF801008DF802408DF8035098
:1041E000042100A800F05EFD09B030BD70B58CB0B0
:1041F000040005A80FF28C111C2203F090FDE4B21C
:10420000072C04D2E4B205A850F8246001E04FF472
:10421000C87602A801F0ACFE564890FBF6F0050007
:1042200001AA0DF10601280002F025FABDF80400EC
:10423000401EADF80C00BDF80600401EADF80800A9
:104240000020ADF80E000020ADF80A0002A95FF0D2
:10425000804001F03BFE01215FF0804001F0ADFEA7
:104260001C208DF8000000208DF802000D208DF834
:10427000010001208DF8030000A803F080FD0CB0C0
:1042800070BD10B5040001215FF0804001F0BCFE5C
:104290002200D2B201215FF0804001F083FE2100B4
:1042A000C9B25FF0804001F06FFE10BD1F4800787A
:1042B00070473149087070473049087070472E4880
:1042C000007870472D48007870470000E9450020CD
:1042D000694E454D4F204669726D776172655F5634
:1042E000657273696F6E5F322E320000694E454D04
:1042F0004F2056322048617264776172655F56655F
:104300007273696F6E5F3100694E454D4F204148B1
:10431000525320454E41424C452056312E322E30CC
:1043200000000000164908707047000008010020D6
:1043300009010020A0470020964700209447002054
:104340009A9999999999234000408F406811F16397
:1043500046DF913F85EB51B81E8510407B14AE4778
:10436000E17A124000E0834400806D440000344351
:10437000D80F494000A24A04A4470020A5470020C6
:10438000A3470020010000000A00000019000000FF
:10439000320000001E0000006400000090010000D8
:1043A0002DE9FB4F82B014000E9D0F9E109FDDF88B
:1043B00044803900200080B200F02BFB8246BAF125
:1043C000000F6CD0A4B2DAF8300010EB8400001FAC
:1043D00083465FEADB0B5FEACB0BA4B20094434653
:1043E0002A000399504600F09CFA049A0299584614
:1043F00003F020FDCAF8000003F044FDDFF81C07BD
:104400000068401CDFF814170860DFF81007006828
:10441000012806D1DFF80807C0F800A000F0A5FACF
:104420000EE0DFF800070068002809D1DFF8F00689
:104430000068C06A854203D3DFF8E406C0F800A034
:10444000DFF8E4060068DAF82C10884204D2DAF8C3
:104450002C00DFF8D4160860DFF8D0060068401C96
:10446000DFF8C8160860DFF8C8060068DAF82C1014
:10447000884204D2DAF82C00DFF8B41608601AF18A
:104480000401DAF82C001422DFF8A83602FB003011
:1044900003F042FD0120814603F0FDFC02E05FF0E5
:1044A000FF308146B9F1010F10D1002E01D0C6F8BE
:1044B00000A0DFF870060068002807D0DFF860066B
:1044C0000068C06AA84201D203F0D7FC484605B094
:1044D000BDE8F08F70B504000026002C2BD000F052
:1044E00050F8DFF85C06006820180500DFF8300699
:1044F0000068001D03F03DFDDFF8240600684560FC
:10450000DFF83C060068854209D2DFF8140600682F
:10451000011DDFF83006006803F00DFD08E0DFF84C
:1045200000060068011DDFF82006006803F003FDA7
:1045300000F02FF80600002E01D103F09EFC70BDA4
:104540001FB5002003900020029000200190002061
:104550000090002380220FF21861DFF8FC05FFF7BE
:104560001FFF0400012C0BD103F034FDDFF8B4056C
:1045700001210160DFF8C8050021016003F067FC3C
:104580001FBDDFF8D0050068401CDFF8C8150860C3
:10459000704770B5002503F075FCDFF8B8050068BA
:1045A000401EDFF8B0150860DFF8A8050068002895
:1045B0005BD1DFF868050068002856D00026DFF8D8
:1045C00090050068002804D0DFF88405C068C4683E
:1045D00000E00024002C23D014F1180003F0C9FCE3
:1045E000201D03F0C6FCDFF848050068E16A884238
:1045F00003D2E06ADFF838150860211DE06A142252
:10460000DFF8303502FB003003F086FCE06ADFF8AB
:1046100010150968C96A8842D1D301200600CEE787
:10462000DFF838050068002810D0DFF83005006892
:10463000002809D000F01DF8DFF820050068401EB2
:10464000DFF818150860F0E701200600012E04D0FD
:10465000DFF80C050068012807D101200500DFF80C
:1046600000050021016003F008FC03F014FC2800A1
:1046700070BD10B5DFF8DC040068002852D1DFF807
:10468000C0040068401CDFF8B8140860DFF8B0040C
:104690000068002813D1DFF8B01409680800DFF8BB
:1046A000A814DFF8A02412680A60DFF898140860E4
:1046B000DFF8B0140968491CDFF8A8241160DFF89E
:1046C000880400680068002805D0DFF87C040068D2
:1046D000C068C46800E00024002C2AD0DFF8600421
:1046E00000686168884224D3201D03F042FCA06A60
:1046F000002803D014F1180003F03BFCDFF830046D
:104700000068E16A884203D2E06ADFF82414086096
:10471000211DE06A1422DFF81C3402FB003003F094
:10472000FBFBCCE7DFF834040068401CDFF82C14F6
:10473000086010BDDFF81C040068002804D0DFF812
:104740002004012101602BE0DFF8E403006814215C
:10475000DFF8E02301FB00200068002807D1DFF824
:10476000D0030068401EDFF8C8130860ECE7DFF8EC
:10477000C01309681422DFF8BC3302FB01310800C2
:10478000416849684160416810F10802914202D1D4
:104790004168496841604068C068DFF88413086078
:1047A000704770B504000D00DFF87403006810F165
:1047B0001801200003F0BFFBDFF864030068001D50
:1047C00003F0D7FB15F1010F08D1DFF8540300689F
:1047D000011DDFF8780303F09FFB20E0DFF86003A2
:1047E000006828180600DFF8380300684660DFF824
:1047F00050030068864209D2DFF824030068011DD7
:10480000DFF84003006803F096FB08E0DFF81003D0
:104810000068011DDFF83003006803F08CFB70BDF9
:1048200070B504002068002802D0E068C66800E087
:10483000002616F1180003F09CFBDFF8180300684F
:10484000002813D1301D03F094FBB9480068F16AC9
:10485000884202D2F06AB6490860311DF06A14221B
:10486000B44B02FB003003F057FB04E016F11801D3
:10487000B74803F051FBF06AA9490968C96A884240
:1048800002D30120050001E000200500280070BDD2
:10489000B44909680160AA4909684160704770B568
:1048A00004000D0003F0EEFA286810F1010F02D1A8
:1048B0000020060022E0AB4800682168884207D04B
:1048C0009F4800686168884202D30120060015E015
:1048D0009B4800686168401A296888420CD22868A1
:1048E00097490968401A6168081828602000FFF796
:1048F000CFFF0020060001E00120060003F0CBFA04
:10490000300070BD964801210160704710B5040069
:1049100000F04EF8874800680228F9D303F0ADFA9A
:10492000F6E72DE9F04105000E0017009846069CB9
:104930001022310015F1340003F072FB002085F8DD
:104940004300052F01D304200700EF626F64281D88
:1049500003F0DFFA15F1180003F0DBFA2D61D7F14F
:104960000500A8616D62BDE8F08110B5002004006B
:10497000052C07D214206F4900FB041003F0BAFA8B
:10498000641CF5E7784803F0B5FA784803F0B2FA0A
:104990006F4803F0AFFA684803F0ACFA6B4803F0D5
:1049A000A9FA69487049016066487049016010BD04
:1049B00038B56248006800282AD0FFF7E2FD5E485B
:1049C0000068002801D1012400E00024E4B2FFF7D0
:1049D000E0FD002C1CD103F055FA57480068002870
:1049E00003D05548C068C56800E00025281D03F0C5
:1049F000C0FA4A480068401E484908604F480068AD
:104A0000401E4E49086003F046FA280000F020F8E6
:104A100031BD70B504000D00482003F037FB0600DF
:104A2000002E13D0A4B2A00003F030FB3063306B33
:104A3000002805D1300003F0A1FB0020060005E0AE
:104A4000A4B2A200A521306B03F0C7FB300070BDFB
:104A500010B50400206B03F091FB200003F08EFBE7
:104A600010BD2F4909680800704738B504002500BB
:104A7000E86A2B490968C96A884229D2284800682F
:104A8000C06AD0F10500A8616869E96A1422294B5F
:104A900002FB0131884217D1281D03F06AFA204831
:104AA0000068C06AE86222480068E96A884202D267
:104AB000E86A1F490860291DE86A14221D4B02FBA1
:104AC000003003F029FA03E015480068C06AE86284
:104AD00031BD38B504002500002C1CD0E86A696C93
:104AE000884218D0281D03F044FA686CE862E86A2E
:104AF000D0F10500A8610E480068E96A884202D238
:104B0000E86A0B490860291DE86A1422094B02FB78
:104B1000003003F001FA31BD0000000050470020D2
:104B2000404700206047002058470020744700207D
:104B30005C47002080450020A84600204C4700200C
:104B4000544700204847002044470020BC4600202E
:104B500094460020644700200D4900086847002063
:104B60006C470020704700206C46002080460020E3
:104B700049444C45000000004048006810F4E060E3
:104B80003F4908433D490860BFF34F8FFEE780B5BA
:104B90000121042003F0ACFB4FF48060ADF800006D
:104BA00003208DF8020010208DF8030000A935487D
:104BB00003F0CEFB002000F001F801BD10B50400A9
:104BC000E4B2002C05D04FF480612E4803F05CFC69
:104BD00004E04FF480612B4803F059FC10BD2A48D3
:104BE0000068C0B2704780B50020FFF7E7FFFFF70D
:104BF000C3FF01BD80B503F077FC03F089FC2349B6
:104C000008700121204803F0EBFC2049087003F0F4
:104C100076FC01BD80B5002003F0EAFA01215FF4C3
:104C2000000003F074FB01BD80B514208DF8000076
:104C30000E208DF8010000208DF8020001208DF873
:104C4000030000A803F09BF801BD70B51048006890
:104C500004001048006805000F4800680600341979
:104C6000002C09D008220D49200000F04BF8042246
:104C70000B49280000F046F870BD00000CED00E084
:104C80000400FA050008014004F8FF1FAA470020AD
:104C9000E8F7FF1FECF7FF1FF0F7FF1F760000207B
:104CA000860000202DE9F04104000D002E000027B1
:104CB000FFB2EDB2AF4223D2F6B2402E01D2B046DF
:104CC00001E040208046012003F05DFD3028FAD04D
:104CD0005FFA88F8424692B2C021FFB2381903F059
:104CE00061FE5FFA88F8414689B2012003F001FEB7
:104CF000012003F050FDB6EB080618EB0707D7E7D5
:104D0000BDE8F08130B4002300242300DBB2D2B22E
:104D1000934215D2040F0A2C05D2DBB2040F3034B3
:104D200001F8134004E0DBB2040F373401F81340FC
:104D30000001DBB211EB4304002565705B1CE5E765
:104D400030BC704710B582B004000121E4B20FF20C
:104D50008C0050F8240003F0CBFAE4B20FF2780094
:104D600030F81400ADF8000010208DF80300032087
:104D70008DF8020000A9E4B2164850F8240003F0B0
:104D8000E7FA13BDC0B2134951F82010C0B20FF2B8
:104D9000480232F810200A617047C0B20D4951F83C
:104DA0002010C0B20FF2300232F810204A61704772
:104DB000C0B2084951F82010C968C0B20FF21802F9
:104DC00032F810205140C0B2024A52F82020D1607F
:104DD00070470000F40000200002000008000000FE
:104DE00080B50020FFF7AEFFFFF7D1FE0120FFF7EF
:104DF000E5FEFFF70FFFFFF717FF03F009FE01F0D5
:104E0000DFFD01F065FF03F023FE0021002004F028
:104E100081FB01F02BFA01F015F901F06CF901F0BA
:104E200092F901BD0021A0F844100021A0F846101D
:104E30000021A0F848100021A0F84A100021A0F895
:104E40004C100021A0F84E100021A0F850100021B5
:104E5000A0F852100021A0F854100021A0F856101C
:104E60000021A0F858105FF07E5181615FF07E5103
:104E7000C1615FF07E510162DFF86C1C4162DFF8B6
:104E8000681C8162DFF8641CC162DFF8641C016386
:104E9000DFF85C1C4163DFF85C1C8163DFF8581CA1
:104EA000C163DFF8581C0164704700B587B001F09A
:104EB0005EF901F067F920208DF8140000208DF8CC
:104EC000150007208DF8160000208DF8170000202F
:104ED0008DF8180040208DF8190000208DF808008A
:104EE00000208DF8090000208DF80A0001208DF8BF
:104EF0000B0005A801F0BBFA02A801F0E1FA1420AA
:104F00008DF8040000208DF8050040208DF8060083
:104F100000208DF8070001A801F062FB00208DF849
:104F2000000030208DF8010000208DF802000020E4
:104F30008DF8030000208DF80C0000208DF80D0086
:104F400002208DF80E0001208DF80F0000208DF852
:104F5000100002208DF8110001208DF8120000A829
:104F600001F069FD03A801F07EFD002001F0A7FD1E
:104F700007B000BD2DE9F84304000D0016001F0026
:104F8000DDF820805FF00009EDB2002D08D0022D81
:104F90001AD00FD3042D2BD020D3052D32D03AE0D8
:104FA00043463A00D2B23100C9B2200000F037F8CF
:104FB000814630E043463A00D2B23100C9B2200007
:104FC00000F0FCF9814626E043463A00D2B23100B7
:104FD000C9B2200000F01BFB81461CE043463A00AA
:104FE000D2B23100C9B2200000F05FFB814612E06E
:104FF00043463A00D2B23100C9B2200000F081FB32
:10500000814608E043463A00D2B23100C9B22000DE
:1050100000F0CAFB81464846C0B2BDE8F2832DE9E4
:10502000F04383B004000D0016001F005FF000087D
:10503000EDB2002D0CD0022D00F09F803CD3042D4A
:1050400000F09B81C0F08A81052D00F0A581B1E1BF
:10505000387804282DD2F6B2022E2AD100208DF8FD
:1050600004000123202201A9332001F07EF99DF8DC
:10507000040010F0E700397810EBC1008DF804004F
:10508000202201A9332001F02BF90123202201A9BC
:10509000332001F06AF99DF80400C0F3C100C0B2EA
:1050A0003978884202D10120804604E00020804601
:1050B00001E0002080467DE1387804285AD2387813
:1050C000022857D0F6B2022E54D100208DF80300EA
:1050D000012323220DF10301332001F046F99DF84D
:1050E000030010F0CF00397811F0030110EB01102C
:1050F0008DF8030023220DF10301332001F0F0F8B5
:10510000012323220DF10301332001F02EF99DF834
:105110000300C0F30110C0B23978884227D1387833
:10512000002804D001280CD0032814D01CE05FF024
:105130007E50A0615FF07E50E0615FF07E502062A3
:1051400012E05FF07C50A0615FF07C50E0615FF0A6
:105150007C50206208E05FF07A50A0615FF07A50E6
:10516000E0615FF07A5020620120804604E0002078
:10517000804601E0002080461CE1F6B2032E40F09C
:10518000EC8097F800905FFA89F95FEA896040F156
:10519000BC800123202200A9332001F0E6F89DF80D
:1051A000000010F0E7005FFA89F919F0030110EB35
:1051B000C1008DF80000202200A9332001F090F8F2
:1051C0000123202200A9332001F0CFF85FFA89F9EA
:1051D0005FEAC96051D5012321220DF1020133207C
:1051E00001F0C3F89DF8020010F0CC00C9F3810172
:1051F000081830308DF8010021220DF10101332013
:1052000001F06EF8012321220DF10101332001F09C
:10521000ACF82622791C332001F062F80123262203
:105220000DF10601332001F0A0F89DF8010010F007
:1052300003009DF8011011F0300111EB80008DF892
:1052400002009DF8020010F0FC009DF80010C1F370
:10525000C10108188DF802009DF802005FFA89F973
:10526000484507D19DF806007978884202D101208F
:10527000804672E0002080466FE0012321220DF17C
:105280000101332001F071F89DF8020010F0CC000C
:10529000C9F38101081810308DF8010021220DF1A9
:1052A0000101332001F01CF8012321220DF101013D
:1052B000332001F05AF89DF80000C0F3C1008DF8CA
:1052C00000009DF800009DF8011011F0030110EBA3
:1052D00081008DF800009DF800009DF8011011F08C
:1052E000100110EB41008DF800009DF800005FFAFE
:1052F00089F9484506D19DF80100C00602D5012074
:1053000080462AE00020804627E0012321220DF17B
:105310000501332001F029F89DF8050010F0CF00B9
:105320008DF8050021220DF10501332000F0D8FF92
:1053300026220021332000F0D3FF012321220DF18A
:105340000501332001F011F89DF80500C00602D4D4
:105350000120804601E0002080462BE0F6B2032EBB
:1053600008D13878797811EB0020A4F844000120A6
:10537000804601E0002080461CE0F6B2032E08D1F2
:105380003878797811EB0020A4F846000120804697
:1053900001E0002080460DE0F6B2032E08D13878F7
:1053A000797811EB0020A4F848000120804601E044
:1053B000002080464046C0B2BDE8FE832DE9F041A2
:1053C00082B004000D0016001F005FF00008EDB26F
:1053D000002D0CD0022D00F0BB803CD3042D00F03A
:1053E000F580C0F0E480052D00F0FF800BE13878F7
:1053F00007282DD2F6B2022E2AD1012300220DF168
:1054000001013D2000F0B1FF9DF8010010F0E30024
:10541000397810EB81008DF8010000220DF10101B7
:105420003D2000F05DFF012300220DF101013D2030
:1054300000F09BFF9DF80100C0F38200C0B23978F4
:10544000884202D10120804604E00020804601E02D
:1054500000208046D7E03878082876D238780128AE
:1054600073D3F6B2022E70D1387840018DF8020065
:1054700001220DF102013D2000F032FF0123012243
:105480000DF102013D2000F070FF9DF80200C0B256
:1054900040093978884255D1387801280AD04ED34E
:1054A00003281BD010D305282CD021D307283DD0AA
:1054B00032D344E0DFF838062063DFF83406606357
:1054C000DFF82C06A0633AE0DFF8C8092063DFF8B4
:1054D000C4096063DFF8C009A06330E0DFF8BC09ED
:1054E0002063DFF8B8096063DFF8B409A06326E041
:1054F000DFF8B0092063DFF8AC096063DFF8A809C2
:10550000A0631CE0DFF8A4092063DFF8A009606352
:10551000DFF89C09A06312E0DFF898092063DFF848
:1055200094096063DFF89009A06308E0DFF88C0954
:105530002063DFF888096063DFF88409A063012035
:10554000804604E00020804601E0002080465AE0CA
:105550003878032828D2F6B2022E25D10123002262
:1055600000A93D2000F001FF9DF8000010F0FC00B4
:10557000397808188DF80000002200A93D2000F0BD
:10558000AFFE0123002200A93D2000F0EEFE9DF8B1
:10559000000010F003003978884202D101208046D3
:1055A00004E00020804601E0002080462BE0F6B2B7
:1055B000032E08D13878797811EB0020A4F8500038
:1055C0000120804601E0002080461CE0F6B2032E58
:1055D00008D13878797811EB0020A4F85200012026
:1055E000804601E0002080460DE0F6B2032E08D18F
:1055F0003878797811EB0020A4F854000120804617
:1056000001E0002080464046C0B2BDE8F68170B49B
:1056100004000020C9B2002903D0022934D024D3C9
:1056200040E01D78042D02D01D78082D1AD1D2B289
:10563000022A17D11D78042D02D0082D09D013E0BD
:10564000DFF8A4546562DFF8A054A56201252800A4
:105650000AE0DFF870586562DFF86858A562012536
:10566000280001E0002528001CE0D2B2032A08D15E
:105670001D785E7816EB0525A4F84A500125280010
:1056800001E0002528000DE0D2B2032A08D11D78E0
:105690005E7816EB0525A4F84C500125280001E0A2
:1056A00000252800C0B270BC704770B40400002010
:1056B000C9B2002902D0012912D01FE01D78042DA3
:1056C0000BD1D2B2022A08D11D78042D07D1DFF800
:1056D0001C54E5620125280001E0002528000DE0AA
:1056E000D2B2032A08D11D785E7816EB0525A4F8FE
:1056F0004E500125280001E000252800C0B270BCF2
:1057000070472DE9F04182B004000D0016001F0023
:105710005FF00008EDB2002D02D0012D32D03FE045
:105720003878032802D03878012828D1F6B2022E22
:1057300025D10122202100A801F04DFA9DF800009A
:1057400010F0CF00397810EB01108DF80000012225
:10575000202100A801F0FEF90122202100A801F07B
:105760003AFA9DF80000C0F30110C0B239788842BF
:1057700002D10120804604E00020804601E00020A4
:1057800080460DE0F6B2032E08D13878797811EB17
:105790000020A4F856000120804601E00020804649
:1057A0004046C0B2BDE8F68170B404000020C9B222
:1057B00000290DD1D2B2032A08D11D785E7816EBEC
:1057C0000525A4F858500125280001E000252800EF
:1057D000C0B270BC70472DE9F04104000D00160006
:1057E0001F005FF00008EDB2002D08D0022D16D08A
:1057F0000DD3042D23D01AD3052D28D02EE03A0046
:105800003100C9B2200000F02DF8804626E03A00B1
:105810003100C9B2200000F0C1F880461EE03A0015
:105820003100C9B2200000F025F9804616E03A00A8
:105830003100C9B2200000F063F980460EE03A0062
:105840003100C9B2200000F07FF9804606E03A003E
:105850003100C9B2200000F0A2F980464046C0B233
:10586000BDE8F0812DE9F04182B004000D00160082
:10587000002700207070EDB2002D08D0022D28D036
:1058800016D3042D6BD05ED3052D74D082E0032097
:1058900030700020B07001232022F11C332000F072
:1058A00064FDF078C0F3C100F0700120070071E0E2
:1058B000032030700120B07001232322F11C33201B
:1058C00000F053FDF078C0F30110F07001200700E4
:1058D00060E05FF00008042030700220B070012307
:1058E000202200A9332000F040FD9DF80000C0F305
:1058F000C10080460123212200A9332000F035FD9C
:105900005FFA88F818F0F3009DF8001011F0030119
:1059100010EB81089DF8000010F06000202801D1F4
:1059200018F110089DF80000C00601D518F12008F4
:1059300086F8038001232622311D332000F015FD57
:105940000120070026E0042030700320B070F11C15
:1059500014F1440000F0EAFE012007001AE00420E0
:1059600030700420B070F11C14F1460000F0DEFE2F
:10597000012007000EE0B4F84800ADF80200042052
:1059800030700520B070F11C0DF1020000F0CEFE69
:10599000012007003800C0B2BDE8F681F8B5040068
:1059A0000D001600002701207070EDB2002D08D008
:1059B000022D28D016D3042D42D035D3052D4BD03F
:1059C00055E0032030700020B07001230022F11C4C
:1059D0003D2000F0CAFCF078C0F38200F070012096
:1059E000070044E0032030700120B0700123012241
:1059F000F11C3D2000F0B9FCF078C0B24009F07015
:105A00000120070033E0032030700220B070012332
:105A10000022F11C3D2000F0A8FCF07810F00300FB
:105A2000F0700120070022E0042030700320B070E5
:105A3000F11C14F1500000F079FE0120070016E07F
:105A4000042030700420B070F11C14F1520000F0FA
:105A50006DFE012007000AE0042030700520B070C0
:105A6000F11C14F1540000F061FE01200700380021
:105A7000C0B2F2BDF8B504000D00160000270220E8
:105A80007070EDB2002D03D0022D1FD012D328E08C
:105A9000032030700020B070606ADFF82C1403F02F
:105AA0008BFD04D80420F0700120070001E00020E5
:105AB000070016E0042030700120B070F11C14F1D2
:105AC0004A0000F033FE012007000AE00420307095
:105AD0000220B070F11C14F14C0000F027FE0120F0
:105AE00007003800C0B2F2BDF62884400AD79340C0
:105AF00000E0834400806D44CDCCCC3F0000A0404A
:105B0000F8B504000D001600002703207070EDB2F8
:105B1000002D02D0012D09D013E0032030700020A9
:105B2000B0700420F070012007000AE004203070FB
:105B30000120B070F11C14F14E0000F0F7FD0120BF
:105B400007003800C0B2F2BDF8B504000D00160021
:105B5000002704207070EDB2002D02D0012D10D06E
:105B60001AE0032030700020B07001222021F01CC8
:105B700001F031F8F078C0F30110F0700120070057
:105B80000AE0042030700120B070F11C14F15600BE
:105B900000F0CCFD012007003800C0B2F2BDF8B51E
:105BA00004000D001600002705207070EDB2002DD6
:105BB0000AD1042030700020B070F11C14F158009C
:105BC00000F0B4FD012007003800C0B2F2BD2DE99D
:105BD000F04104000D0016001F005FF00008EDB258
:105BE000002D0CD0022D00F0CA8068D3042D00F0E7
:105BF0001A81C0F0F680052D00F0378146E1F6B23B
:105C0000002E08D0022E20D012D3042E39D029D352
:105C1000052E45D052E003203870002078707B1CA0
:105C200002223100C9B22000FFF7F9F9804645E0B1
:105C300003203870002078707B1C02223100C9B22A
:105C40002000FFF7ECF9804638E00420387000208F
:105C500078707B1C03223100C9B22000FFF7DFF906
:105C600080462BE004203870002078700020B87047
:105C70007B1C03223100C9B22000FFF7D0F9804617
:105C80001CE004203870002078700020B8707B1C65
:105C900003223100C9B22000FFF7C1F980460DE0B0
:105CA00004203870002078700020B8707B1C03221C
:105CB0003100C9B22000FFF7B2F98046E6E0F6B243
:105CC000002E08D0022E20D012D3042E39D029D392
:105CD000052E45D052E003203870052078707B1CDB
:105CE00002223100C9B22000FFF768FB804645E080
:105CF00003203870022078707B1C02223100C9B268
:105D00002000FFF75BFB804638E00420387000205D
:105D100078707B1C02223100C9B22000FFF74EFBD5
:105D200080462BE004203870002078700020B87086
:105D30007B1C03223100C9B22000FFF73FFB8046E5
:105D40001CE004203870002078700020B8707B1CA4
:105D500003223100C9B22000FFF730FB80460DE07E
:105D600004203870002078700020B8707B1C03225B
:105D70003100C9B22000FFF721FB804686E0F6B271
:105D8000002E03D0022E1DD00DD329E00320387041
:105D9000042078707B1C03223100C9B22000FFF779
:105DA00036FC80461CE0042038700020787000200B
:105DB000B8707B1C03223100C9B22000FFF727FC1A
:105DC00080460DE004203870002078700020B87004
:105DD0007B1C03223100C9B22000FFF718FC80466B
:105DE00054E0F6B2002E02D0012E0DD01AE00320AE
:105DF0003870042078707B1C03223100C9B2200067
:105E0000FFF753FC80460DE00420387000207870C6
:105E10000020B8707B1C03223100C9B22000FFF7BC
:105E200044FC804632E0F6B2002E02D0012E0DD0A6
:105E30001AE003203870032078707B1C02223100A6
:105E4000C9B22000FFF75DFC80460DE004203870E9
:105E5000002078700020B8707B1C03223100C9B28A
:105E60002000FFF74EFC804610E0F6B2002E0DD168
:105E700004203870002078700020B8707B1C03224A
:105E80003100C9B22000FFF78FFC80464046C0B207
:105E9000BDE8F08100C046440080314400C01E448B
:105EA00000800E440000D7430080C0430080BB4305
:105EB0000080A7430000A04300808E43000066439B
:105EC00000004D430AD7833F010080400022038831
:105ED0001A001D4B98420ED0214B98420BD0B0F1C6
:105EE000804F08D0194B984205D0194B984202D0E8
:105EF000184B984204D14FF68F731A404B881A43BF
:105F0000154B984207D0154B984204D04FF6FF43EB
:105F10001A40CB881A4302808B8883850B880385BF
:105F2000094B98420BD00E4B984208D00D4B98422B
:105F300005D00D4B984202D00C4B984201D10B7A00
:105F40000386012383827047002C01400004004037
:105F500000080040000C0040001000400014004009
:105F6000003401400040014000440140004801402D
:105F70004FF6FF718180002101800021C180002146
:105F80004180002101727047C9B2002904D0028803
:105F900052F00102028004E002884FF6FE731A40BC
:105FA00002807047D2B2002A03D083890B438381D9
:105FB00002E083898B4383817047C9B2002904D0F2
:105FC000028852F08002028004E002884FF67F735C
:105FD0001A400280704730B40200002000230024E1
:105FE000158A0D402B0095890D402C009BB2002B8B
:105FF00005D0A4B2002C02D00125280001E0002524
:106000002800C0B230BC704789B2CA4302827047D0
:10601000002203F0E7BA10B450F8041B81B1026803
:106020001218001D50F8043BDC0744BFA9F101041D
:10603000E31852F8044B43F8044B091FF9D1EBE77E
:1060400010BC704700B587B001214FF4047002F016
:106050004FF93720ADF8000000208DF8030000A9AB
:10606000664802F075F90020019001208DF80800C3
:1060700001208DF809005FF4602003900020049057
:1060800005208DF81400072301220A215C4803F043
:1060900033FB072302220B21594803F02DFB072372
:1060A00003220C21564803F027FB072304220E216C
:1060B000534803F021FB072305220F21504803F02A
:1060C0001BFB01A94E4803F0A5FA01214C4803F03F
:1060D000C9FA4B4803F0E1FA494803F0E3FA002813
:1060E000FAD1474803F0EAFA454803F0ECFA0028F1
:1060F000FAD107B000BD00B58BB00121012002F03C
:10610000E8F8404803F074FB3F4800903F48019096
:10611000002002900520039000200490802005902C
:106120004FF4807006904FF4806007902020089014
:106130004FF40050099000200A9000A9314803F064
:10614000DBFB0BB000BD80B50121082002F0D0F8C8
:106150004CF20200ADF8000003208DF80200102080
:106160008DF8030000A92A4802F0F2F801BD80B5BD
:106170004FF40041264802F08AF92021244802F019
:1061800086F901BD80B54FF48041214802F07FF9C6
:1061900002211F4802F07BF901BD10B5040001F097
:1061A00071FE0121164803F06AFA0121144803F038
:1061B00059FA0121134803F0BEFB0121104803F0F6
:1061C0008EFA022003F0C4FB0028FAD000210C480C
:1061D00003F048FA00210A4803F081FA022003F094
:1061E000CCFB0020052806DA084931F81010218080
:1061F000A41C401CF6E701F04EFE10BD001001404B
:1062000000240140080002404C240140F0460020D8
:10621000000C014010B584B0040000A8FFF7BDFFDA
:10622000BDF90000BDF90410401A2080BDF902003C
:10623000BDF90410401A00B240426080BDF906006A
:10624000BDF90810401AA0801FBD50F8041B61B1B1
:1062500050F8042BD30744BFA9F101039A18002377
:1062600042F8043B091FFAD1EFE7704700B585B04B
:1062700001215FF4001002F04AF80121082002F029
:1062800037F8C020ADF8000003208DF802001C2074
:106290008DF8030000A9DFF8280302F059F8002068
:1062A000ADF808004BF6FF70ADF80A000020ADF81D
:1062B0000C004FF48060ADF80E004FF48040ADF854
:1062C0001000DFF80003019001A9DFF8FC0203F0E1
:1062D0007FFB0121DFF8F00203F0FAFB05B000BDFF
:1062E00070B504000D00160001F0CCFD0121DFF8AF
:1062F000D80203F0FBFBDFF8D412DFF8CC0203F086
:1063000032FC0028F7D000222100C9B2DFF8B80221
:1063100003F01EFCDFF8B812DFF8AC0203F023FC38
:106320000028F7D03100C9B2DFF89C0203F00AFC64
:10633000DFF8A012DFF8900203F015FC0028F7D078
:106340002978DFF8840203F0FDFBDFF88812DFF81C
:10635000780203F008FC0028F7D00121DFF868027A
:1063600003F0D3FB01F097FD70BDF8B504000D00FC
:1063700016001F0001F086FD5FF40031DFF84802CF
:1063800003F00DFC0028F7D10121DFF83C0203F0F7
:10639000ADFBDFF83812DFF8300203F0E4FB002831
:1063A000F7D000222100C9B2DFF81C0203F0D0FBB5
:1063B000DFF81C12DFF8100203F0D5FB0028F7D03D
:1063C0000121DFF8040203F083FB3100C9B2DFF8DA
:1063D000F80103F0B7FBDFF8FC11DFF8EC0103F084
:1063E000C2FB0028F7D00121DFF8DC0103F07EFBBF
:1063F000DFF8D811DFF8D00103F0B5FB0028F7D0A3
:1064000001222100C9B2DFF8C00103F0A1FBDFF8CF
:10641000C811DFF8B40103F0A6FB0028F7D0BFB223
:10642000002F1CD0BFB2012F09D10021DFF8980145
:1064300003F07AFB0121DFF8900103F066FBDFF83F
:106440009C11DFF8840103F08EFB0028E7D0DFF811
:10645000780103F07AFB28706D1C7F1EDFE70121B5
:10646000DFF8640103F060FB01F015FDF1BD10B52C
:1064700082B0040000208DF8010000208DF800009B
:106480009DF80100217862781143A27811430843F6
:106490008DF801009DF80000E178227911436279BE
:1064A000114308438DF8000020220DF10101332033
:1064B000FFF716FF232200A93320FFF711FF13BDBA
:1064C00010B582B0040000208DF8010000208DF886
:1064D00000009DF80100217862781143E2781143B1
:1064E00008438DF801009DF80000A17808438DF85D
:1064F000000021220DF101013320FFF7F1FE2622D9
:1065000000A93320FFF7ECFE13BD10B584B00400E2
:106510000123232202A93320FFF727FF012328228A
:1065200000A93320FFF721FF012329220DF10101EA
:106530003320FFF71AFF01232A220DF10201332035
:10654000FFF713FF01232B220DF103013320FFF787
:106550000CFF01232C2201A93320FFF706FF0123A2
:106560002D220DF105013320FFF7FFFE9DF80800F5
:1065700040060FD40020032820DA00A911EB4001C7
:10658000497800AA12F8102012EB012124F810100B
:10659000401CF0E70020032810DA00A911F81010C1
:1065A000090209B200AA12EB4002527851181022D7
:1065B00091FBF2F124F81010401CECE71FBD000025
:1065C000000C0140A08601000054004001000300BF
:1065D000820007008400070002000300400003005F
:1065E00010B582B0040000208DF8020000208DF864
:1065F000010000208DF800009DF8020021786278EB
:10660000114308438DF802009DF80100A17808436A
:106610008DF801009DF80000E17808438DF8000036
:1066200000220DF102013D20FFF75AFE01220DF17B
:1066300001013D20FFF754FE022200A93D20FFF793
:106640004FFE13BD1CB504000623032200A93D2004
:10665000FFF78BFE002003280CDA00A911F81010B8
:1066600000AA12EB4002527812EB012124F810101C
:10667000401CF0E713BDF0B50600471E4FF6FF7C47
:10668000B7FBFCF77F1C3C000F800F88B0FBF7F7CF
:106690003B0017800F884FF6FE7C674539D20F8884
:1066A000B0FBF7F717800F88B2F800C00CFB07F7B4
:1066B0003F1A3D00012D01DB2F0000E06F42B1F8D1
:1066C00000C05FF0020E9CFBFEFCBC4509DA178897
:1066D0007F1C17800F88B2F800C00CFB07F73F1A29
:1066E0003D00012D01DB2F0000E06F42012E01DB98
:1066F000B44601E0D6F1000C674506DA2E000F889B
:106700003C0017883B00002D03D00F887F1C0F80B2
:10671000C0E70C801380F0BDD2B2002A05D0521E13
:1067200003780B70491C401CF6E770470022038871
:106730001A0092B2130A0B70491C0A7070470022AB
:1067400003881A0092B2130A0B70491C0A70704732
:1067500001B400AA10000322002A04D40378535481
:10676000401C521EF8E701B070470000002840F1BD
:106770000880F446404200F004F850F000406047C2
:1067800000280AD0B0FA80F18840D1F19D01C905F6
:10679000020672F1004241EB1020704710B5FF2352
:1067A00013EAD0541DBF13EAD1529C429A4239E0F9
:1067B000A41ADA0780EA0103134042EA012142EAFF
:1067C0000020421A3CBF641E01EB4202090AB2FBE0
:1067D000F1FE01FB1E221202B2FBF1F001FB1022BE
:1067E0006EF30F201202B2FBF1FE4EEA00207F345E
:1067F00006DDFE2C24DA53EA500050EBC45010BDE5
:10680000D4F1020401FB1E2240F08071192C1DDC22
:1068100021FA04F0C4F12004A140114371F10042B7
:10682000584110BD9C421ABF03EAD1529A420FE070
:1068300080EA010E0EF00043400004D0490016D15A
:1068400043F0FF4010BD490008BFD343180010BDFE
:106850009C4205D1D21AF7D001F00041484010BD4A
:106860004A0212BF0846484000F0004010BD4AB935
:106870000902B1FA81F2914044B1A418C00140F07C
:1068800000409EE7C90141F0004152420002B0FAC7
:1068900080F4A040141B94E74100090E7F3915D401
:1068A000D1F11F0114D4400007D2C00140F00040D4
:1068B000C84048BF6FF000407047C00140F0004042
:1068C000C8404CBF4FF00040404270470020704726
:1068D00000424FF0004058BFC043704790EA010F9C
:1068E00044BF81F0004103F084B9431A4FF00042E5
:1068F0003EBF5340C01AC918D3095FEAD05C13EBFE
:10690000400F34BFB3EB410F40E07CEBD1530CD3CD
:1069100042EA012122D8D1EB402009D3400A28BF06
:106920005FEA500140EBCC507047401A15D040024E
:10693000B0FA80F2521C9040400A4FEA3C23B3EB7D
:10694000026384BF00EB730007E040F400001A16F6
:10695000DB07C2F10102D04018437047182BFCDC62
:1069600031FA03F202FA03F3591A38BF42F0010276
:10697000D2EB40203CBF4000ACF1010C5FEACC5CA4
:10698000C20572F100414CEB5020704713EB400FF1
:106990000FD24B0009D0ACEBD153022B03DB4902E1
:1069A000172BDDDD70479143401A4300D5D10020FD
:1069B000704713EB410FD0D36FF000007047000019
:1069C00000B585B001215FF4800001F0A0FC012139
:1069D000082001F08DFC4FF44060ADF8000003206A
:1069E0008DF802001C208DF8030000A9DFF8C0021A
:1069F00001F0AEFC0020ADF808004BF6FF70ADF8DA
:106A00000A00BA20ADF80C004FF48060ADF80E001B
:106A10004FF48040ADF81000DFF89802019001A912
:106A2000DFF8940202F0D4FF0121DFF88C0203F0BA
:106A30004FF805B000BD10B582B0040000208DF8FD
:106A400000009DF80000217862781143A27811437C
:106A5000E278114308438DF800000122202100A8AC
:106A600000F078F813BD10B582B0040000208DF856
:106A7000010000208DF800009DF801002178627867
:106A80001143A27851EAC201E278114308438DF81C
:106A90000100012222210DF1010000F05BF89DF8B8
:106AA0000000217962791143A279114308438DF8DE
:106AB00000000122342100A800F04CF813BD10B5ED
:106AC00082B0040000208DF800000122202100A8DF
:106AD00000F081F8E4B2002C06D19DF8000050F0DF
:106AE00040008DF8000005E09DF8000010F0BF00A8
:106AF0008DF800000122202100A800F02BF813BD22
:106B000038B5040000A800210180002500208DF880
:106B10000200012220210DF1020000F05CF80222A7
:106B2000282100A800F057F89DF80200800708D43B
:106B30009DF801009DF8001011EB00200500258054
:106B400007E09DF800009DF8011011EB0020050002
:106B5000258031BD70B504000D00160001F092F9DA
:106B60000121554802F0C2FF5449534802F0FBFF8F
:106B70000028F9D00022BA214F4802F0E9FF50491D
:106B80004D4802F0F0FF0028F9D0F6B2022E00D3F3
:106B9000803D2900C9B2484802F0D4FF494946481F
:106BA00002F0E1FF0028F9D0F6B2002E0CD02178D7
:106BB000414802F0C7FF43493F4802F0D4FF002894
:106BC000F9D0641C761EEFE701213B4802F09DFFDF
:106BD00001F061F970BD70B504000D00160001F000
:106BE00051F95FF40031344802F0D9FF0028F8D1A0
:106BF0000121314802F07AFF30492F4802F0B3FFFB
:106C00000028F9D00022BA212B4802F0A1FF2C491C
:106C1000294802F0A8FF0028F9D00121264802F0F7
:106C200057FFF6B2022E00D3803D2900C9B2224898
:106C300002F088FF2349204802F095FF0028F9D090
:106C400001211D4802F052FF1C491B4802F08BFF36
:106C50000028F9D00122BA21174802F079FF1A4919
:106C6000154802F080FF0028F9D0F6B2002E17D0A8
:106C7000F6B2012E07D100210F4802F055FF012185
:106C80000D4802F042FF11490B4802F06CFF00284A
:106C9000EBD0094802F059FF2070641C761EE4E72F
:106CA0000121054802F040FF01F0F5F870BD000039
:106CB000000C0140A08601000058004001000300C4
:106CC0008200070084000700020003004000030068
:106CD00000B585B001215FF4800001F018FB0121AF
:106CE000082001F005FB4FF44060ADF800000320E0
:106CF0008DF802001C208DF8030000A9634801F004
:106D000027FB0020ADF808004BF6FF70ADF80A0035
:106D10009020ADF80C004FF48060ADF80E004FF4F9
:106D20008040ADF810005A48019001A9594802F07E
:106D30004FFE0121574802F0CBFE05B000BD10B553
:106D400082B0040000A8002101800222002100A8D6
:106D500000F02CF89DF800009DF8011011EB0020C8
:106D6000208013BD70B582B00400002500A800216A
:106D7000018000260222002100A800F017F89DF8EB
:106D80000100C0B2C009C0B29DF8001010EB410074
:106D900005009DF8000010F08000EDB215EB00201A
:106DA0000600052000FB06F0208073BD70B50400CE
:106DB0000D00160001F066F85FF40031354802F06E
:106DC000EEFE0028F8D10121324802F08FFE324950
:106DD000304802F0C8FE0028F9D0002290212D484A
:106DE00002F0B6FE2D492B4802F0BDFE0028F9D076
:106DF0000121284802F06CFEF6B2022E03D30121D5
:106E0000244802F091FE2900C9B2224802F09AFEFD
:106E10002349204802F0A7FE0028F9D001211D488F
:106E200002F064FE1C491B4802F09DFE0028F9D0C8
:106E300001229021174802F08BFE1A49154802F0F2
:106E400092FE0028F9D0F6B2002E17D0F6B2012E2D
:106E500007D100210F4802F067FE01210D4802F022
:106E600054FE11490B4802F07EFE0028EBD0094881
:106E700002F06BFE2070641C761EE4E701210548D9
:106E800002F052FE01F007F870BD0000000C014056
:106E9000A0860100005800400100030082000700A6
:106EA0008400070002000300400003005FF0FF0CB5
:106EB0001CEAD05114BF614506E0C110400721F023
:106EC000E04101F16051704779B900F000410002E2
:106ED0000AD0B0FA80FC00FA0CF001F16051A1EB8D
:106EE0000C5101EBD0214005704741020CBF40F42A
:106EF000E0016FF00001002070470000B0B581EAAA
:106F0000030C0CF0004C40F2FF7515EA11541DBF44
:106F100015EA1357AC42AF4239E0E41923EA45536E
:106F200043F48013C90241F0004141EA505EC702B8
:106F30001100A7FB020200284FF00000EEFB012029
:106F40004FF00001E3FB072118BF42F00102401897
:106F500000214941E3FB0E01A4F580640F0302D236
:106F600052004041494154F101046CDD470872F17F
:106F7000004250F1000051EB0451A1F580115CBFBB
:106F800041EA0C01B0BD4CEA05510020B0BD05EA54
:106F90001357AC4214BFAF4241E050EA410E1CBF50
:106FA00052EA430E02E061460020B0BD24423C4458
:106FB0001BD15FEA070EF6D0090302BF014600208D
:106FC000AEF1140EB1FA81F7AEEB070401FA07FE39
:106FD0000C37C7F1200100FA07F7C8404EEA000E4F
:106FE00023EA455343F48013A2E733F00043B3FA96
:106FF00083F704BFB2FA82FE77440B3FE41BB7F17C
:10700000200E2FBF02FA0EF3BB40C7F1200E22FA6A
:107010000EFE38BF43EA0E03BA40641C82E750EA12
:10702000410E14BF52EA430E6FF000014FF40017F7
:1070300017EB430F8ABF194617EB410FB5E74CEA30
:1070400005510020B0BDD4F10104B4F120070FDADE
:10705000C4F12007520828BF42F0010210FA07F5D8
:1070600001FA07F7E1BF2A43E0403843E1400FE06F
:10707000352C98DCC7F1200452EA400220FA07F2CE
:1070800018BF42F0010231FA07F0A1400A43002183
:1070900072F1004250F1000051EB0C01B0BD000054
:1070A000F0B540F2FF7581EA030C0CF0004C15EAD4
:1070B00011541DBF15EA1357AC42AF42E5E0BC4185
:1070C000C1F31301C3F31303801A994143F48013EE
:1070D00004D2641E4000494180185941C90241EA66
:1070E0005051B1FBF3F603FB1611A2FB0675D7EB6B
:1070F000C020A94102D2761E80185941C90241EA36
:107100005051B1FBF3FE03FB1E11A2FB0E75D7EB32
:10711000C020A94103D2AEF1010E80185941890265
:1071200041EA9051760546EA8E2EB1FBF3F603FB59
:107130001611A2FB0675D7EB8020A94102D2761E5C
:1071400080185941C90241EA50514EEA060EB1FB7E
:10715000F3F603FB1611A2FB0675D7EBC020A9417D
:1071600002D2761E80185941C90241EA5051B1FB42
:10717000F3F703FB1711A2FB0735D3EBC020A9419E
:1071800067F100070CBF004247F0010766F3D527FF
:107190004FEA1E31B80814F5806412DDBD0775F1A1
:1071A000004250EB0E5051EB045111F5801F5CBFB3
:1071B00041EA0C01F0BD4CF07F6141F0E04100205C
:1071C000F0BDBD076D0840EA0E5041F48011D4F1C6
:1071D0000104B4F120060ADAC4F120060200E040FE
:1071E00001FA06F3E1401843B24015430EE0342C97
:1071F00013DCC6F1200445EA40056D0820FA06F2CA
:10720000154321FA06F0A1400D43002175F100421B
:1072100050F1000051EB0C01F0BD00205FEA0C01C1
:10722000F0BDCFB992185B41B3FA83F704BFB2FA4D
:1072300082F6BF190B3FB7F120062FBF02FA06F303
:10724000BB40C7F1200622FA06F638BF3343BA40E6
:107250001CB1E419641E33E77F4231F00041B1FAFA
:1072600081F404BFB0FA80F6A4190B3CB4F12006F7
:107270002FBF00FA06F1A140C4F1200620FA06F65D
:1072800038BF3143A0403C1B1AE7AC421ABF05EAA5
:107290001357AF4212E050EA41061CBF52EA4306C0
:1072A000BFE750EA4107304661461CBF41EA05513D
:1072B000F0BD52EA430C08BFC143F0BD00204FF4BB
:1072C000001616EB410F98BF16EB430F08BF16EBE5
:1072D000410F24BFC14305E016EB430F0CBF6146CD
:1072E0004CEA0551F0BD00004FEAF17CBCF1E04CE6
:1072F0002CBFBCF5001F11E05FEA4C0C34BFBCF1A1
:107300007F5F2EE05FEA9C0C4FEA0C1C4FEA3C0CBE
:10731000C10071F100414CEB50707047C90241EA65
:107320005051C00218BF41F0010141F000414FEA45
:107330006C50C0F10900212810D240EACC7CCCF17D
:10734000200C11FA0CF070F10040CCF1200C21FA65
:107350000CF00CF0004C40EB0C0070474FEACC7086
:107360007047490011F5001F04D84FEACC10FF30D8
:10737000C0057047C817704770B504460D46DFF862
:10738000546800220721072002F0B4FCF0630222B7
:107390000721084602F0AEFC3064002207210846AF
:1073A00002F0A8FC706400220721084602F0A2FC4B
:1073B000B06400220321084602F09CFCF065002224
:1073C0000321084602F096FC3066002203210720C4
:1073D00002F090FCF06400220321072002F08AFCF6
:1073E00030650020DFF8F017DFF8F027F36B5B68FB
:1073F00053F8203043F82020736C5B6853F820303A
:1074000043F82010401C0728F0DBF06D4068DFF8DF
:10741000D017026811604268516080688160306EE8
:107420004068DFF8C01702681160426851608068E8
:10743000816000220721032002F05CFC70650022BD
:107440000721032002F056FCB065DFF89C0730608E
:10745000DFF898077060DFF89807B060DFF89407EE
:10746000F06006F110000321002240F8042B491EB1
:10747000FBD12260DFF880076060A260E2602261D9
:107480006261A261E26122626262A262DFF86C075D
:107490002860DFF86C076860DFF86807A86070BDD7
:1074A0002DE9F74F05462868401C28606E68DFF814
:1074B000244768692169FFF711FA314600F0B6FBED
:1074C0008046A8696169FFF709FA314600F0AEFB12
:1074D0008146E869A169FFF701FA314600F0A6FB91
:1074E0000646206C476888F000403968486089F09B
:1074F00000413A68916086F000423B68DA607B6840
:10750000C3F800807B689E607B68D960B968C1F869
:107510000090B9684A60B968C1F80C80F9680E60DB
:10752000F968C1F80490F96888606168686800F0DB
:107530007DFB39680861A168686800F077FB3968ED
:107540004861E168686800F071FB3968886121680A
:10755000686800F06BFB80F0004079680861E168C2
:10756000686800F063FB79684861A168686800F0AA
:107570005DFB80F0004079688861E168686800F030
:1075800055FB80F00040B96808612168686800F028
:107590004DFB80F00040B96848616168686800F0A0
:1075A00045FBB9688861A168686800F03FFBF9682D
:1075B00008616168686800F039FB80F00040F96894
:1075C00048612168686800F031FB80F00040F9688C
:1075D00088616068414600F029FB01462068FFF79A
:1075E0007DF90746A068494600F020FB0146384671
:1075F000FFF774F90746E068314600F017FB0146D3
:107600003846FFF76BF90746E7612068414600F00E
:107610000DFB616802F0E6FA8246E068494600F038
:1076200005FB01465046FFF759F98246A0683146EE
:1076300000F0FCFA514602F0D5FA8246C4F820A0C8
:10764000E068414600F0F2FAA16802F0CBFA834606
:107650002068494600F0EAFA594602F0C3FA834628
:107660006068314600F0E2FA01465846FFF736F905
:107670008346C4F824B0A068414600F0D7FA01461A
:10768000E068FFF72BF980466068494600F0CEFAC3
:10769000414602F0A7FA80462068314600F0C6FA5B
:1076A000414602F09FFAA0622760C4F804A0C4F823
:1076B00008B0E060A36C626C216CE06B02F06EFEBF
:1076C000A064E16B02F080FB2878C00700F1D9804C
:1076D000D4F80880E6686768D4F800A0DFF8289539
:1076E0003846314600F0A2FA83465046414600F043
:1076F0009DFA01465846FFF7F1F8494600F096FA20
:10770000E0625046394600F091FA834640463146E1
:1077100000F08CFA594602F065FA494600F086FA04
:1077200020635046514600F081FA82463846394679
:1077300000F07CFA01465046FFF7D0F80746404675
:10774000414600F073FA01463846FFF7C7F807468E
:107750003046314600F06AFA394602F043FADFF863
:10776000AC1400F063FA6063666D7768DFF8A0A47C
:107770004046514600F05AFA39680860E0684946C8
:1077800000F054FA396848602068514600F04EFA1B
:10779000396888606068494600F048FA3968C8600E
:1077A0006068494600F042FA7968086020684946F6
:1077B00000F03CFA79684860E068494600F036FA23
:1077C00079688860A068494600F030FA7968C86036
:1077D0002068494600F02AFAB96808606068514696
:1077E00000F024FAB9684860A068514600F01EFA1B
:1077F000B9688860E068494600F018FAB968C8605E
:10780000E36CE26D3146E06B02F0E7FD8046C4F8C0
:107810004C80A146D8F80460072756F804ABA86846
:10782000E16AFFF75BF8DAF8001000F0FFF9834631
:10783000E868216BFFF752F8DAF8041000F0F6F967
:10784000594602F0CFF983462869616BFFF746F885
:10785000DAF8081000F0EAF9594602F0C3F9D9F84D
:10786000001002F0BFF949F8040B7F1ED5D1A36CBC
:10787000626D4146E06B02F0EDFDA064E16B02F049
:10788000A3FA2878C00700F1DF80296AE14802F0F6
:10789000A9F96066696AE04802F0A4F9A066A86ADE
:1078A000E066D4F80C90A6686768D4F8008040467B
:1078B000414600F0BBF905463846394600F0B6F9B6
:1078C000294602F08FF905463046314600F0AEF900
:1078D00001462846FFF702F805464846494600F0AB
:1078E000A5F901462846FEF7F9FFCC4900F09EF9BC
:1078F000E062CB4D3846314600F098F98246484662
:10790000414600F093F901465046FEF7E7FF29464D
:1079100000F08CF920633846494600F087F90746A5
:107920003046414600F082F9394602F05BF92946BB
:1079300000F07CF96063A76D7E684046294600F040
:1079400075F9316808606068294600F06FF93168A0
:107950004860DFF8D082A068414600F067F93168DE
:107960008860E068414600F061F93168C860E0680D
:10797000414600F05BF971680860A068294600F094
:1079800055F9716848606068294600F04FF97168E0
:1079900088602068414600F049F97168C860A068B5
:1079A000294600F043F9B1680860E068294600F014
:1079B0003DF9B16848602068294600F037F9B168A0
:1079C00088606068294600F031F9B168C860236DAD
:1079D000226E3946E06B02F000FD05462565A046A3
:1079E000D5F80490072659F8047B606EE16AFEF72B
:1079F00075FF396800F01AF98246A06E216BFEF718
:107A00006DFF796800F012F9514602F0EBF88246FA
:107A1000E06E616BFEF762FFB96800F007F951464E
:107A200002F0E0F8D8F8001002F0DCF848F8040B97
:107A3000761ED8D1A36CA26D2946E06B02F00AFD38
:107A4000A064E16B02F0C0F9E568A768D4F804907F
:107A50002168084600F0EAF806464846494600F024
:107A6000E5F8314602F0BEF806463846394600F0E1
:107A7000DDF8314602F0B6F806462846294600F001
:107A8000D5F8314602F0AEF8FFF710FA02F010FD1B
:107A900002460B4600206449FFF702FBFFF724FC77
:107AA0000546A046DDF808900426D8F800002946CF
:107AB00000F0BCF8C8F8000058F8040B49F8040BB3
:107AC000761EF2D1D4F80880D4F804904FF08045A7
:107AD0004846494600F0AAF806464046414600F0AE
:107AE000A5F8314602F07EF8294600F09FF80146DD
:107AF0004FF07E50FEF7F2FEFFF7D8F906460F462C
:107B00002068494600F092F88146E068414600F05E
:107B10008DF8494602F066F8294600F087F8FFF72D
:107B2000C5F932463B4602F03BFDFFF7DDFB01990C
:107B300008606168E06800F079F806462168A0688E
:107B400000F074F801463046FEF7C8FE4FF04041A1
:107B500000F06CF8FFF7AAF902F08AFDFFF7C4FB0A
:107B600001994860D4F80C80D4F8089048464946FA
:107B700000F05CF806464046414600F057F83146B2
:107B800002F030F8294600F051F801464FF07E50DF
:107B9000FEF7A4FEFFF78AF906460F4660684946DD
:107BA00000F044F881462068414600F03FF849461D
:107BB00002F018F8294600F039F8FFF777F9324655
:107BC0003B4602F0EDFCFFF78FFB0199886003B0A4
:107BD000BDE8F08F1045002095BFD633CDCCCC3D0D
:107BE00088437C3AB5FE16379A99093F8351493D3F
:107BF0007A362BBDAB3E57BF0AD7233C4E62E240DC
:107C000025750A40E75BE5C2C3F59CC1C3F51CC1FD
:107C1000C3F59C41BC7413BC6F12033E6666E63E1E
:107C20006666663F666666BF0000F03FFF2212EAA6
:107C3000D05C1DBF12EAD153944593422BE09C4483
:107C4000D30780EA01021A4043EA002043EA0121F7
:107C5000A1FB0030410038BF40007CF17F010BDB0D
:107C6000FE294ADA5B0842EAC15153EA006373F124
:107C7000004C51EB10207047D1F1080CDCF12001D1
:107C80002FDB5B0810FA01F10B4373F1004120FA7E
:107C90000CF05041704794451CBF02EAD153934207
:107CA00080EA010202F000421DD0400019D04900D4
:107CB00017D05BB9634514D00902B1FA81F399403A
:107CC000BCEB030CC00140F00040C1E70002B0FA79
:107CD00080FC10FA0CF0B3EB0C0CC90141F0004130
:107CE000B6E71000704740000AD0490008D010F1F4
:107CF000807F94BF11F1807F02E042F0FF40704727
:107D0000D04370474AB38B0707D0521E11F8013B8E
:107D100000F8013B21D08B07F7D183071ED1103A21
:107D200007D330B4B1E83810103AA0E83810F9D2CF
:107D300030BC530724BFB1E80810A0E8081044BFC6
:107D400051F8043B40F8043BD20724BF31F8022B22
:107D500020F8022B44BF0B7803707047083A07D312
:107D6000B1E80810083A40F8043B40F804CBF7D2D9
:107D70005307E4E727490143274A11607047F0B4ED
:107D8000002300210F22C478002C20D0224C24682C
:107D900014F4E064D4F5E064240A2300D3F104046D
:107DA0002100DA4044788C40230084781440234337
:107DB0001B010478194D635504786411184D012690
:107DC000077817F01F07BE4045F8246009E00478E3
:107DD0006411144D0126077817F01F07BE4045F8BF
:107DE0002460F0BC7047104A0A4002430F4B1A60EF
:107DF0007047042806D10E49096851F004010C4A65
:107E0000116005E00A49096831F00401084A11606F
:107E1000704700000000FA050CED00E000E400E00F
:107E200000E100E080E100E080FFFF1F08ED00E0DE
:107E300010E000E0001F5FF080730360001F01602E
:107E4000001F00230360143802602038704780B59B
:107E50002248006850F47F00204908601F480068ED
:107E600050F07F401D49086000F030F81C480021A8
:107E7000016000F0CBF8002002BD1A485FF080518D
:107E80000160704780B500F0A5F815480068401CF7
:107E90001349086001BD80B511480068401E1049B3
:107EA00008600F480068002801D100F09AF801BD71
:107EB00010B50C485FF0805101600020040000F014
:107EC00089F8FCF7D6FB00F08CF810BD064807498E
:107ED00001600748072101607047000020ED00E0C5
:107EE000F800002004ED00E014E000E07FFC0A0050
:107EF00010E000E010F1080141605FF0FF318160A7
:107F000010F10801C16010F1080101610021016058
:107F1000704700210161704743681A0053684B6045
:107F200043688B60536899605160416008610368E1
:107F30005B1C0360704710B40C68230013F1010F41
:107F400002D10469220008E010F1080422005468FC
:107F50002468A34201D35268F9E754684C604C6826
:107F6000A1608A60516008610468641C046010BCF0
:107F7000704742688368936082684368536002690F
:107F800011004A68824201D182684A60002202617F
:107F90000A68521E0A60704780F308887047EFF342
:107FA00009801D4B1A6820E9F00F106008B54FF0EA
:107FB000BF0080F31188FCF7BDFB4FF0000080F399
:107FC0001188BDE8084019680868B0E8F00F80F330
:107FD0000988704701B44FF0BF0080F3118801BCDD
:107FE000704701B44FF0000080F3118801BC704766
:107FF000094B19680868B0E8F00F80F309884FF062
:10800000000080F311884EF00D0E704703480068A1
:10801000006880F3088800DF4047002008ED00E09A
:1080200001B58B0718D1121F21D351F8043BA3F1DE
:10803000013C2CEA030C1CF0803C04BF40F8043BDC
:10804000F1E79CFA8CFCBCFA8CF1C1F118018B4071
:10805000CB4040F8043B13E0042A09D311F8013B5C
:10806000521E00F8013B5BB18B07F7D1DBE7121D15
:108070005AB111F8013B521E00F8013B03B1F8D18F
:1080800011001CBF002202F065FB01BD2DE9F0418B
:1080900004005FF00008FCF774FA4A480068002802
:1080A0001AD14949494A0A60474900224A60484969
:1080B0004FF488424A60464900220A60434908005A
:1080C0004FF4884141604249016042494FF488427F
:1080D0000A603C4901220A60002C0CD00FF2F80023
:1080E0000088041914F00700002804D014F10800D7
:1080F00014F00701441A002C3BD0B4F5884F38D255
:10810000314806003048006805006868A04205D282
:108110002868002802D02E002D68F6E72C488542FA
:1081200027D00FF2B40000883168401880462868D4
:1081300030600FF2A400008840006968091B884283
:1081400012D2601907006868001B78606C607A685A
:1081500011001D4A1000026852688A4201D200686C
:10816000F9E702683A6007601A480068001B19497D
:108170000860FCF70EFA4046BDE8F081F8B504004F
:108180002600002C1CD00FF25000008840428619B7
:108190003500FCF7F6F969680F000B490800016823
:1081A0004968B94201D20068F9E7016829600560B1
:1081B000084800686968081806490860FCF7E9F98A
:1081C000F1BD000010470020FC46002010010020F7
:1081D000044700200C470020100070B504000D007B
:1081E00016002A003100200002F0B0FA200070BD15
:1081F0004F490860704730B400210022002300245A
:108200004A4D2D6815F00C0529000D00002D04D0F5
:10821000042D05D0082D06D026E0464D056025E04A
:10822000444D056022E0414D2D6815F470152A007B
:108230003E4D2D6815F480352B00920C921C002BBE
:1082400004D13D4D05FB02F505600CE0374D2D686E
:10825000AD0304D5384D05FB02F5056003E0354D4F
:1082600005FB02F5056001E0324D05602F4D2D68DC
:1082700015F0F00529000909304D4D5D2C00056809
:10828000E5404560294D2D6815F4E0652900090A8F
:108290002A4D4D5D2C004568E5408560234D2D68D5
:1082A00015F460552900C90A244D4D5D2C00456820
:1082B000E540C5601D4D2D6815F440452900890B2A
:1082C0001F4D4D5D2C00C568B5FBF4F5056130BC54
:1082D0007047C9B2002905D01A4A12680243194BE7
:1082E0001A6004E0174A12688243164B1A607047FE
:1082F000C9B2002905D0144A12680243124B1A6011
:1083000004E0114A126882430F4B1A607047C9B2E9
:10831000002905D00D4A126802430C4B1A6004E094
:108320000A4A12688243094B1A60704704100240DF
:10833000D800424200127A0000093D00C800002027
:108340000001002014100240181002401C100240CE
:10835000F0B500270022002300240025002691F814
:1083600003C01CF00F0C674691F803C05FEACC6CA9
:1083700003D591F802C05CEA070791F800C05FEAF4
:108380000C6C3AD0D0F800C065465FF0000C634634
:10839000082B31D25FF0010C1CFA03FC6446B1F8E3
:1083A00000C014EA0C0C6246A24223D15FEA830C9F
:1083B00064465FF00F0C1CFA04FC6646B54317FADE
:1083C00004FC5CEA050591F803C0BCF1280F06D156
:1083D0005FF0010C1CFA03FCC0F814C00AE091F82D
:1083E00003C0BCF1480F05D15FF0010C1CFA03FC7F
:1083F000C0F810C05B1CCBE70560B1F800C04FF4BB
:10840000807EF4453FD3D0F804C065465FF0000C91
:108410006346082B36D25FF0010C13F1080E1CFAEC
:108420000EFC6446B1F800C014EA0C0C6246A2428D
:1084300026D15FEA830C64465FF00F0C1CFA04FC43
:108440006646B54317FA04FC5CEA050591F803C0DB
:10845000BCF1280F07D15FF0010C13F1080E1CFAD4
:108460000EFCC0F814C091F803C0BCF1480F07D14E
:108470005FF0010C13F1080E1CFA0EFCC0F810C0DE
:108480005B1CC6E74560F0BD89B20161704789B2E7
:108490004161704730B400220F2311F00304E4B2AD
:1084A000A400A3401A00C9B28B100E4C54F823301C
:1084B0009343C9B28C100B4D45F82430C9B28B10D0
:1084C000084C54F82330C0B211F00304E4B2A40005
:1084D00010FA04F42343C9B28C10024D45F824303D
:1084E00030BC704708000140DFF8A801DFF8A81190
:1084F0000160DFF8A001DFF8A41101607047DFF828
:10850000A001006850F08000DFF894110860704707
:1085100038B5A524042500F097F8002801D00020E4
:1085200004005FF4302000F0C5F80500EDB2042D22
:1085300053D1DFF87001DFF860110160DFF86401EA
:10854000DFF858110160DFF85801006850F0200092
:10855000DFF84C110860DFF84801006850F0400077
:10856000DFF83C1108605FF4302000F0A3F805004C
:10857000EDB2042D25D1DFF82801006841F6DF7146
:108580000840DFF81C110860DFF81401006850F0A3
:108590001000DFF80C110860DFF80C0104804FF4C4
:1085A000005000F087F80500EDB2052D15D0DFF87A
:1085B000F000006841F6EF710840DFF8E410086051
:1085C0000BE0EDB2052D08D0DFF8D400006841F6CD
:1085D000EF710840DFF8C81008602800C0B232BD53
:1085E00070B504000D0004264FF4005000F062F84E
:1085F0000600F6B2042E24D1DFF8A800DFF89810A8
:108600000160DFF8A000DFF894100160DFF890004F
:10861000006850F01000DFF888100860EDB2258087
:108620004FF4005000F046F80600F6B2052E08D0D0
:10863000DFF86C00006841F6EF710840DFF8601069
:1086400008603000C0B270BD002018490968890771
:1086500002D50121080001E000210800C0B27047E6
:10866000042013490968C90702D5012108000FE059
:108670000F490968490702D50221080008E00C49A2
:108680000968C90602D50321080001E00421080099
:10869000C0B270470420024023016745AB89EFCD8B
:1086A000102002400820024000F8FF1F1C2002405A
:1086B0000C20024038B504000425FFF7D1FF050067
:1086C000EDB2012D06D1002C04D0FFF7C9FF050043
:1086D000641EF5E7002C01D1052005002800C0B27A
:1086E00032BD00004FF6F8710140DFF888221160BA
:1086F0007047C0B2DFF8802252F8202048F68F136E
:108700001A400A4392B2C0B2DFF86C3243F820201C
:10871000704710B4C0B2DFF8603253F8203048F62A
:10872000BF7423401A00CB0601D592F010028B06CD
:1087300001D592F02002C0B2DFF83C3248F280044A
:10874000224392B243F8202010BC704710B4C0B24C
:10875000DFF8243253F820304BF68F7423401A0090
:10876000CB0401D592F480528B0401D592F40052CF
:10877000C0B2DFF8043248F28004224392B243F8D8
:10878000202010BC7047C0B2DFF8EC1151F8200077
:1087900010F030007047C0B2DFF8DC2152F8202022
:1087A00048F6BF731A40110091F0100191F02001BA
:1087B000C0B2DFF8C42148F28003194389B242F8FD
:1087C00020107047C0B2DFF8B02152F820204BF6DD
:1087D0008F731A40110091F4805191F40051C0B28E
:1087E000DFF8942148F28003194389B242F820103F
:1087F0007047C0B2DFF8801151F8201048F68F6240
:10880000114048F28002114389B2C0B2DFF86821FA
:1088100042F820107047C0B2DFF85C1151F8201008
:1088200049040FD5C0B2DFF8501151F8201048F6B6
:108830008F7211404CF280021143C0B2DFF8382130
:1088400042F820107047C0B2DFF82C1151F8201008
:1088500049060FD5C0B2DFF8201151F8201048F6B4
:108860008F72114048F2C0021143C0B2DFF80821F4
:1088700042F82010704710B4DFF8F820126892B266
:10888000C0B212EBC002DFF8F43089B24C08A4B2D7
:10889000640043F8124010BC704710B4DFF8D420D5
:1088A000126892B2C0B212EBC002DFF8D43089B2C3
:1088B0004C08A4B2640043F8124010BC7047DFF8C3
:1088C000B410096889B2C0B211EBC000DFF8AC1077
:1088D00051F8100080B27047DFF89810096889B22B
:1088E000C0B211EBC000DFF8981051F8100080B250
:1088F0007047DFF88020126892B2C0B212EBC0025B
:10890000DFF8803089B243F81210704730B4DFF8D6
:1089100064301B689BB2C0B213EBC003DFF8684041
:1089200014EB43031A0089B23F290CD389B24C09D6
:1089300023001F24214200D15B1E9BB29B0253F4F3
:108940000043136008E089B24C082300CC0700D52F
:108950005B1C9BB29B02136030BC704705490968E1
:1089600089B2C0B211EBC000074951F81000800570
:10897000800D7047505C0040005C0040006000408B
:1089800008600040046000400C60004001000B00E3
:108990001A0089B2D2B2130253EA1123180080B22E
:1089A00070470000F0B492B2531C5B1089B2DFF83C
:1089B0005CC01CEB410C67461C00002C0ED090F8EC
:1089C00000C06546401C90F800C055EA0C2C664675
:1089D0003E80BF1CBF1C401C641EEEE7F0BC70470D
:1089E00070B492B2531C5B1089B2084E16EB41066C
:1089F00035001C00002C06D02E6806802D1D401C62
:108A0000401C641EF6E770BC704700000060004028
:108A100080B50948094901600748006802210172D0
:108A2000074808490160084808490160044800688F
:108A30000068804701BD00BF804700202446002019
:108A400084470020000000208847002030000020DC
:108A500010B52A2400F034FD01214FF48060FFF7A7
:108A600038FC01210220FFF734FC01F0A3FE00F0E6
:108A70002FF80400E4B22A2C02D02000C0B226E075
:108A800000F047F90400E4B22A2C02D02000C0B262
:108A90001DE0DFF8200401210175DFF81804002132
:108AA0000160DFF8100400214160DFF808040021B4
:108AB0008160DFF800040021C160DFF8F8030021C5
:108AC0000161DFF8F00301F091FE2000C0B210BD9B
:108AD0002DE9F0412A240025002600275FF0000838
