:020000040800F2
:020000020000FC
:203000000004002029980008519700085397000855970008579700085997000800000000FF
:20302000000000000000000000000000C59000085B9700080000000073900008C98D0008D0
:20304000A5980008A9980008AD980008B1980008B5980008B9980008BD9800086597000835
:20306000C598000867970008CD980008D1980008D5980008D9980008DD980008E19800081B
:20308000E5980008E9980008ED980008F198000895720008F9980008FD98000869970008B7
:2030A00005990008099900080D99000811990008D1720008199900081D99000821990008DB
:2030C00025990008299900082D9900083199000835990008399900083D9900084199000850
:2030E00045990008499900084D9900085199000855990008599900085D9900086199000830
:20310000659900085D9700086D9900087199000875990008799900087D990008819900081D
:2031200085990008899900088D9900089199000810B50400A4B2002C06D1DFF8100B006863
:2031400001210182002008E0DFF86804006800688047DFF8F80A00680A3010BD80B5DFF894
:203160003C0A4078DFF8E41A0968C97888421AD3DFF8D80A00688078002814D1DFF8CC0A40
:203180000068808800280ED1DFF8C00A0068DFF8BC1A0968C9788172DFF81804006840685A
:2031A0008047002000E0022002BD10B50400A4B2002C06D1DFF8940A0068012101820020A3
:2031C00008E0DFF8F003006880688047DFF87C0A00680C3010BD10B5DFF8700A0068C178A1
:2031E000DFF8680A00684079DFF8B8291268926990470400DFF8540A0068807A00282AD0A4
:20320000E4B2002C0BD1DFF8440A00680079002805D1DFF8380A00688078002801D0022078
:203220001AE0E4B2002C16D1DFF888030068C0688047DFF8180A0068DFF8101A096849799D
:20324000C172DFF8080A0068DFF8001A0968C9780173002000E0022010BD000010B504001B
:20326000A4B2002C06D1DFF8E409006802210182002071E0394800210180DFF8D009006877
:2032800000787F21084223D1DFF8C0190968497A0800810606D53149097851F002012F4AD2
:2032A000117005E02D49097811F0FD012B4A1170410606D52949097851F00101274A117072
:2032C00045E02649097811F0FE01244A11703EE0DFF878090068007810F07F00012801D11A
:2032E0001E4839E0DFF864090068007810F07F0002282AD1DFF8542912685279110011F0DC
:203300000F0210000A060FD5C0B2DFF88C2852F8202012F03002102A19D1104A127852F093
:2033200001020E4B1A7012E0C0B2DFF86C2852F8202012F44052B2F5805F08D1074A12787C
:2033400052F00102054B1A7001E0002004E09948006800698047014810BD00BFF4490020BE
:203360002DE9F843DFF8E4080068007810F07F000400002C0BD1DFF8D4080068407A10F0F9
:20338000DF00DFF8C8180968487200209AE0022C40F09780DFF8B40800684088002805D19C
:2033A000DFF8A80800680079002801D0022089E0DFF8E8070600DFF89408006840798046FB
:2033C00038F0800081464F46DFF8800800684079000607D5DFF8C00750F8270010F030004A
:2033E000050006E0DFF8B00750F8270010F4405005003078814507D2002D05D0DFF84C08D8
:203400000068807A002801D102205BE04046000611D5DFF8840750F8270010F03000102848
:2034200049D13800C0B203F01EFA30213800C0B203F07FF93FE0DFF8600750F8270010F487
:203440004050B0F5805F36D1002F1CD11E4890F82C1089B23800C0B203F064FADFF83817AF
:2034600051F827104BF68F721140080090F4805090F40050DFF8201748F28002104380B2BA
:2034800041F8270017E03800C0B203F0D4F9DFF8081751F827104BF68F721140080090F4D6
:2034A000805090F40050DFF8F01648F28002104380B241F827003F4800684069804700206B
:2034C00000E00220BDE8F283284A0020F8B5DFF87C0700684079040034F080000600350033
:2034E000DFF8680700684079000607D5DFF8A80650F8250010F03000070006E0DFF89806FF
:2035000050F8250010F440500700DFF89006007885420DD2DFF8340700684088002807D1D6
:20352000002F05D0DFF824070068807A002801D102202CE02000000612D5DFF85C1651F85C
:20354000251048F6BF721140080090F01000DFF8481648F28002104380B241F8250011E019
:20356000DFF8341651F825104BF68F721140080090F48050DFF8201648F28002104380B26F
:2035800041F825000B480068806980470020F2BD80B5DFF8B8060068407A50F02000DFF870
:2035A000AC160968487203480068C0698047002002BD0000044A002010B40200DFF88C06FF
:2035C0000068408A030092B2002A07D18888C01ADFF8784624682082002001E00868181822
:2035E00010BC7047F8B5DFF8640600681030040020880500A06800281BD0002D19D0A088A8
:203600000700BD4200D22F00380080B2A168884706002088C01B2080608838186080002000
:2036200003F067F93A0092B2010089B2300005F0C2FD208800280BD0DFF86C054FF44051D2
:2036400001800021002003F060F9A348302101802088A188884205D3DFF8F00500680321D4
:2036600001721AE02088012805D3DFF8E00500680521017211E0208800280ED1DFF8CC052F
:203680000068062101729248006880B29149002241F81020904830210180F1BD2DE9F041B0
:2036A000DFF8A80500681030040020880500DFF89C050068007A0600002D1DD1042E1BD194
:2036C000DFF8DC040078012810D18148006880B28049002241F810207F483021018004203D
:2036E0000600DFF8BC040021017004E0072006007948102101802DE0A0888046A84501D35B
:20370000042600E00226454500D2A846404680B2A16888470700002003F0DFF8424692B2E0
:20372000010089B2380005F025FD414689B2002003F0EBF82088B0EB08002080608818EB70
:2037400000006080644830210180DFF85C044FF440510180DFF8F40400680672BDE8F081BA
:2037600070B502200400DFF8E404006840780500DFF8D804006800787F2108425BD1092D3B
:2037800003D1FFF7EBFC040079E0052D1DD1DFF8BC040068C078802811D2DFF8B004006846
:2037A000807800280BD1DFF8A40400688088002805D1DFF898040068807A002802D0082029
:2037C00006007FE00020040059E0032D18D1DFF87C040068C07801280FD1DFF8700400685B
:2037E0008088002809D1DFF864040068407A800603D5FFF7CDFE040041E0022004003EE0D6
:20380000012D3CD1DFF844040068C07801280FD1DFF8380400688088002809D1DFF82C0419
:203820000068407A800603D5FFF79AFD040026E00220040023E0DFF814040068007810F079
:203840007F00012805D10B2D19D1FFF7C4FC040015E0DFF8F8030068007810F07F000228BE
:203860000BD1012D03D1FFF77BFD040007E0032D05D1FFF72BFE040001E002200400E4B24B
:20388000002C0DD02800C0B2DFF818130968496988470400E4B2032C02D10920060011E0D5
:2038A000E4B2002C02D0082006000BE0062006000748006880B20749002241F8102006481D
:2038C00030210180DFF884030068067270BD0000505C004004600040184A00202DE9F0474C
:2038E00082B0DFF868030068407806000020040000208046062E25D1DFF8500300680078F0
:203900007F21084240F0BC80DFF84013096889780800C0B2012804D1A2490968C9690C00A3
:20392000AEE0C0B2022804D19E490968096A0C00A6E0C0B2032840F0A3809A490968496A34
:203940000C009DE0002E67D1C04800684088002862D1BE480068C08802285DD1BB4800686C
:203960000079002858D1B948006800787F21084207D1B64800688088002802D183480400A2
:203980007EE0B2480068007810F07F00012811D10021AE4800684079824A12689269904715
:2039A00000286DD1A9480068807A002868D07748040065E0A5480068007810F07F00022870
:2039C0005ED1A2480068407910F00F0007009F480068407910F0700082469C480068407952
:2039E000000606D56C4850F8270010F03000814605E0694850F8270010F4405081466748BD
:203A0000007887423CD2BAF1000F39D1B9F1000F36D05E48040033E0082E08D18B480068CD
:203A200000787F2108422BD15948040028E00A2E26D186480068007810F07F0001281FD106
:203A400082480068807A00281AD0804800684088002815D17D4800680079002810D17B48B0
:203A60000068C08801280BD100217848006840794C4A126892699047002801D14548040022
:203A8000200000280BD071480068A0F812806F48006884610020A047002005000FE06B48E6
:203AA000006840783F490968096988470500EDB2032D04D1654800680921017264E0634862
:203AC0000068008A4FF6FF71884204D15F4800680921017258E0EDB2022D04D05B4800680F
:203AE000008A002804D159480068082101724BE056480068007800063ED554480068C0888C
:203B00000090009851490968098A884204D24F4800680099018225E04C480068008A4B4905
:203B20000968C98888421DD248480068008A1D49096891F82C1089B2884203D21848002191
:203B400001700FE041480068008A1649096891F82C1090FBF1F201FB1200002802D1104826
:203B600001210170394800680E49096891F82C108182FFF793FD07E0344800680321017251
:203B800009484FF440510180BDE8F3875D32000831310008AB310008005C00402C4B002048
:203BA000224A0020004A0020164A002038B50120050023482349096889B2234A32F8111041
:203BC00010EB4100040021480068007A092826D01E48006821780170641C1C480068217876
:203BE0004170641CADB214EB45042000841C008802F0D8FE154909684880ADB214EB45049F
:203C00002000841C008802F0CDFE104909688880ADB214EB45040D4800682188C1800B482C
:203C200000680121017209480068C088002802D1FFF796FD01E0FFF751FE00F071F832BD94
:203C400000600040505C004008600040FC49002010B51A480068007A0400022C01D0042C8F
:203C600006D1FFF71BFD15480068007A04001EE0062C1AD111480068407805280ED10F4825
:203C8000006800787F21084208D10C480068C07800F06CF80A480068006A80470948006895
:203CA000806880470820040001E00820040003480068047200F034F810BD00BFFC490020E6
:203CC000044A0020004A002010B513480068007A0400022C01D0042C02D10820040015E0E3
:203CE000032C01D0052C06D1FFF77CFC0A480068007A04000AE0072C06D108480068C06842
:203D000080470820040001E00820040002480068047200F005F810BDFC490020004A0020F2
:203D200080B50E4890F82C1089B2002002F0FAFD0B480068007A082806D10A484FF480514E
:203D4000018009481021018005480068007A092801D1012000E00020C0B202BD284A0020C9
:203D6000FC490020164A0020184A002030B4114B1B781A0000231900914214D20B00DBB262
:203D80000D4C54F8233048F68F7423400C00E4B2234348F2800423430C00E4B2064D45F829
:203DA0002430491CE8E7C0B250F08003034C236030BC70472C4B0020005C00404C5C0040B6
:203DC0007047000030B587B00400DFF84405007800282AD1DFF83C05807800281ED1DFF853
:203DE00034050078202814D1DFF82805407801280FD1DFF820054078801C844209D1DFF859
:203E000010050121017000220121002000F00CFD7CE20421002000F041FD77E20521DFF876
:203E2000F404807800F03AFD70E2DFF8E8048078002825D0012842D002285FD0032800F092
:203E40008280082800F09E80122800F0C280132800F0E780142800F0FE80152800F02F819D
:203E6000172800F01281502800F05D81512800F0D281522800F00282532800F01E8240E263
:203E8000DFF890040078202814D1DFF88804407801280FD1DFF87C044078801C844209D1A3
:203EA000DFF86C040121017000220121002000F0BBFC2BE20421002000F0F0FC26E2DFF810
:203EC00054040078202814D1DFF84804407801280FD1DFF840044078801C844209D1DFF81B
:203EE00030040021017000220121012000F09CFC0CE20421002000F0D1FC07E2DFF8140447
:203F0000007820281AD1DFF80C044078012815D1DFF800044078801C84420FD1002201212F
:203F2000022000F081FC4FF4FA7001F02BFBDFF8E0030021017003F015FFE7E104210220CC
:203F400000F0ACFCE2E1DFF8CC030078202814D1DFF8C003407801280FD1DFF8B803407816
:203F6000801C844209D100220121032000F05CFC03F000FF03F0F6FEC8E10421032000F09C
:203F80008DFCC3E1DFF88C03007820281CD1DFF884034078022817D1DFF878034078801C13
:203FA000844211D1DFF86C03C078002803D0002005F034F802E0002005F03AF80022012132
:203FC000082000F031FCA1E10421002000F066FC9CE1DFF84003007820281DD1DFF8340330
:203FE0004078012818D1DFF82C034078801C844212D1002108000C2808DAD0F10C01491E80
:20400000C54A895C04AA8154401CF4E704AA0D21122000F009FC79E10421122000F03EFC14
:2040200074E1BC480078202810D1BA48407801280CD1B8484078801C844207D1B74A1A2099
:20404000411CC9B2132000F0EFFB5FE10421132000F024FC5AE1AF480078202810D1AD480B
:20406000407801280CD1AB484078801C844207D1AB4A1820411CC9B2142000F0D5FB45E17E
:204080000421142000F00AFC40E1A2480078202810D1A048407801280CD19E484078801C45
:2040A000844207D19F4A1220411CC9B2172000F0BBFB2BE10421172000F0F0FB26E195486B
:2040C000007820282AD193484078012826D191484078801C844221D1002004F09FFF0021BA
:2040E00008000C2808DAD0F10C01491E8A4A895C01AA8154401CF4E701AA0D21122000F002
:2041000093FB00200500072D80F20081002004F099FF322001F036FA6D1CF4E704211520E8
:2041200000F0BCFBF2E07B48007820286ED17948407805286AD177484078801C844265D154
:2041400074480079C021084260D17248C078000604D50321502000F0A1FBD7E06D48C07839
:20416000000601D5012000E00020C0B200F014FC6848C078800601D5012000E00020C0B2F9
:2041800000F00DFC6348C078400601D5012000E00020C0B200F006FC00F00CFC050000F0B5
:2041A0000FFC054204D00321502000F077FBADE05848C078DFF8DC17087000F0F6FB002833
:2041C00003D059480321017007E05248007910F03800C0B2C008544908705348007800F052
:2041E00071FB4C4840794B49897911EB0020DFF8301608804748007910F003004B49087098
:2042000000220121502000F00FFB7FE00421502000F044FB7AE03F480078202829D13D48AD
:204220004078012825D13B484078801C844220D1DFF8600700788DF800003B4800783B495F
:20424000097811F0070111EBC0008DF80100DFF8D005008880B2000A8DF80200DFF8C005FF
:2042600000888DF8030000AA0521512000F0DCFA4CE00421512000F011FB47E0254800785D
:20428000202815D123484078012811D121484078801C84420CD1DFF88C0500210180012037
:2042A00000F05EFB00220121522000F0BDFA2DE00421502000F0F2FA28E0164800782028B4
:2042C0001AD114484078012816D112484078801C844211D1002000F043FB01215FF08040FA
:2042E00004F031FBDFF83C050021018000220121532000F099FA09E00421502000F0CEFA74
:2043000004E001210348807800F0C8FA07B030BD1D4A002064480020E8F7FF1FFC96000814
:2043200018970008C89700081E4A00201C4A002070B59CB006000D00002004000DA83C2197
:2043400005F090FADFF8DC040088DFF8D4140988884201D2012000E00020DFF8C414098851
:20436000002901D1012100E000210843C0B2002800F04582F00640F18F80280001F09AFF9B
:20438000DFF844060078002815D0E4B20DA82018811C280004F05BFCE4B20DA82018011D43
:2043A000A81C04F054FCE4B20DA82018811D281D04F04DFC6FE000F0FDFA002840D0B5F936
:2043C000000005F00BF9A96904F068FB05F088F8B5F84410401AADF82C00B5F9020005F035
:2043E000FDF8E96904F05AFB05F07AF8B5F84610401AADF82E00B5F9040005F0EFF8296A75
:2044000004F04CFB05F06CF8B5F84810401AADF83000E4B20DA82018811C0BA804F017FCFA
:20442000E4B20DA82018011D0DF12E0004F00FFCE4B20DA82018811D0CA804F008FC2AE0D9
:20444000B5F90000012190FBF1F0ADF82400B5F90200012190FBF1F0ADF82600B5F904009C
:20446000012190FBF1F0ADF82800E4B20DA82018811C09A804F0EBFBE4B20DA82018011D95
:204480000DF1260004F0E3FBE4B20DA82018811D0AA804F0DCFBA41D300740F1A080A81D7A
:2044A00003F026F9DFF820050078002817D0E4B20DA82018811CA81D04F0C9FBE4B20DA87F
:2044C0002018011D15F1080004F0C1FBE4B20DA82018811D15F10A0004F0B9FB7EE000F0A1
:2044E00069FA002840D0B5F9060005F077F8696A04F0D4FA04F0F4FFB5F84A10401AADF887
:204500001C00B5F9080005F069F8A96A04F0C6FA04F0E6FFB5F84C10401AADF81E00B5F9FF
:204520000A0005F05BF8E96A04F0B8FA04F0D8FFB5F84E10401AADF82000E4B20DA82018B8
:20454000811C07A804F083FBE4B20DA82018011D0DF11E0004F07BFBE4B20DA82018811D55
:2045600008A804F074FB39E0B5F9060005F066F8A54AA64B02F090FC04F042FFADF81400BC
:20458000B5F9080005F05AF89F4AA04B02F084FC04F036FFADF81600B5F90A0005F04EF801
:2045A0009B4A9C4B02F078FC04F02AFFADF81800E4B20DA82018811C05A804F048FBE4B255
:2045C0000DA82018011D0DF1160004F040FBE4B20DA82018811D06A804F039FBA41D70075E
:2045E00040F1A78015F10C0001F0F2FE00F0E8F9002818D0E4B20DA82018811C15F10C005D
:2046000004F025FBE4B20DA82018011D15F10E0004F01DFBE4B20DA82018811D15F110008E
:2046200004F015FB84E000F0C5F9002849D0B5F90C004FF47A71484304F0D0FF296B04F065
:204640002DFA04F04DFFB5F85010401AADF80C00B5F90E004FF47A71484304F0BFFF696BE0
:2046600004F01CFA04F03CFFB5F85210401AADF80E00B5F910004FF47A71484304F0AEFFCD
:20468000A96B04F00BFA04F02BFFB5F85410401AADF81000E4B20DA82018811C03A804F010
:2046A000D6FAE4B20DA82018011D0DF10E0004F0CEFAE4B20DA82018811D04A804F0C7FA3F
:2046C00036E0B5F90C004FF47A71484340F21F4190FBF1F0ADF80400B5F90E004FF47A71C0
:2046E000484340F21F4190FBF1F0ADF80600B5F910004FF47A71484340F2B63190FBF1F08A
:20470000ADF80800E4B20DA82018811C01A804F09EFAE4B20DA82018011D0DF1060004F0FE
:2047200096FAE4B20DA82018811D02A804F08FFAA41DB0073DD515F1140001F006FF00F017
:204740003FF9002808D0E4B20DA82018811C15F1140004F086FA2BE098480078002815D003
:20476000A88A04F045FFE96B04F098F904F0B8FEB5F95610401AADF80200E4B20DA82018B4
:20478000811C0DF1020004F06CFA11E0A88A04F05FFF214A214B02F07FFB04F031FEADF8A2
:2047A0000000E4B20DA82018811C00A804F059FAA41CF0070CD515F1120003F0ADFBE4B209
:2047C0000DA82018811C15F1120004F040FAA41C14480088401C134908801248008880B211
:2047E000000A8DF834000F4800888DF83500A41C0DAA611CC9B2522000F033F802E000205F
:2048000000F0AEF81CB070BDF6285C8FC2F510407B14AE47E17A12409A9999999999F93FF9
:20482000124A0020104A002070B588B004000D00160080208DF800008DF801508DF802403C
:20484000EDB2022D06D36A1ED2B20DF10301300004F0F3F9A91CC9B200A803F0F3FA08B013
:2048600070BD70B59AB004000D00160040208DF800008DF801508DF80240EDB2022D06D34C
:204880006A1ED2B20DF10301300004F0D6F9A91CC9B200A803F0D6FA1AB070BD30B589B057
:2048A00004000D00C0208DF8000002208DF801008DF802408DF80350042100A803F0C2FABF
:2048C00009B030BD70B58AB0040005A82249102204F0CFFCE4B2042C04D2E4B205A850F89F
:2048E000246000E0322602A803F0DEFF1B4890FBF6F0050001AA0DF10601280004F04CF998
:20490000BDF80400401EADF80C00BDF80600401EADF808000020ADF80E000020ADF80A0067
:2049200002A95FF0804003F06BFF01215FF0804003F0DFFF1C208DF8000000208DF80200F6
:204940000D208DF8010001208DF8030000A804F09BF90AB070BD00BF1898000800A24A047D
:2049600010B5040001215FF0804003F0ECFF2200D2B201215FF0804003F0B0FF2100C9B24A
:204980005FF0804003F09CFF10BD02480078704700000000304B00200549087070470A49C9
:2049A000087070470549087070470148007870471F4A00200148007870470000214A002047
:2049C0000148007870470000204A002010B52A20040000F027FD01214FF4806003F02EFE4A
:2049E0000121022003F02AFE03F0DEFC00F030F80400E4B22A2C02D02000C0B226E000F029
:204A00004DF90400E4B22A2C02D02000C0B21DE0DFF8380401210175DFF8300400210160C7
:204A2000DFF8280400214160DFF8200400218160DFF818040021C160DFF810040021016111
:204A4000DFF8080403F0CEFC2000C0B210BD00002DE9F0412A200400002005000020060077
:204A60000020070000208046DFF8E003B2210175DFF8D80300210160DFF8D0030021416086
:204A8000DFF8C80300218160DFF8C0030021C160DFF8B80300210161DFF8B00303F0A2FC66
:204AA000032003F0BFFC012003F0B6FCDFF8A40300210160DFF89C0300214160DFF89403B9
:204AC00000218160DFF88C030021C160DFF884034FF480610161DFF87C0303F0C9FC00F04A
:204AE00015FB0400E4B22A2C02D02000C0B2D1E0DFF860034FF4D5710160DFF85803082122
:204B00004160DFF8500340218160DFF848030021C160DFF840034FF480610161DFF8340376
:204B200003F0A6FC00F010FB0400E4B22A2C07D1DFF81C03012101605FF0804080461CE0D3
:204B4000DFF8100300210160DFF8080337214160DFF8000340218160DFF8F8020021C160DF
:204B6000DFF8F0024FF480610161DFF8E80203F07FFC372000F01AFB0400DFF8D802002185
:204B80000160DFF8D00237214160DFF8C80240218160DFF8C0020021C160DFF8B8024FF480
:204BA00080610161DFF8AC0203F062FC372000F0FDFA0400E4B22A2C6AD1FFB2002F56D16C
:204BC0004FF6FF70864252D2DFF8880200210160DFF8800237214160DFF87802402181606D
:204BE000DFF870020021C160DFF868024FF480610161DFF8600203F03BFC372000F0D6FAE9
:204C00000400E4B22A2C02D02000C0B242E0224850EA0800DFF83C120860DFF8380229218A
:204C20004160DFF8300240218160DFF828020021C160DFF820024FF480610161DFF81402D9
:204C400003F016FC00F044FB0400E4B22A2C02D02000C0B21EE0002003F02AFC0500E80F99
:204C6000012801D1012700E00027761CA5E74FF6FF70864204D31B2004002000C0B209E0DF
:204C800015F08045002D03D0DFF8C401022101602000C0B2BDE8F0810000108010B582B0FB
:204CA0002A2004000120ADF8000003F0C7FB002804D1252004002000C0B2C0E0DFF890014B
:204CC0000068042839D0DFF88C0100210160DFF8840102214160DFF87C01C0218160DFF844
:204CE00074010021C160DFF86C014FF480610161DFF8600103F0BCFB00F00CFB0400E4B2C0
:204D00002A2C02D02000C0B299E0002003F0D0FBDFF834110860042003F0CAFBDFF8281112
:204D20004860082003F0C4FBDFF81C1188600C2003F0BEFBDFF81011C860DFF814010068B9
:204D400000280ED0DFF808010068012809D0DFF800010068062804D0DFF8F4000068022864
:204D600023D1DFF8F00000210160DFF8E80003214160DFF8E00040218160DFF8D8000021A9
:204D8000C160DFF8D0004FF480610161DFF8C40003F06EFB00A9032000F0EAFA0400E4B294
:204DA0002A2C02D02000C0B249E0DFF8A4000068042840D0DFF88800BDF800100160BDF8B7
:204DC00000000004DFF88C100860DFF8880009214160DFF88000C0218160DFF87800002141
:204DE000C160DFF870004FF480610161DFF8640003F03EFB00F08EFA0400E4B22A2C02D024
:204E00002000C0B21BE0002003F052FBDFF834100860042003F04CFBDFF8281048600820E5
:204E200003F046FBDFF81C1088600C2003F040FBDFF81010C8602A2004002000C0B216BD27
:204E4000A04900205049002060490020C04800209C490020D848002010B52A2004000D48F2
:204E6000002101600B480C2141600A484021816008480021C16007484FF480610161054847
:204E800003F0F6FA0C2000F091F904002000C0B210BD00BFD848002038B5002004000020F6
:204EA00005009248006801286ED14FF4004003F02CFB002816D000200400082C07D203F074
:204EC0000BFB8B49096841F82400641CF5E7884800682030864908608648006820308549BB
:204EE000086051E04FF4804003F00FFB00284BD0814800687F490968401A20282ED27E4804
:204F000000687C490968401A0421B0FBF1F202FB1102002A06D17848006876490968401A23
:204F2000850806E07448006872490968401A8008451C00200400AC4226D2704800680068D9
:204F400003F0CDFA641C6D480068001D6B49086068480068001D67490860ECE7002004007D
:204F6000082C07D26548006850F8240003F0B7FA641CF5E7614800682030604908605D488C
:204F8000006820305B4908604FF4807003F0BDFA00283DD05548006800281BD05FF40010C0
:204FA00003F0A2FA002815D0524800685249096888420FD203F090FA4D49096808604C481C
:204FC0000068001D4A4908604A480068001D49490860E3E74A480068012804D1FFF73CFF4D
:204FE0004849087002E047482A2101704FF4807003F09CFA00214CF23A3003F027FA424858
:020000040800F2
:020000020000FC
:20500000012101603B48002101603E4800786BE0022003F07AFA00280FD0022003F086FA9A
:2050200000214CF23A3003F011FA324800210160344802210170022056E0082003F065FACB
:2050400000280FD0082003F071FA00214CF23A3003F0FCF92748002101602A480421017019
:20506000042041E0202003F050FA00280FD0202003F05CFA00214CF23A3003F0E7F91D48DD
:20508000002101601F480621017006202CE0102003F03BFA00280FD0102003F047FA002179
:2050A0004CF23A3003F0D2F9124800210160154805210170052017E04FF4007003F025FAD9
:2050C000002810D04FF4007003F030FA00214CF23A3003F0BBF9074800210160094807213E
:2050E0000170072000E02A2032BD00BF244B0020B0490020B8490020A4490020AC49002055
:20510000A8490020314B0020B449002038B52A20040042F210700500002D06D0802003F03B
:20512000E3F9002801D16D1EF6E7002D04D1032004002000C0B205E040F2FF5003F0E2F942
:205140002000C0B232BD000070B52A20040042F21070060014480068050015F04500002866
:2051600006D1002E04D0761E0F4800680500F4E7002E02D02800400707D50320040004208D
:2051800003F0C0F92000C0B20CE02800400607D52A200400402003F0B5F92000C0B201E0D9
:2051A0002000C0B270BD00BF34800140F8B504002A20050044480068060016F0450000280F
:2051C00003D1414800680600F7E73000400707D503200500042003F095F92800C0B271E01B
:2051E0003000C00707D501200500012003F08AF92800C0B266E003F055F9E4B2A04204D0B2
:20520000102005002800C0B25CE040F2FF5003F079F9002003F04CF907002C48074202D1AE
:205220002800C0B24EE0002F01D51C204AE0780001D5092046E0B80001D50A2042E0F800CC
:2052400001D50B203EE0380101D50C203AE0780101D50D2036E0F80101D50E2032E03802FF
:2052600001D50F202EE0780201D510202AE0B80201D5112026E0F80201D5122022E038038B
:2052800001D513201EE0780301D514201AE0B80301D5152016E0F80301D5162012E0380497
:2052A00001D517200EE0780401D518200AE0B80401D5192006E03800000701D51A2001E09E
:2052C0002800C0B2F2BD00BF3480014008E0FFFD38B52A2004000E480068050015F04500A5
:2052E000002803D10A4800680500F7E72800400707D503200400042003F004F92000C0B2FD
:2053000005E040F2FF5003F0FDF82000C0B232BD3480014038B52A200400144800680500C5
:2053200015F04500002803D1104800680500F7E72800400707D503200400042003F0E2F821
:205340002000C0B210E02800C00707D501200400012003F0D7F82000C0B205E040F2FF5000
:2053600003F0D0F82000C0B232BD00BF348001402DE9F04105000C002A20060028480068BD
:20538000070017F04500002803D1254800680700F7E73800400707D503200600042003F069
:2053A000B1F83000C0B238E03800C00707D501200600012003F0A6F83000C0B22DE003F034
:2053C00071F8EDB2A84204D0102006003000C0B223E040F2FF5003F095F8002003F068F8B8
:2053E00080464FF4604018EA000F05D15FEA184020803000C0B210E05FEA884001D5132030
:205400000BE05FEA484001D5102006E05FEA084001D50F2001E03000C0B2BDE8F08100BFF6
:205420003480014080B50121302003F019F94FF4F850ADF8000003208DF8020018208DF834
:20544000030000A9054802F005FE0420ADF8000000A9034802F0FEFD01BD00BF00100140E6
:20546000001401402DE9FB4F82B01400DDF83880DDF83C90DDF840B0DDF844A059462000C6
:2054800080B200F055FB0600002E5CD0A4B2306B10EB8400001F0700FF08FF00A4B20094B4
:2054A000534642460399300000F0B5FA049A0299380003F045FC306003F06DFCDFF868068A
:2054C0000068401CDFF860160860DFF85C060068012805D1DFF81C07066000F0C1FA0DE0BB
:2054E000DFF854010068002808D1DFF808070068C06A804502D3DFF8FC0606601F480068F7
:20550000F16A884202D2F06A1C4908601C480068401C1B490860DFF828070068F16A8842E4
:2055200003D2F06ADFF818170860311DF06A1422DFF8103702FB003003F076FC012005001A
:2055400003F032FC02E05FF0FF300500012D10D1B9F1000F01D0C9F80060374800680028FC
:2055600007D0DFF890060068C06A404501D203F00DFC280005B0BDE8F08F00BFD449002004
:20558000F049002070B5040000200600002C2BD000F054F8DFF85804006820180500DFF851
:2055A00054060068001D03F06CFCDFF8480600684560DFF83C040068854209D2DFF834064D
:2055C0000068011DDFF8F404006803F03CFC08E0DFF820060068011DDFF8DC04006803F066
:2055E00032FC00F032F80600002E01D103F0CEFB70BD00001FB5002003900020029000201B
:205600000190002000900023802209490948FFF729FF0400012C0AD103F046FD0648012111
:205620000160DFF8CC030021016003F097FB1FBD5C980008015A0008DC490020DFF83403CE
:205640000068401CCB490860704770B50020050003F0A1FBC7480068401EC6490860C54821
:205660000068002856D1DFF8C0040068002851D000200600DFF838040068002804D0DFF8B3
:205680003004C068C46800E00024002C23D014F1180003F0F6FB201D03F0F3FBDFF8A005C4
:2056A0000068E16A884203D2E06ADFF894150860211DE06A1422DFF88C3502FB003003F0F0
:2056C000B3FBE06ADFF82C150968C96A8842D1D301200600CEE73D48006800280DD03B4857
:2056E0000068002807D000F019F838480068401E36490860F3E701200600012E03D0BF480B
:205700000068012806D101200500BC480021016003F03CFB03F048FB280070BD10B595481E
:20572000006800284BD1B2480068401CB0490860AF480068002811D1DFF87C130968080056
:20574000DFF87413DFF8742312680A60DFF86C130860A6490968491CA44A1160DFF8580385
:2057600000680068002804D0D3480068C068C46800E00024002C27D09D480068616888427F
:2057800022D3201D03F07DFBA06A002803D014F1180003F076FBDFF8A8040068E16A8842E6
:2057A00003D2E06ADFF898140860211DE06A1422DFF8903402FB003003F036FBCEE7034835
:2057C0000068401C0149086010BD0000E449002080B568480068002803D08848012101609E
:2057E00053E0DFF810040068006BDFF8081409680968884209D3DFF8FC03006810F13401C9
:20580000DFF8F003006803F0B3FC14221F49DFF8E4030068006B03F0C1FD002809D0DFF8FC
:20582000D403006810F13401DFF8C803006803F09FFCDFF80C0400681421DFF8082401FBD8
:2058400000200068002807D1DFF8F4030068401EDFF8EC130860ECE7DFF8E41309681422A6
:20586000DFF8E03302FB01310800416849684160416810F10802914202D1416849684160B7
:205880004068C068DFF86C13086001BDDC97000870B504000D00DFF85C03006810F1180153
:2058A000200003F0D0FADFF84C030068001D03F0E8FA15F1010F07D1DFF838030068011D05
:2058C0007C4803F0B1FA1BE04948006828180600DFF820030068466045480068864208D28D
:2058E000DFF810030068011D7448006803F0ABFA06E0C0480068011D6F48006803F0A3FA59
:2059000070BD70B504002068002802D0E068C66800E0002616F1180003F0B3FA15480068AF
:20592000002814D1301D03F0ACFADFF814030068F16A884202D2F06AC1490860311DF06AB1
:205940001422C04B02FB003003F06EFA04E016F11801574803F068FAF06AA6490968C96A99
:20596000884202D30120050001E000200500280070BD0000E04900201C49096801601C4922
:2059800009684160704770B505000C0003F003FA206810F1010F02D10020060022E0134829
:2059A00000682968884207D0114800686968884202D30120060015E00D4800686968401A18
:2059C000216888420CD2206809490968401A6968081820602800FFF7CFFF0020060001E08D
:2059E0000120060003F0E0F9300070BDEC490020D04900200148012101607047E8490020F5
:205A000010B5040000F05CF88E4800680228F9D303F0BCF9F6E72DE9F04106000C00170050
:205A20001D00DDF818801022210016F1340003F04BFC002086F84300052F01D30420070000
:205A4000F7627764301D03F0ECF916F1180003F0E8F93661D7F10500B0617662BDE8F08197
:205A600010B500200400052C07D21420754900FB041003F0C7F9641CF5E70B4803F0C2F922
:205A80000A4803F0BFF90A4803F0BCF9254803F0B9F9084803F0B6F90748034901600748C0
:205AA0000249016010BD00BFEC48002000490020144900203C490020C0490020C449002079
:205AC00038B51A48006800282AD0FFF7B7FD15480068002801D1012400E00024E4B2FFF7CF
:205AE000B4FD002C1CD103F056F90E480068002803D00C48C068C56800E00025281D03F0FB
:205B0000C0F909480068401E0749086007480068401E0649086003F047F9280000F027F8C7
:205B200031BD000028490020CC490020C849002070B504000D00482002F0B6FD0600002E09
:205B400013D0A4B2A00002F0AFFD3063306B002805D1300002F02CFE0020060005E0A4B2F5
:205B6000A200A521306B03F024FE300070BD10B50400206B02F01CFE200002F019FE10BD5A
:205B80001C4909680800704738B504002500E86A18490968C96A884229D216480068C06A4E
:205BA000D0F10500A8616869E96A1422254B02FB0131884217D1281D03F063F90D4800681A
:205BC000C06AE8621E480068E96A884202D2E86A1B490860291DE86A14221A4B02FB003014
:205BE00003F022F903E003480068C06AE86231BD00000000BC49002038B504002500002C38
:205C00001CD0E86A696C884218D0281D03F039F9686CE862E86AD0F10500A861084800685E
:205C2000E96A884202D2E86A05490860291DE86A1422044B02FB003003F0F6F831BD000052
:205C4000D849002000480020F8B505000C00002D32D04C2002F028FD0600002E2CD00120DA
:205C600004FB05000700380002F01EFD3060306800281ED0306804FB050070600020B063F7
:205C80003068B060681E316804FB0010F060F56334645FF0FF3070645FF0FF30B06416F103
:205CA000100003F0AFF816F1240003F0ABF8300003E0300002F07CFD0020F2BDF7B505004B
:205CC0000E001C000020070003F065F8A86BE96B884213D222003100280000F018F9686ABF
:205CE000002807D015F12400FFF70BFE012801D103F04CF803F058F8012047E002980028FD
:205D000003D103F051F8002040E0002F04D100A8FFF732FE0120070003F046F8FFF78EFC88
:205D200003F039F8686C10F1010F01D100206864A86C10F1010F01D10020A86403F034F85A
:205D400002A900A8FFF71FFE002819D1280000F071F900280ED0029915F11000FFF798FD07
:205D6000280000F023F9FFF770FC0028ACD103F00DF8A9E7280000F019F9FFF766FCA3E754
:205D8000280000F013F9FFF760FC0020FEBD2DE9F84305000C00160099460020804603F082
:205DA00083F9A86BE96B88421AD24A462100280000F0ADF8A86C10F1010F0BD1686A0028E1
:205DC0000BD015F12400FFF79CFD002805D00120306002E0A86C401CA8640120070001E01A
:205DE0000020070003F067F93800BDE8F2832DE9F44183B005000E001C000020070002F011
:205E0000CAFFA86B00282DD0E86880463100280000F0B6F8002C14D1A86B401EA863286857
:205E2000002802D1FFF7ACFE68602869002815D015F11000FFF765FD01280FD102F0A6FF53
:205E40000CE0C5F80C80686A002807D015F12400FFF757FD002801D002F098FF02F0A4FFB1
:205E6000012051E00398002803D102F09DFF00204AE0002F04D100A8FFF77EFD012007001C
:205E800002F092FFFFF7DAFB02F085FF686C10F1010F01D100206864A86C10F1010F01D1A4
:205EA0000020A86402F080FF03A900A8FFF76BFD002823D1280000F0AEF8002818D0286819
:205EC000002806D102F067FF6868FFF75DFE02F06BFF039915F12400FFF7DAFC280000F044
:205EE00065F8FFF7B2FB002889D102F04FFF86E7280000F05BF8FFF7A8FB80E7280000F0F0
:205F000055F8FFF7A2FB002004B0BDE8F08170B505000C001600286C002808D1286800281E
:205F20002AD16868FFF768FE0020686024E0002E0FD12A6C2100A86803F030FC286CA968B5
:205F40004018A860A8686968884215D32868A86012E02A6C2100E86803F020FC286C404298
:205F6000E9684018E860E8682968884204D2286C404269684018E860A86B401CA86370BD81
:205F800038B504000D00206800280ED0206CE1684018E060E0686168884201D32068E06091
:205FA000226CE168280003F0F9FB31BD10B5040002F0F1FEA06C01280EDB606A00280BD078
:205FC00014F12400FFF79DFC002801D0FFF712FDA06C401EA064EDE75FF0FF30A06402F055
:205FE000E3FE02F0D8FE606C01280EDB206900280BD014F11000FFF784FC002801D0FFF714
:20600000F9FC606C401E6064EDE75FF0FF30606402F0CAFE10BD38B5040002F0BCFEA06B58
:20602000002801D1012500E00025EDB202F0BCFE280032BD38B5040002F0ADFEA06BE16BF4
:20604000884201D1012500E00025EDB202F0ACFE280032BD00B585B001215FF4001002F0C6
:2060600011FB0121082002F0FBFAC020ADF8000003208DF802001C208DF8030000A91048EF
:2060800001F0E8FF0020ADF808004BF6FF70ADF80A000020ADF80C004FF48060ADF80E0055
:2060A0004FF48040ADF810000648019001A9594801F02CF90121574801F0A4F905B000BD27
:2060C000000C0140A086010070B504000D0016000121504801F0A4F94D494E4801F0DDF9C5
:2060E0000028F9D000222100C9B24A4801F0CAF94549484801F0D1F90028F9D03100C9B235
:20610000444801F0B9F94149424801F0C6F90028F9D029783F4801F0AFF93C493D4801F0DF
:20612000BCF90028F9D001213A4801F088F970BDF8B505000E0017001C005FF40031354882
:2061400001F0CBF90028F8D10121324801F068F92F49304801F0A1F90028F9D000222900F4
:20616000C9B22C4801F08EF927492A4801F095F90028F9D00121274801F044F93900C9B2F3
:20618000244801F079F92149224801F086F90028F9D001211F4801F043F91D491D4801F089
:2061A0007CF90028F9D001222900C9B2194801F069F91349174801F070F90028F9D0A4B2A2
:2061C000002C17D0A4B2012C07D10021114801F045F901210F4801F032F90A490D4801F07A
:2061E0005CF90028EBD00B4801F049F93070761C641EE4E70121074801F030F9F1BD00BF6A
:2062000002000300400003008200070084000700010003000054004010B582B0040000206F
:206220008DF8010000208DF800009DF80100217862781143A278114308438DF801009DF802
:206240000000E178227911436279114308438DF8000020220DF101013320FFF735FF2322F3
:2062600000A93320FFF730FF13BD10B582B0040000208DF8010000208DF800009DF8010051
:20628000217862781143E278114308438DF801009DF80000A17808438DF8000021220DF1F9
:2062A00001013320FFF710FF262200A93320FFF70BFF13BD10B584B004000123232202A95F
:2062C0003320FFF735FF0123282200A93320FFF72FFF012329220DF101013320FFF728FFD4
:2062E00001232A220DF102013320FFF721FF01232B220DF103013320FFF71AFF01232C227D
:2063000001A93320FFF714FF01232D220DF105013320FFF70DFF9DF80800400610D40021C3
:206320000800032821DA00A911EB4001497800AA12F8102012EB012124F81010401CF0E716
:2063400000210800032810DA00A911F81010090209B200AA12EB400252785118102291FB8D
:20636000F2F124F81010401CECE71FBD10B582B0040000208DF8020000208DF8010000208B
:206380008DF800009DF8020021786278114308438DF802009DF80100A17808438DF80100C8
:2063A0009DF80000E17808438DF8000000220DF102013D20FFF788FE01220DF101013D20A3
:2063C000FFF782FE022200A93D20FFF77DFE13BD1CB504000623032200A93D20FFF7A8FE17
:2063E0000021080003280CDA00A911F8101000AA12EB4002527812EB012124F81010401C27
:20640000F0E713BD00B585B001215FF4800002F039F90121082002F023F94FF44060ADF8F2
:20642000000003208DF802001C208DF8030000A9114801F00FFE0020ADF808004BF6FF7071
:20644000ADF80A00BA20ADF80C004FF48060ADF80E004FF48040ADF810000848019001A9E9
:20646000DFF89C0200F052FF0121DFF8940200F0C9FF05B000BD00BF000C0140A08601007A
:2064800010B582B0040000208DF800009DF80000217862781143A2781143E2781143084399
:2064A0008DF800000122202100A800F079F813BD10B582B0040000208DF8010000208DF8D4
:2064C00000009DF80100217862781143A27851EAC201E278114308438DF801000122222162
:2064E0000DF1010000F05CF89DF80000217962791143A279114308438DF800000122342144
:2065000000A800F04DF813BD10B582B0040000208DF800000122202100A800F07FF8E4B225
:20652000002C06D19DF8000050F040008DF8000005E09DF8000010F0BF008DF800000122DD
:20654000202100A800F02CF813BD38B5040000A8002101800020050000208DF80200012244
:2065600020210DF1020000F059F80222282100A800F054F89DF80200800708D49DF80100B8
:206580009DF8001011EB00200500258007E09DF800009DF8011011EB00200500258031BDBA
:2065A00070B504000D0016000121554800F038FF5249534800F071FF0028F9D00022BA2125
:2065C0004F4800F05FFF4B494D4800F066FF0028F9D0F6B2022E00D3803D2900C9B24848CB
:2065E00000F04AFF4449464800F057FF0028F9D0F6B2002E0CD02178414800F03DFF3E4989
:206600003F4800F04AFF0028F9D0641C761EEFE701213B4800F013FF70BD000070B50400E2
:206620000D0016005FF40031354800F056FF0028F8D10121324800F0F3FE3049304800F0A2
:206640002CFF0028F9D00022BA212D4800F01AFF28492B4800F021FF0028F9D0012128482C
:2066600000F0D0FEF6B2022E00D3803D2900C9B2234800F001FF2049214800F00EFF0028FE
:20668000F9D001211E4800F0CBFE1C491C4800F004FF0028F9D00122BA21194800F0F2FE04
:2066A0001249174800F0F9FE0028F9D0F6B2002E17D0F6B2012E07D10021114800F0CEFEA6
:2066C00001210F4800F0BBFE09490D4800F0E5FE0028EBD00A4800F0D2FE2070641C761E85
:2066E000E4E70121064800F0B9FE70BD02000300400003008200070084000700010003002B
:20670000005800404FF6F8710140DFF88C2211607047C0B2DFF8882252F8202048F68F13E8
:206720001A400A4392B2C0B2DFF8743243F82020704710B4C0B2DFF8683253F8203048F6CD
:20674000BF7423401A00CB0601D592F010028B0601D592F02002C0B2DFF8443248F28004C6
:20676000224392B243F8202010BC704710B4C0B2DFF82C3253F820304BF68F7423401A00AB
:20678000CB0401D592F480528B0401D592F40052C0B2DFF80C3248F28004224392B243F896
:2067A000202010BC7047C0B2DFF8F41151F8200010F030007047C0B2DFF8E42152F82020A0
:2067C00048F6BF731A40110091F0100191F02001C0B2DFF8CC2148F28003194389B242F8E6
:2067E00020107047C0B2DFF8B82152F820204BF68F731A40110091F4805191F40051C0B2BA
:20680000DFF89C2148F28003194389B242F820107047C0B2DFF8881151F8201048F68F62E5
:20682000114048F28002114389B2C0B2DFF8702142F820107047C0B2DFF8641151F820108A
:2068400049040FD5C0B2DFF8581151F8201048F68F7211404CF280021143C0B2DFF840218E
:2068600042F820107047C0B2DFF8341151F8201049060FD5C0B2DFF8281151F8201048F684
:206880008F72114048F2C0021143C0B2DFF8102142F82010704710B4DFF8FC20126892B246
:2068A000C0B212EBC002394B89B24C08A4B2640043F8124010BC704710B4DFF8DC201268B9
:2068C00092B2C0B212EBC002314B89B24C08A4B2640043F8124010BC7047DFF8BC1009685A
:2068E00089B2C0B211EBC000284951F8100080B27047DFF8A410096889B2C0B211EBC00017
:20690000234951F8100080B27047DFF88C20126892B2C0B212EBC002DFF8803089B243F85A
:206920001210704710B4DFF870301B689BB2C0B213EBC003174C14EB43031A0089B23F29DB
:206940000CD389B24C0923001F24214200D15B1E9BB29B0253F40043136008E089B24C0857
:206960002300CC0700D55B1C9BB29B02136010BC70470949096889B2C0B211EBC00005497B
:2069800051F810008005800D7047000000600040086000400C600040505C00400460004051
:2069A000005C004001000B001A0089B2D2B2130253EA1123180080B27047000080B501F0A9
:2069C00009FAA14800680021817202F0CBFD07480021016006484FF40641018005480449D1
:2069E0000988016045480021016001BD445C0040144A0020405C004080B593480068002105
:206A00008172914800683349C97941728E4800680021C1720020FFF775FE4FF400710020E2
:206A2000FFF777FE10210020FFF783FE40210020FFF742FF80210020FFF72DFF0020FFF772
:206A4000E8FE254890F82C1089B20020FFF76AFF0020FFF7C7FE00210120FFF75AFEC02119
:206A60000120FFF718FF20210120FFF762FE00210120FFF77BFE4FF4C0610220FFF749FEBC
:206A80004FF480710220FFF706FF00210220FFF76DFE20210220FFF74CFE00210320FFF724
:206AA00038FE4FF488710320FFF706FF40210320FFF738FF4FF440510320FFF757FE002132
:206AC0000320FFF736FE0020FDF750F90B480121016001BD58940008284A0020044908009D
:206AE000817A002902D0054905220A60704700BFA44800200148042101607047084A002047
:206B00001E480078202802D11C480021017070477047000038B5040000200500E4B2212C1F
:206B200009D149480068007810F07F00212811D1104805000EE0E4B2202C0BD14248006865
:206B4000007810F07F00212801D10B4805000B48202101702800002801D1022009E03A4817
:206B60000068856138480068002141820020A847002032BD176C00082F6C0008254A002020
:206B8000010031480068007810F07F00212809D1C9B2022901D1002005E0C9B2222901D1E4
:206BA000002000E00220704710B504000249200080B2FCF701FD10BD084B002010B504009C
:206BC0000249200080B2FCF7F7FC10BD104B002038B504001C480068C0780500EDB2052D1F
:206BE00001D3002007E0EDB2034810EBC501200080B2FCF7E1FC32BD7C4A00200200C9B29B
:206C0000012901D3022005E0D2B2022A01D3022000E000207047010089B2002905D10A4885
:206C2000006808220282002000E008487047010089B2002905D1044800680822028200207A
:206C400000E0024870470000FC490020004B002080B50020ADF800008948006889490880F6
:206C6000000440F107818748008810F00F008849087087480078002840F0C0807E48834937
:206C8000096801807C48008810F030007B4908807948008810F44050774908807B490968E0
:206CA00089B24BF6BF721140080090F4005090F0200080B248F28001084374490860714844
:206CC0000088C0062FD47148006880B248F60F7108406E490860FCF7BBFF6C49096889B2DD
:206CE0004BF6BF721140080063490988C90401D590F4805060490988890401D590F4005024
:206D00005E490988C90601D590F010005B490988890601D590F0200080B248F28001084394
:206D20005A490860A6E059480068ADF80000BDF8000000052ED55548006840F68F710840D4
:206D400052490860FCF732FF5049096889B24BF6BF721140080048490988C90401D590F4B3
:206D6000805045490988890401D590F4005043490988C90601D590F01000404909888906F2
:206D800001D590F0200080B248F2800108433F4908606FE0BDF8000000047FF55DAF3B484A
:206DA000006840F68F71084038490860FCF78CFF3649096889B24BF6BF72114008002E4919
:206DC0000988C90401D590F480502B490988890401D590F4005029490988C90601D590F0C7
:206DE000100026490988890601D590F0200080B248F280010843254908603BE02448007871
:206E0000224951F82000ADF80000BDF80000000414D51F4800781D4951F8200040F68F7173
:206E200008401B490978194A42F8210018480078154911EB800050F8040C8047BDF80000E1
:206E400000067FF509AF12480078104951F8200080B248F60F7108400D4909780B4A42F8CE
:206E600021000B4800780B4911EB800050F8040C8047F1E601BD00BF164A0020184A0020E1
:206E8000445C00401A4A0020D44A0020005C0040234A0020B84A0020F0B540F2FF7581EA4F
:206EA000030C0CF0004C15EA11541DBF15EA1357AC42AF42E5E0BC41C1F31301C3F313039D
:206EC000801A994143F4801304D2641E4000494180185941C90241EA5051B1FBF3F603FBF6
:206EE0001611A2FB0675D7EBC020A94102D2761E80185941C90241EA5051B1FBF3FE03FBFB
:206F00001E11A2FB0E75D7EBC020A94103D2AEF1010E80185941890241EA9051760546EA9F
:206F20008E2EB1FBF3F603FB1611A2FB0675D7EB8020A94102D2761E80185941C90241EAE7
:206F400050514EEA060EB1FBF3F603FB1611A2FB0675D7EBC020A94102D2761E801859414C
:206F6000C90241EA5051B1FBF3F703FB1711A2FB0735D3EBC020A94167F100070CBF0042F1
:206F800047F0010766F3D5274FEA1E31B80814F5806412DDBD0775F1004250EB0E5051EBF8
:206FA000045111F5801F5CBF41EA0C01F0BD4CF07F6141F0E0410020F0BDBD076D0840EA39
:206FC0000E5041F48011D4F10104B4F120060ADAC4F120060200E04001FA06F3E1401843A7
:206FE000B24015430EE0342C13DCC6F1200445EA40056D0820FA06F2154321FA06F0A140EA
:020000040800F2
:020000020000FC
:207000000D43002175F1004250F1000051EB0C01F0BD00205FEA0C01F0BDCFB992185B412F
:20702000B3FA83F704BFB2FA82F6BF190B3FB7F120062FBF02FA06F3BB40C7F1200622FA7A
:2070400006F638BF3343BA401CB1E419641E33E77F4231F00041B1FA81F404BFB0FA80F641
:20706000A4190B3CB4F120062FBF00FA06F1A140C4F1200620FA06F638BF3143A0403C1BEE
:207080001AE7AC421ABF05EA1357AF4212E050EA41061CBF52EA4306BFE750EA410730466D
:2070A00061461CBF41EA0551F0BD52EA430C08BFC143F0BD00204FF4001616EB410F98BFFC
:2070C00016EB430F08BF16EB410F24BFC14305E016EB430F0CBF61464CEA0551F0BD00007B
:2070E00010B5040001F090F8044800680528FBD101F0F4F800F086F810BD00BF084A002058
:207100001FB5040004210120FEF79EFD6F4908606E480068002800D1FEE700210120FEF76E
:2071200093FD7949086078480068002806D000230022002174480068FEF7C0FD7248006811
:20714000002800D1FEE70023002200216E480068FEF74DFE00200390002002900020019077
:207160000220009000234FF4A4720D490D48FEF779F9012800D0FEE700200390002002908C
:20718000002001900120009000234FF4A47206490648FEF767F9012800D0FEE71FBD00BFA6
:2071A00038980008B171000844980008D771000810B582B004000020009000235FF0FF324B
:2071C00000A942480068FEF712FE0128F5D10098FCF7F8FDF1E710B598B0040000A801F01E
:2071E00035F800235FF0FF32002147480068FEF7FEFD0128F5D1FDF7C8FB00A9C0B2FDF702
:2072000097F8EEE730B585B0322005000121012001F038FA01215FF0804001F094FB02A8D8
:2072200001F042FB1A48EDB2B0FBF5F0040001AA0DF10601200001F0AFFCBDF80400401E08
:20724000ADF80C00BDF80600401EADF808000020ADF80E000020ADF80A0002A95FF080405B
:2072600001F0CEFA01215FF0804001F042FB1C208DF8000000208DF802000D208DF80100DB
:2072800001208DF8030000A801F0FEFC05B030BD00A24A0480B50020009001F0A5FF0A4854
:2072A0000068002809D0002300AA074907480068FEF76DFD0448002101600098002801D0D3
:2072C00001F064FD01BD00BFF84900209449002080B501215FF0804001F019FB002812D00C
:2072E00000200090002300AA002107480068FEF74EFD01215FF0804001F025FB00980028F7
:2073000001D001F043FD01BD984900202DE9F04385B005000C0000200600002007000420AC
:20732000804635488146A88806004FF6C070064000A801F007F9029881463048B9FBF0F04C
:2073400007003E43AE8028884FF6FE71084028800020060020682A49884210D2206840008E
:20736000B9FBF0F080461FFA88F8B8F1040F01D20420804658EA0606781C288426E0E088A5
:207380004BF6FF71884206D1206803214843B9FBF0F0804607E0206819214843B9FBF0F042
:2073A000804658F480485FEA085001D158F0010858F400400643BFB24FF4967000FB07F0AE
:2073C0004FF47A7190FBF1F0401C2884AE83288850F001002880288806004FF6F5300640DB
:2073E000A0886189084306432E80A08921890843288105B0BDE8F08300127A0040420F0088
:20740000A1860100C9B2002904D0028852F00102028004E002884FF6FE731A4002807047C4
:20742000C9B2002905D002884FF480731A43028004E002884FF6FF631A4002807047C9B211
:20744000002905D002884FF400731A43028004E002884FF6FF531A4002807047C9B20029D3
:2074600004D0028852F48062028004E002884FF6FF331A4002807047C9B201827047008A4D
:20748000C0B27047D2B2002A02D051F0010101E011F0FE01C9B20182704770B4020000261E
:2074A0003300002634000026350000263000968A3400168B35002D0455EA04063602360A72
:2074C000330011EA03068E4202D10126300001E000263000C0B270BC704782B00200002398
:2074E0001800002301930023009300920B0F01930902090A019B002B03D0009B143300939A
:2075000003E0090C009B18330093009B1B680B4202D00123180001E000231800C0B202B041
:207520007047000000B587B001214FF4047001F097F83720ADF8000000208DF8030000A902
:20754000254800F087FD0020019001208DF8080001208DF809005FF4602003900020049022
:2075600005208DF81400072301220A215E4800F041FB072302220B215B4800F03BFB072396
:2075800003220C21584800F035FB072304220E21554800F02FFB072305220F21524800F098
:2075A00029FB01A9504800F0ADFA01214E4800F0D5FA4D4800F0EDFA4B4800F0EFFA002857
:2075C000FAD1494800F0F7FA474800F0F9FA0028FAD107B000BD00BF0010014000B58BB095
:2075E0000121012001F02AF83E4800F099F90F4800903E48019000200290052003900020A5
:207600000490802005904FF4807006904FF480600790202008904FF40050099000200A9060
:2076200000A9304800F018FA0BB000BD4C24014080B50121082001F013F84CF20200ADF89E
:20764000000003208DF8020010208DF8030000A90C4800F0FFFC01BD80B54FF40041094818
:2076600000F0A3FD2021074800F09FFD01BD80B54FF48041034800F098FD0221014800F03B
:2076800094FD01BD000C014010B504000121164800F071FA0121144800F060FA0121114867
:2076A00000F0FCF90121104800F097FA022000F002FA0028FAD000210B4800F04FFA00211C
:2076C000094800F08AFA022000F00CFA00210800052806DA054931F810102180A41C401C43
:2076E000F6E710BD08000240002401407049002010B584B0040000A8FFF7C6FFBDF9000042
:20770000BDF90410401A2080BDF90200BDF90410401A00B240426080BDF90600BDF908102B
:20772000401AA0801FBD00000448DFF8581101600248DFF8581101607047000004200240FE
:20774000DFF86801006850F08000DFF860110860704738B5A52004000420050000F098F8FB
:20776000002801D0002004005FF4302000F0C0F80500EDB2042D52D1DFF80C01DFF80411D9
:207780000160DFF80401DFF804110160DFF81C01006850F02000DFF814110860DFF80C015B
:2077A000006850F04000DFF8041108605FF4302000F09EF80500EDB2042D24D1DFF8EC00D7
:2077C000006841F6DF710840DFF8E0100860DFF8DC00006850F01000DFF8D0100860284849
:2077E00004804FF4005000F083F80500EDB2052D15D0DFF8B800006841F6EF710840DFF89F
:20780000AC1008600BE0EDB2052D08D0DFF89C00006841F6EF710840DFF8901008602800EF
:20782000C0B232BD70B505000C00042006004FF4005000F05DF80600F6B2042E1CD1124888
:20784000104901601048114901601848006850F0100016490860E4B22C804FF4005000F0B7
:2078600047F80600F6B2052E06D01048006841F6EF7108400D4908603000C0B270BD0000E6
:2078800000F8FF1F2301674508200240AB89EFCD0021080006490968890702D5012108002E
:2078A00001E000210800C0B270470000102002401C200240042108000C490968C90702D50B
:2078C000012108000FE009490968490702D50221080008E005490968C90602D50321080001
:2078E00001E004210800C0B2704700000C20024038B5040004200500FFF7DCFF0500EDB254
:20790000012D06D1002C04D0FFF7D4FF0500641EF5E7002C01D1052005002800C0B232BD85
:2079200001684908490001600021016000214160002181600021C1603B49884206D170497D
:20794000096851F00F016E4A11606CE03749884206D16B49096851F0F001694A116062E012
:207960003349884206D16649096851F47061644A116058E02F49884206D16149096851F4E4
:2079800070415F4A11604EE02B49884206D15C49096851F470215A4A116044E0274988427A
:2079A00006D15749096851F47001554A11603AE02349884206D15249096851F07061504A3A
:2079C000116030E01F49884206D14C49096851F00F014A4A116026E01B49884206D1474926
:2079E000096851F0F001454A11601CE01749884206D14249096851F47061404A116012E0E8
:207A00001349884206D13D49096851F470413B4A116008E00F49884205D13849096851F46F
:207A20007021364A11607047080002401C0002403000024044000240580002406C00024025
:207A400080000240080402401C04024030040240440402405804024010B400231A000368AA
:207A60001A000D4B1A408B680C6A23430C6923434C6923438C692343CC6923434C6A234363
:207A80008C6A23431A430260CB6843600B6883604B68C36010BC70470F80FFFFC9B2002915
:207AA00004D0026852F00102026003E00268520852000260704701000023180000231A0056
:207AC000CB0003D50B4B1B681A0002E00A4B1B681A000A4202D00123180001E000231800C6
:207AE000C0B27047C10002D50449086001E0044908607047000402400000024004040240F1
:207B00000400024030B4002423000024220044682300104C23400C680D7954EA0524234359
:207B20004360846823000C4C2340CC688D682C434D7954EA450423438360C46A230033F432
:207B400070030C7C641E2243D2B253EA0253C36230BC7047FFFEF0FFFDF7F1FFC9B20029F1
:207B600004D0826852F00102826003E082685208520082607047C9B2002905D082684FF468
:207B800080731A43826003E0826832F4807282607047816851F00801816070470100002247
:207BA00010008A68120702D50122100001E000221000C0B27047816851F00401816070479D
:207BC0000100002210008A68520702D50122100001E000221000C0B27047C9B2002904D069
:207BE000826852F4A002826003E0826832F4A00282607047F0B40026350000263400C9B2CF
:207C00000A2916D3C66835000726B1F10A075FF0030C0CFB07F7BE403400A543DBB2B1F159
:207C20000A0603277E4313FA06F634002543C56011E0066935000726032707FB01F7BE409B
:207C40003400A543DBB2032606FB01F613FA06F6340025430561D2B2072A14D2466B3500CE
:207C60001F26571E5FF0050C0CFB07F7BE403400A543C9B2561E05277E4311FA06F63400B4
:207C8000254345632DE0D2B20D2A14D2066B35001F26D71F5FF0050C0CFB07F7BE403400AE
:207CA000A543C9B2D61F05277E4311FA06F634002543056315E0C66A35001F26B2F10D071E
:207CC0005FF0050C0CFB07F7BE403400A543C9B2B2F10D0605277E4311FA06F63400254364
:207CE000C562F0BC704700000548006810F4E0600449084302490860BFF34F8FFEE700BF82
:207D00000CED00E00400FA0580B50121042000F0A7FC4FF48060ADF8000003208DF8020007
:207D200010208DF8030000A90B4800F093F9002000F001F801BD10B50400E4B2002C05D0EC
:207D40004FF48061044800F02DFA04E04FF48061014800F02AFA10BD000801400E48006863
:207D6000C0B2704780B50020FFF7E5FFFFF7BCFF01BD000080B5FFF7D7FCFFF7EAFC054914
:207D8000087001210448FFF74DFD02490870FFF7D7FC01BD264A002004F8FF1F80B5002074
:207DA00000F0CAFB01215FF4000000F06BFC01BD80B514208DF800000E208DF801000020C2
:207DC0008DF8020001208DF8030000A800F05CFF01BD000010B4174B1B681800164B1B681D
:207DE0001900164B1B681A00002820D0144B9870030A134C2371030C114CA371030E104C00
:207E000023720F4B99720B0A0D4C23730B0C0C4CA3730B0E0A4C2374094B9A74130A084C06
:207E20002375130C064CA375130E054C237610BC704700BFE8F7FF1FECF7FF1FF0F7FF1FD1
:207E40009C4A00202DE9F04105000E003700002080465FFA88F8F6B2B0451FD2FFB2402F1E
:207E600001D23C0001E0402004000120FEF79BFC3028FAD0E4B2220092B2C021280001F0E9
:207E800079F9E4B2210089B20120FEF73EFD0120FEF791FC3F1B14EB0808DAE7BDE8F0814A
:207EA00000B585B001215FF4800000F0EBFB0121082000F0D5FB4FF44060ADF80000032058
:207EC0008DF802001C208DF8030000A9104800F0C1F80020ADF808004BF6FF70ADF80A0081
:207EE0009020ADF80C004FF48060ADF80E004FF48040ADF810000748019001A95448FFF777
:207F000005FA01215248FFF77DFA05B000BD00BF000C0140A086010070B582B00400002019
:207F2000050000A800210180002006000222002100A800F017F89DF80100C0B2C009C0B29D
:207F40009DF8001010EB410005009DF8000010F08000EDB215EB00200600052000FB06F04B
:207F6000208073BD70B504000D0016005FF400313748FFF7B2FA0028F8D101213448FFF7BB
:207F80004FFA32493248FFF788FA0028F9D0002290212F48FFF776FA2A492D48FFF77DFA35
:207FA0000028F9D001212A48FFF72CFAF6B2022E03D301212648FFF751FA2900C9B2244891
:207FC000FFF75AFA20492248FFF767FA0028F9D001211F48FFF724FA1C491D48FFF75DFA88
:207FE0000028F9D0012290211948FFF74BFA13491748FFF752FA0028F9D0F6B2002E17D075
:20800000F6B2012E07D100211148FFF727FA01210F48FFF714FA0A490D48FFF73EFA0028A5
:20802000EBD00B48FFF72BFA2070641C761EE4E701210748FFF712FA70BD00BF0200030044
:208040004000030082000700840007000100030000580040F0B55FF0000C62465FF0000C2A
:2080600063465FF0000C64465FF0000C65465FF0000C66465FF0000C674691F803C01CF0E5
:208080000F0C624691F803C05FEACC6C03D591F802C05CEA0202B1F800C05FEA0C6C3AD0AF
:2080A000D0F800C066465FF0000C6446082C31D25FF0010C1CFA04FC6546B1F800C015EACB
:2080C0000C0C6346AB4223D15FEA840C65465FF00F0C1CFA05FC6746BE4312FA05FC5CEAF8
:2080E000060691F803C0BCF1280F06D15FF0010C1CFA04FCC0F814C00AE091F803C0BCF18C
:20810000480F05D15FF0010C1CFA04FCC0F810C0641CCBE70660B1F800C04FF4807EF445BD
:208120003FD3D0F804C066465FF0000C6446082C36D25FF0010C14F1080E1CFA0EFC654672
:20814000B1F800C015EA0C0C6346AB4226D15FEA840C65465FF00F0C1CFA05FC6746BE435F
:2081600012FA05FC5CEA060691F803C0BCF1280F07D15FF0010C14F1080E1CFA0EFCC0F849
:2081800014C091F803C0BCF1480F07D15FF0010C14F1080E1CFA0EFCC0F810C0641CC6E797
:2081A0004660F0BD89B20161704789B24161704730B400231A000F2311F00304E4B2A400EF
:2081C000A3401A00C9B28B100E4C54F823309343C9B28C100B4D45F82430C9B28B10094C52
:2081E00054F82330C0B211F00304E4B2A40010FA04F42343C9B28C10024D45F8243030BCE1
:20820000704700BF0800014080B5002000F0E6FEFFF77AFD0120FFF78EFDFFF7BFFDFFF7BF
:20822000C7FD01F07FF9FEF7EDF8FFF739FEFCF7CDFB0021002000F085FEFDF70BFFFFF7A7
:2082400071F9FFF7CBF9FFF7F3F901BD0021A0F844100021A0F846100021A0F8481000210C
:20826000A0F84A100021A0F84C100021A0F84E100021A0F850100021A0F852100021A0F8F3
:2082800054100021A0F856100021A0F858105FF07E5181615FF07E51C1615FF07E51016279
:2082A00008494162074981620749C1620749016306494163064981630649C1630649016423
:2082C000704700BF14AE87400AD7934000E0834400806D44CDCCCC3F0000A04000B587B0A3
:2082E000FFF7BAF9FFF7C3F920208DF8140000208DF8150007208DF8160000208DF8170012
:2083000000208DF8180040208DF8190000208DF8080000208DF8090000208DF80A00002078
:208320008DF80B0005A8FDF777FF02A8FDF79DFF14208DF8040000208DF8050040208DF810
:20834000060000208DF8070001A8FEF70FF800208DF8000030208DF8010000208DF80200A4
:2083600000208DF8030000208DF80C0000208DF80D0002208DF80E0001208DF80F00002068
:208380008DF8100002208DF8110001208DF8120000A8FEF775F803A8FEF78AF80020FEF797
:2083A000B3F807B000BD0000274800210160194800210160394800210160394800210160C4
:2083C000424800210160424800210160414800210160584802490160244800210160704789
:2083E000FF07C000002211000A4A12681100084A1140027D83681A4343681A43C3681A43AB
:2084000003681A4303691A431143024A116070470081FFFF048001400149C0B208607047E4
:20842000A00030420849096889088900064A1160054909680143044A116070470248006862
:2084400010F003007047000000800140C9B2002905D0064A12680243044B1A6004E0034A1F
:2084600012688243014B1A60704700003C80014000221100094A03681360094A1268110001
:20848000C90AC902426883681A43C3681A4303691A431143024A116070470000088001406A
:2084A0000C80014001480068C0B270471080014081B0010000200090034840180090009897
:2084C000006801B0704700BF1480014024800140288001402C8001400248006870470149CA
:2084E00008607047808001400100002210000E4A12680A4202D00122100001E000221000B3
:20850000C0B270470B4908607047010000221000054A12680A4202D00122100001E000226F
:208520001000C0B2704700003480014001490860704700003880014001490860704700BF83
:20854000D800424230B40025290000252A0000252B0000252C00384D2D6815F00C05290044
:208560000D00002D04D0042D05D0082D06D026E02D4D056025E02C4D056022E02E4D2D6802
:2085800015F470152A002C4D2D6815F480352B00920C921C002B04D1244D05FB02F5056013
:2085A0000FE0254D2D68AD0304D5204D05FB02F5056006E01C4D05FB02F5056001E01A4D80
:2085C00005601D4D2D6815F0F00529000909184D4D5D2C000568E5404560174D2D6815F48E
:2085E000E0652900090A124D4D5D2C004568E5408560114D2D6815F460552900C90A0C4D08
:208600004D5D2C004568E540C5600B4D2D6815F440452900890B074D4D5D2C00C568B5FB4E
:20862000F4F5056130BC704700127A0000093D00F04A0020284B002004100240C9B200298F
:2086400005D0064A12680243044B1A6004E0034A12688243014B1A60704700BF141002405B
:20866000C9B2002905D0064A12680243044B1A6004E0034A12688243014B1A60704700BFFD
:2086800018100240C9B2002905D0064A12680243044B1A6004E0034A12688243014B1A60E9
:2086A000704700BF1C1002402DE9F041070000200600FCF7C3FF3B48006800281AD14E4918
:2086C000394A0A604C4900224A6038494FF488424A60364900220A60334908004FF4884179
:2086E00041603249016045494FF488420A602D4901220A60002F0BD03E480088C71917F0F6
:208700000700002804D017F1080017F00701471A002F41D0B7F5884F3ED237480400364802
:2087200000688046D8F80400B84207D2D8F80000002803D04446D8F80080F3E71B488045BD
:208740002AD02C480088216840180600D8F800002060284800884000D8F80410C91B884222
:2087600015D217EB08000500D8F80400C01B6860C8F804706A6811001F4A100002685268D8
:208780008A4201D20068F9E702682A6005601B480068C01B19490860FCF757FF3000BDE80B
:2087A000F08100BF904900200004002084490020F8B504002500002C1BD00E480088404232
:2087C00045192E00FCF73AFF71680F000A49080001684968B94201D20068F9E70168316074
:2087E0000660064800687168081804490860FCF72CFFF1BD989900087C4900208C490020D0
:2088000000231A0003881A00254B98420ED0254B98420BD0B0F1804F08D0194B984205D0CE
:20882000184B984202D0184B984204D14FF68F731A404B881A43154B984207D0144B9842FC
:2088400004D04FF6FF431A40CB881A4302808B8883850B880385124B98420BD0114B9842B3
:2088600008D00C4B984205D00B4B984202D00B4B984201D10B7A0386012383827047000028
:208880000004004000080040000C00400010004000140040004001400044014000480140CD
:2088A000002C0140003401404FF6FF718180002101800021C18000214180002101727047EF
:2088C000C9B2002904D0028852F00102028004E002884FF6FE731A4002807047D2B2002A6A
:2088E00003D083890B43838102E083898B4383817047C9B2002904D0028852F08002028088
:2089000004E002884FF67F731A400280704730B402000025280000252B0000252C00158AAC
:208920000D402B0095890D402C009BB2002B05D0A4B2002C02D00125280001E0002528000B
:20894000C0B230BC704789B2CA4302827047000080B55048006850F001004E4908604E4874
:2089600000680E4908404C4908604A4800680C490840484908604748006830F4802045491A
:2089800008604548006830F4FE004349086005485FF41F01016000F007F801BD0000FFF89F
:2089A000FFFFF6FE0810024080B500F001F801BD82B000200190002000903648006850F4D2
:2089C0008030344908603348006810F4003000900198401C01900098002803D10198B0F503
:2089E000A06FF0D12B480068800302D50120009001E0002000900098012847D12448006883
:208A000050F010002249086021480068800880001F4908601E48006850F002001C490860AD
:208A20001D481D49096801601B481B49096801601948006850F48060174908601648006885
:208A400030F47C10144908601348006850F4E810114908600F48006850F080700D49086033
:208A60000C4800688001FBD50B48006880088000094908600848006850F0020006490860BB
:208A80000548006810F00C000828F9D102B0704700200240001002400410024010B5FF23C1
:208AA00013EAD0541DBF13EAD1529C429A4239E0A41ADA0780EA0103134042EA012142EAEC
:208AC0000020421A3CBF641E01EB4202090AB2FBF1FE01FB1E221202B2FBF1F001FB1022B2
:208AE0006EF30F201202B2FBF1FE4EEA00207F3406DDFE2C24DA53EA500050EBC45010BD77
:208B0000D4F1020401FB1E2240F08071192C1DDC21FA04F0C4F12004A140114371F100422E
:208B2000584110BD9C421ABF03EAD1529A420FE080EA010E0EF00043400004D0490016D13F
:208B400043F0FF4010BD490008BFD343180010BD9C4205D1D21AF7D001F00041484010BDDD
:208B60004A0212BF0846484000F0004010BD4AB90902B1FA81F2914044B1A418C00140F066
:208B800000409EE7C90141F0004152420002B0FA80F4A040141B94E7F0B50600471E4FF641
:208BA000FF7CB7FBFCF77F1C3C000F800F88B0FBF7F73B0017800F884FF6FE7C674539D220
:208BC0000F88B0FBF7F717800F88B2F800C00CFB07F73F1A3D00012D01DB2F0000E06F4268
:208BE000B1F800C05FF0020E9CFBFEFCBC4509DA17887F1C17800F88B2F800C00CFB07F761
:208C00003F1A3D00012D01DB2F0000E06F42012E01DBB44601E0D6F1000C674506DA2E0081
:208C20000F883C0017883B00002D03D00F887F1C0F80C0E70C801380F0BDD2B2002A05D0D0
:208C4000521E03780B70491C401CF6E7704700231A0003881A0092B2130A0B70491C0A70BC
:208C6000704700231A0003881A0092B2130A0B70491C0A707047000002490143214A11607E
:208C8000704700BF0000FA05F0B400242100002422000F242300C478002C20D0194C246891
:208CA00014F4E064D4F5E064240A2100D1F104042200CB4044789440210084781C402143A8
:208CC000090104780C4D6155047864110B4D0126077817F01F07BE4045F8246009E00478BF
:208CE0006411074D0126077817F01F07BE4045F82460F0BC704700BF00E400E000E100E072
:208D000080E100E00CED00E0024A0A400243024B1A60704780FFFF1F08ED00E0042806D16B
:208D20000649096851F00401044A116005E00349096831F00401014A1160704710E000E063
:208D4000001F5FF080730360001F0160001F002303601438026020387047000080B50A48E6
:208D6000006850F47F00084908600748006850F07F400549086000F037F8124800210160A8
:208D800000F0AEF9002002BD20ED00E015485FF080510160704780B500F086F9094800687E
:208DA000401C0849086001BD80B506480068401E0449086003480068002801D100F07BF9D1
:208DC00001BD0000204B002010B506485FF0805101600020040000F067F9FCF79FFC00F0C4
:208DE0006AF910BD04ED00E0034804490160044807210160704700BF14E000E07FFC0A00D5
:208E000010E000E010F1080141605FF0FF31816010F10801C16010F108010161002101605E
:208E2000704700210161704743681A0053684B6043688B60536899605160416008610368A6
:208E40005B1C0360704710B40C68230013F1010F02D10469220008E010F1080422005468DD
:208E60002468A34201D35268F9E754684C604C68A1608A60516008610468641C046010BCD6
:208E80007047426883689360826843685360026911004A68824201D182684A60002202616E
:208EA0000A68521E0A60704700221100244A11008279002A36D0224A126803689A43204B39
:208EC0001A601C4A126803689A431A4B1A60027951180A6803681A430A60174A1268036843
:208EE0009A43154B1A60154A126803689A43134B1A604279102A0CD10F4A126803681A4355
:208F00000D4B1A600D4A126803681A430B4B1A600EE00B4A1100427951180A6803681A4364
:208F20000A6005E0027951180A6803689A430A607047000004040140080401400C0401403C
:208F4000000401403EB504000D000121E4B21C4850F82400FFF784FBE4B21E4830F8140093
:208F6000ADF8000004208DF8030000A9E4B21A4850F82400FFF76EF8EDB2012D1ED1E4B2E5
:208F8000104830F81410C9B2E4B20F4830F81400C0B2FFF70DF9E4B20C4830F81400019064
:208FA00000208DF80800E4B20948205C8DF8090001208DF80A0001A8FFF776FF37BD00BF9C
:208FC00070980008A09900089E9900089C990008A49900089A990008184B002010B582B0CA
:208FE00004000121E4B20C4850F82400FFF738FBE4B21C4830F81400ADF8000010208DF83C
:020000040800F2
:020000020000FC
:20900000030003208DF8020000A9E4B2164850F82400FFF71FF813BD74980008C0B21249DC
:2090200051F82010C0B20F4A32F810200A617047C0B20D4951F82010C0B20A4A32F810200F
:209040004A617047C0B2084951F82010C968C0B2044A32F810205140C0B2034A52F820204D
:20906000D1607047A29900081C4B002080F308887047EFF309801D4B1A6820E9F00F1060B7
:2090800008B54FF0BF0080F31188FCF7A1FB4FF0000080F31188BDE8084019680868B0E8B9
:2090A000F00F80F30988704701B44FF0BF0080F3118801BC704701B44FF0000080F31188C3
:2090C00001BC7047094B19680868B0E8F00F80F309884FF0000080F311884EF00D0E7047E1
:2090E00003480068006880F3088800DFBC49002008ED00E080B500F00DF8FEF72FFE012804
:2091000001D100F021F80020FDF7FAFFFCF772FA002002BD80B501217D20FFF7A1FA4FF461
:2091200040515FF00060FFF7EFFD4FF44070FFF7A3FD0420FFF7F2FD0020FDF7D1FF002077
:2091400000F09CFB01BD000080B5FEF7EDFAFEF700FB0549087000210448FEF763FB0249F8
:209160000870FEF7EDFA01BD264A002004F8FF1FFEE70000F0B492B212F1010C5FEA6C0C95
:20918000634689B2DFF85CC01CEB410C67461C00002C0ED090F800C06546401C90F800C03A
:2091A00055EA0C2C66463E80BF1CBF1C401C641EEEE7F0BC704770B492B2561C761033006F
:2091C00089B2084E16EB410635001C00002C06D02E6806802D1D401C401C641EF6E770BCBA
:2091E000704700000060004080B5164816490968018014480088154909880840400506D5F9
:2092000011484FF6FF3101601148406880470D4800880E4909880840800508D50A484FF651
:20922000FF5101600B480078401C0A49087005480088064909880840000401D5FDF708FDBB
:2092400001BD00BF1A4A0020445C0040144A0020284A0020244A00204AB38B0707D011F820
:20926000013B00F8013B521E21D08B07F7D183071ED1103A07D330B4B1E83810103AA0E88F
:209280003810F9D230BC530724BFB1E80810A0E8081044BF51F8043B40F8043BD20724BF83
:2092A00031F8022B20F8022B44BF0B7803707047083A07D3B1E80810083A40F8043B40F8A5
:2092C00004CBF7D25307E4E701B58B0718D1121F21D351F8043BA3F1013C2CEA030C1CF0F1
:2092E000803C04BF40F8043BF1E79CFA8CFCBCFA8CF1C1F118018B40CB4040F8043B13E044
:20930000042A09D311F8013B521E00F8013B5BB18B07F7D1DBE7121D5AB111F8013B521E43
:2093200000F8013B03B1F8D111001CBF002200F005F801BD62F30F2262F31F42401810F02F
:20934000030308D0C91A1FD3DB0748BF00F8012D28BF20F8022D130030B414461546103928
:2093600028BF20E93C00FAD8490728BF20E90C0048BF40F8042D890028BF20F8022D48BF75
:2093800000F8012D30BC7047C91818BF00F8012DCB0728BF00F8012D70470000030000206D
:2093A00013F0030F09D0521E22BF13F8010B11F801CBB0EB0C00F3D07047121F22BF53F804
:2093C000040B51F804CB6045F7D0121D0AD200BA9CFA8CFCB0EB0C0038BF6FF0000088BFD3
:2093E00001207047521E22BF13F8010B11F801CBB0EB0C00F6D0521C08BF104670470000A9
:20940000F446400D40EAC120490006D200F013F8004248BF6FF00040604700F00CF84FF0DC
:20942000004188428CBF084640426047400D40EAC12049000CD240F00040490DA1F58061A3
:20944000491C05D4D1F11F0154BFC840C01770474FF000007047000009024300020100C03C
:20946000320904000001020201000524001001052401000104240202052406000107058258
:20948000030800FF09040100020A00000007050302400000070581024000000042035300F0
:2094A00054004500560041004C002D004D004B004900300036003200560032002000690079
:2094C0004E0045004D003000200050006C006100740066006F0072006D00200020000000D7
:2094E0004100090E7F3915D4D1F11F0114D4400007D2C00140F00040C84048BF6FF00040B1
:209500007047C00140F00040C8404CBF4FF00040404270470020704700424FF0004058BFE9
:20952000C043704780B50948094901600748006802210172074808490160084808490160E8
:20954000044800680068804701BD00BFFC490020A4480020004A0020284A0020044A0020D0
:20956000584A0020012001000D4889B201600A48002202800A48084A12880260074800220F
:20958000026005484FF4E05202800548024A128802600020704700BF144A0020445C00409C
:2095A000405C004062F30F2262F31F4200B5130096469446103928BFA0E80C50FAD85FEAE6
:2095C000417C28BF0CC048BF40F8042BC90728BF20F8022B48BF00F8012B00BD002840F170
:2095E0000880F446404200F004F850F00040604700280AD0B0FA80F18840D1F19D01C90501
:20960000020672F1004241EB1020704780B50320FDF7AFF9064908600548026892B24FF4A1
:2096200088710448FFF7C7FD0320FDF7DBF801BDF84900206448002070470000010040F16D
:209640000880F446404200F004F851F000416047010009D0B0FA80F18840C91CC1F5846174
:20966000090501EBD0214005704700002603530054004D006900630072006F0065006C0068
:2096800065006300740072006F006E00690063007300000010B409E050F8041B50F8042B75
:2096A00051F8044B42F8044B1B1FF9D150F8043B002BF1D110BC70476B9700082846000016
:2096C0000004002000000000959600080C010000A8990008284A00200000000010B5054839
:2096E000054CA04204D050F8041B8847A042FAD110BD00BFB8960008DC960008694E454DDB
:209700004F204669726D776172655F56657273696F6E5F312E350000694E454D4F20486104
:209720007264776172655F56657273696F6E5F310000000000B5054A1068002804D0110046
:209740000220ABBE0020106000BD00000C4A00207047FEE7FEE7FEE7FEE7704780B5FBF792
:209760009BFB01BD704770477047002305E050F8041B41F8043B121FFBD150F8042B002AEB
:20978000F5D1704700F006F9002801D0FFF7A6FF0020FFF7AFFC00F068F8000070B504008F
:2097A0000D001600320029002000FFF755FD200070BD70B504000D0016002A0031002000AF
:2097C000FFF7B8FD200070BD694E454D4F20414852532044495341424C450000A5A5A5A503
:2097E000A5A5A5A5A5A5A5A5A5A5A5A5A5A5A5A512010002020000408304077000020102BF
:209800000301000080B5FFF795FF024A11001820ABBEFBE726000200010000000A00000072
:20982000190000003200000001488047014800475189000885970008694E656D6F436D642B
:2098400000000000694E656D6F4461746100000007463846FFF7D6FFFBE7000049444C4500
:20986000000000000022FFF7A1BE80B5FFF7F0BF10000000080000000403090470470000B4
:20988000FFF766BFFFF765BFFFF764BFFFF763BFFFF762BFFFF7FEBFFFF75FBFFFF7FEBFD1
:2098A000FFF7FEBFFFF7FEBFFFF7FEBFFFF7FEBFFFF7FEBFFFF7FEBFFFF7FEBFFFF7FEBF10
:2098C000FFF750BFFFF7FEBFFFF74DBFFFF7FEBFFFF7FEBFFFF7FEBFFFF7FEBFFFF7FEBF4F
:2098E000FFF7FEBFFFF7FEBFFFF7FEBFFFF7FEBFFFF7FEBFFDF7CEBCFFF7FEBFFFF7FEBF05
