:020000040800F2
:020000020000FC
:20300000000400202DBC000869BB00086BBB00086DBB00086FBB000871BB000800000000AB
:20302000000000000000000000000000DDB3000873BB0008000000008BB30008BDAF000808
:20304000C7BC0008CBBC0008CFBC0008D3BC0008D7BC0008DBBC0008DFBC00087DBB00080F
:20306000E7BC00087FBB0008EFBC0008F3BC0008F7BC0008FBBC0008FFBC000803BD0008F4
:2030800007BD00080BBD00080FBD000813BD00082F8800081BBD00081FBD000881BB000821
:2030A00027BD00082BBD00082FBD000833BD0008618800083BBD00083FBD000843BD00084B
:2030C00047BD00084BBD00084FBD000853BD000857BD00085BBD00085FBD000863BD000820
:2030E00067BD00086BBD00086FBD000873BD000877BD00087BBD00087FBD000883BD000800
:2031000087BD000875BB00088FBD000893BD000897BD00089BBD00089FBD0008A3BD0008F7
:20312000A7BD0008ABBD0008AFBD0008B3BD000830B589B00400DFF80C06007800282AD121
:20314000DFF80406807800281ED1DFF8FC050078202814D1DFF8F005407801280FD1DFF89E
:20316000E8054078801C844209D1DFF8D8050121017000220121002000F05EFFDFE2042190
:20318000002000F093FFDAE20521DFF8BC05807800F08CFFD3E2DFF8B005807800282ED041
:2031A00001284BD0022868D0032800F08B80072800F0EA80082800F0A480102800F0C88006
:2031C000122800F00881132800F02E81142800F04781152800F09781172800F05D811828DC
:2031E00000F07681502800F0C381512800F02A82522800F05C82532800F078829AE2DFF827
:2032000048050078202814D1DFF83C05407801280FD1DFF834054078801C844209D1DFF808
:2032200024050121017000220121002000F004FF85E20421002000F039FF80E2DFF8080561
:203240000078202814D1DFF80005407801280FD1DFF8F4044078801C844209D1DFF8E404AA
:203260000021017000220121012000F0E5FE66E20421012000F01AFF61E2DFF8CC0400788B
:2032800020281AD1DFF8C0044078012815D1DFF8B8044078801C84420FD1002201210220A6
:2032A00000F0CAFE4FF4FA7003F08CF8DFF894040021017006F021F941E20421022000F0C7
:2032C000F5FE3CE2DFF880040078202814D1DFF87804407801280FD1DFF86C044078801C2E
:2032E000844209D100220121032000F0A5FE06F00BF906F002F922E20421032000F0D6FE39
:203300001DE2DFF84404007820281CD1DFF838044078022817D1DFF830044078801C8442E0
:2033200011D1DFF82404C078002803D0002007F071FF02E0002007F077FF00220121082017
:2033400000F07AFEFBE10421082000F0AFFEF6E1DFF8F4030078202811D1DFF8EC0340787A
:2033600001280CD1DFF8E0034078801C844206D1DFF8C02C0221102000F05EFEDFE1042155
:20338000102000F093FEDAE1DFF8BC03007820281CD1DFF8B4034078022817D1DFF8A803A4
:2033A0004078801C844211D1DFF89C03C078002803D0012000F004FF02E0002000F000FF63
:2033C00000220121072000F037FEB8E10421072000F06CFEB3E1DFF87003007820281ED191
:2033E000DFF864034078012819D1DFF85C034078801C844213D1002108000C2809DAD0F18F
:203400000C01491EDFF8602D895C05AA8154401CF3E705AA0D21122000F00EFE8FE1042195
:20342000122000F043FE8AE1C7480078202812D1C548407801280ED1C3484078801C84421A
:2034400009D1DFF85C2D012010F11C01C9B2132000F0F2FD73E10421132000F027FE6EE156
:20346000B9480078202812D1B748407801280ED1B5484078801C844209D1DFF8402D012093
:2034800010F11B01C9B2142000F0D6FD57E10421142000F00BFE52E1AB480078202812D14A
:2034A000A948407801280ED1A7484078801C844209D1DFF8142D012010F11801C9B2172073
:2034C00000F0BAFD3BE10421172000F0EFFD36E19D480078202811D19B48407801280DD1B1
:2034E00099484078801C844208D109208DF8040001AA0221182000F09FFD20E10421182056
:2035000000F0D4FD1BE19048007820282BD18E484078012827D18C484078801C844222D1CA
:20352000002007F077FE002108000C2809DAD0F10C01491EDFF8302C895C02AA8154401C95
:20354000F3E702AA0D21152000F076FD00200500072D80F2F480002007F070FE322002F017
:2035600031FF6D1CF4E70421152000F09FFDE6E075480078202860D17348407805285CD190
:2035800071484078801C844257D16F480079C021084252D16C48C078000601D5012000E0E9
:2035A0000020C0B200F0FEFD6748C078800601D5012000E00020C0B200F0F7FD6248C078F2
:2035C000DFF8081C087000F0F3FD002804D0DFF8000C0321017006E05B480079C0F3C200AD
:2035E000DFF8EC1B08705848007910F00300DFF8E41B0870DFF8D80B0078042804D2DFF800
:20360000D40B0078012804D30221502000F04EFD95E0DFF8BC0B007800F05CFD4A48407966
:203620004949897911EB0020DFF8AC1B088000220121502000F000FD81E00421502000F02D
:2036400035FD7CE04048007820282BD13E484078012827D13C484078801C844222D1DFF8D1
:203660006C0B00788DF80000DFF8640B0078DFF8641B097811F0070111EBC0008DF80100F6
:20368000DFF8540B008880B2000A8DF80200DFF8480B00888DF8030000AA0521512000F03E
:2036A000CBFC4CE00421512000F000FD47E026480078202815D124484078012811D12248C0
:2036C0004078801C84420CD1DFF8100B0021018000220121522000F0AFFC012000F046FDBA
:2036E0002DE00421522000F0E1FC28E01648007820281AD114484078012816D11248407812
:20370000801C844211D1002000F030FD01215FF0804006F026FFDFF8C40A00210180002273
:203720000121532000F088FC09E00421532000F0BDFC04E001210448807800F0B7FC09B0B0
:2037400030BD0000A94B0020EC4900202DE9F0479EB004000D00002006000EA83C2108F036
:2037600093FADFF8780A0088DFF86C1A0988884205D3DFF8640A0088002840F0558400F05D
:2037800017FD002800F0A482A81D05F089FA280003F053FE15F10C0003F0EEFEE0065AD528
:2037A00000F009FD002815D0F6B20EA83018811C280007F076F9F6B20EA83018011DA81CAD
:2037C00007F06FF9F6B20EA83018811D281D07F068F93FE0B5F9000008F07AF8A96907F069
:2037E00087F807F0F5FFB5F84410401AADF83000B5F9020008F06CF8E96907F079F807F072
:20380000E7FFB5F84610401AADF83200B5F9040008F05EF8296A07F06BF807F0D9FFB5F825
:203820004810401AADF83400F6B20EA83018811C0CA807F036F9F6B20EA83018011D0DF11E
:20384000320007F02EF9F6B20EA83018811D0DA807F027F9B61D20076ED500F0ACFC00280B
:2038600017D0F6B20EA83018811CA81D07F019F9F6B20EA83018011D15F1080007F011F97D
:20388000F6B20EA83018811D15F10A0007F009F951E0B5F9060008F01BF8696A07F028F801
:2038A0008246B5F94A0008F013F80100504607F007FA07F08DFFADF82800B5F9080008F0B8
:2038C00007F8A96A07F014F88246B5F94C0007F0FFFF0100504607F0F3F907F079FFADF88E
:2038E0002A00B5F90A0007F0F3FFE96A07F000F88246B5F94E0007F0EBFF0100504607F088
:20390000DFF907F065FFADF82C00F6B20EA83018811C0AA807F0C5F8F6B20EA83018011D36
:203920000DF12A0007F0BDF8F6B20EA83018811D0BA807F0B6F8B61D600766D500F03BFC7B
:20394000002818D0F6B20EA83018811C15F10C0007F0A7F8F6B20EA83018011D15F10E0094
:2039600007F09FF8F6B20EA83018811D15F1100007F097F848E0B5F90C004FF47A7148433E
:2039800007F0A6FF296B06F0B3FF07F021FFB5F85010401AADF82000B5F90E004FF47A7122
:2039A000484307F095FF696B06F0A2FF07F010FFB5F85210401AADF82200B5F910004FF44F
:2039C0007A71484307F084FFA96B06F091FF07F0FFFEB5F85410401AADF82400F6B20EA8D7
:2039E0003018811C08A807F05CF8F6B20EA83018011D0DF1220007F054F8F6B20EA830181A
:203A0000811D09A807F04DF8B61DA0072CD515F1140004F071F800F0CEFB002808D0F6B2C8
:203A20000EA83018811C15F1140007F044F81AE0A88A07F057FFE96B06F05AFF8246B5F90C
:203A4000560007F045FF0100504607F039F907F0BFFEADF80600F6B20EA83018811C0DF175
:203A6000060007F028F8B61CE00722D500F0A3FB00280CD015F1120005F04FFCF6B20EA831
:203A80003018811C15F1120007F00BF810E015F1120005F055FC688AB5F85810401AADF8DB
:203AA0000400F6B20EA83018811C01A806F0F9FFB61CB5F9020007F00BFF07F0F9FD0200B6
:203AC0000B00DFF81C07DFF81C1705F0A1FE0022DFF8143704F0B6FC07F0C6FB6867B5F924
:203AE000000007F0F5FE07F0E3FD02000B00DFF8F006DFF8F01605F08BFE0022DFF8E836B9
:203B000004F0A0FC07F0B0FBA867B5F9040007F0DFFE90F0004007F0CBFD02000B00DFF87B
:203B2000C006DFF8C01605F073FE0022DFF8B83604F088FC07F098FBE867B5F9060007F0C9
:203B4000C7FE07F0B5FD02000B00DFF8A006DFF8A01605F05DFEDFF89C26DFF89C3604F05A
:203B600071FC07F081FBC5F88400B5F9080007F0AFFE07F09DFD02000B00DFF87006DFF808
:203B8000701605F045FEDFF86C26DFF86C3604F059FC07F069FBC5F88000B5F90A0007F0F5
:203BA00097FE90F0004007F083FD02000B00DFF83C06DFF83C1605F02BFEDFF84026DFF8B8
:203BC000403604F03FFC07F04FFBC5F88800B5F90C0007F07DFEDFF82C1606F089FEC5F83B
:203BE0009000B5F90E0007F073FEDFF8181606F07FFEC5F88C00B5F9100007F069FE90F0B4
:203C00000040DFF8041606F073FEC5F8940015F15C0215F1E00115F16C0001F073FFD5F8CE
:203C2000E010DFF8E80507F0BDF8DFF8E41506F05FFE8146D5F8E410DFF8D00507F0B2F82C
:203C4000DFF8CC1506F054FE8046D5F8E810DFF8BC0507F0A7F8DFF8B81506F049FE0700C3
:203C6000F6B20EA83018811C484606F02EFFF6B20EA83018811D404606F027FFF6B20EA80C
:203C8000301810F10A01380006F01FFFF6B20EA8301810F10E01E86D06F017FFF6B20EA80F
:203CA000301810F11201286E06F00FFFF6B20EA8301810F11601686E06F007FFF6B20EA820
:203CC000301810F11A01A86E06F0FFFE1C3694E1E0065DD5280003F0B0FB00F06CFA002854
:203CE00015D0F6B20EA83018811C280006F0D9FEF6B20EA83018011DA81C06F0D2FEF6B2B1
:203D00000EA83018811D281D06F0CBFE3FE0B5F9000007F0DDFDA96906F0EAFD07F058FD2A
:203D2000B5F84410401AADF81800B5F9020007F0CFFDE96906F0DCFD07F04AFDB5F8461096
:203D4000401AADF81A00B5F9040007F0C1FD296A06F0CEFD07F03CFDB5F84810401AADF85B
:203D60001C00F6B20EA83018811C06A806F099FEF6B20EA83018011D0DF11A0006F091FE48
:203D8000F6B20EA83018811D07A806F08AFEB61D200771D5A81D04F083FF00F00CFA002819
:203DA00017D0F6B20EA83018811CA81D06F079FEF6B20EA83018011D15F1080006F071FE70
:203DC000F6B20EA83018811D15F10A0006F069FE51E0B5F9060007F07BFD696A06F088FD90
:203DE0000700B5F94A0007F073FD0100380006F067FF07F0EDFCADF81000B5F9080007F086
:203E000067FDA96A06F074FD0700B5F94C0007F05FFD0100380006F053FF07F0D9FCADF87E
:203E20001200B5F90A0007F053FDE96A06F060FD0700B5F94E0007F04BFD0100380006F05A
:203E40003FFF07F0C5FCADF81400F6B20EA83018811C04A806F025FEF6B20EA83018011DE7
:203E60000DF1120006F01DFEF6B20EA83018811D05A806F016FEB61D60076AD515F10C009B
:203E800003F07AFB00F097F9002818D0F6B20EA83018811C15F10C0006F003FEF6B20EA880
:203EA0003018011D15F10E0006F0FBFDF6B20EA83018811D15F1100006F0F3FD48E0B5F984
:203EC0000C004FF47A71484307F002FD296B06F00FFD07F07DFCB5F85010401AADF808000D
:203EE000B5F90E004FF47A71484307F0F1FC696B06F0FEFC07F06CFCB5F85210401AADF838
:203F00000A00B5F910004FF47A71484307F0E0FCA96B06F0EDFC07F05BFCB5F85410401AA1
:203F2000ADF80C00F6B20EA83018811C02A806F0B8FDF6B20EA83018011D0DF10A0006F076
:203F4000B0FDF6B20EA83018811D03A806F0A9FDB61DA0072CD515F1140003F0CDFD00F0E7
:203F60002AF9002808D0F6B20EA83018811C15F1140006F0A0FD1AE0A88A07F0B3FCE96B08
:203F800006F0B6FC0700B5F9560007F0A1FC0100380006F095FE07F01BFCADF80200F6B2BB
:203FA0000EA83018811C0DF1020006F084FDB61CE00722D500F0FFF800280CD015F112003C
:203FC00005F0ABF9F6B20EA83018811C15F1120006F067FD10E015F1120005F0B1F9688AFA
:203FE000B5F85810401AADF80000F6B20EA83018811C00A806F055FDB61C78480088401C04
:20400000764908807548008880B2000A8DF83800724800888DF83900B61C0EAA711CC9B289
:20402000522000F026F802E0002000F09FF81EB0BDE8F087AA4B002070B588B004000D000A
:20404000160080208DF800008DF801508DF80240EDB2022D06D36A1ED2B20DF103013000A3
:2040600006F015FDA91CC9B200A805F0A5FA08B070BD70B59AB004000D00160040208DF85C
:2040800000008DF801508DF80240EDB2022D06D36A1ED2B20DF10301300006F0F8FCA91CEF
:2040A000C9B200A805F088FA1AB070BD30B589B004000D00C0208DF8000002208DF8010033
:2040C0008DF802408DF80350042100A805F074FA09B030BD70B58AB0040005A84D49102293
:2040E00007F051FAE4B2042C04D2E4B205A850F8246000E0322602A806F0E6F9464890FB03
:20410000F6F0050001AA0DF10601280006F06EFCBDF80400401EADF80C00BDF80600401E9B
:20412000ADF808000020ADF80E000020ADF80A0002A95FF0804006F073F901215FF08040E3
:2041400006F0E6F91C208DF8000000208DF802000D208DF8010001208DF8030000A806F028
:2041600092FE0AB070BD0000E8F7FF1F10B5040001215FF0804006F0F4F92200D2B2012126
:204180005FF0804006F0B9F92100C9B25FF0804006F0A6F910BD0D480078704700000000D7
:2041A000F4BA00081D49087070471D49087070471A48007870471A480078704714BB000826
:2041C000184908707047000030BB000810050020AC4B0020A84B00209E4B00209C4B0020ED
:2041E0009A9999999999234000408F406811F16346DF913F85EB51B81E8510407B14AE4704
:20420000E17A124000E0834400806D4400003443D80F49401CBC000800A24A04AD4B00204A
:20422000AE4B0020AB4B002010B50400A4B2002C06D1DFF8E80B006801210182002008E04E
:20424000DFF8DC0B006800688047DFF8D00B00680A3010BD80B5DFF8CC0B4078DFF8BC1B9F
:204260000968C97888421AD3DFF8B00B00688078002814D1DFF8A40B0068808800280ED1D9
:20428000DFF8980B0068DFF8941B0968C9788172DFF88C0B006840688047002000E00220AA
:2042A00002BD10B50400A4B2002C06D1DFF86C0B006801210182002008E0DFF8640B00680C
:2042C00080688047DFF8540B00680C3010BD10B5DFF8480B0068C178DFF8400B00684079B5
:2042E000DFF8C82B1268926990470400DFF82C0B0068807A00282AD0E4B2002C0BD1DFF89D
:204300001C0B00680079002805D1DFF8100B00688078002801D002201AE0E4B2002C16D187
:20432000DFF8FC0A0068C0688047DFF8F00A0068DFF8E81A09684979C172DFF8E00A0068A8
:20434000DFF8D81A0968C9780173002000E0022010BD10B50400A4B2002C06D1DFF8BC0AC0
:20436000006802210182002081E0DFF8440B00210180DFF8A80A006800787F2108422BD197
:20438000DFF8981A0968497A0800810608D5DFF8201B097851F00201DFF8142B117007E09F
:2043A000DFF80C1B097811F0FD01DFF8042B1170410608D5DFF8F81A097851F00101DFF850
:2043C000F02A11704CE0DFF8E81A097811F0FE01DFF8DC2A117043E0DFF8400A006800783A
:2043E00010F07F00012802D1DFF8C40A3FE0DFF82C0A0068007810F07F0002282ED1DFF812
:204400001C2A12685279110011F00F0210000A0611D5C0B2DFF89C2A52F8202012F030021B
:20442000102A1DD1DFF8882A127852F00102DFF8803A1A7014E0C0B2DFF8782A52F8202078
:2044400012F44052B2F5805F0AD1DFF8642A127852F00102DFF8583A1A7001E0002006E055
:20446000DFF8BC09006800698047DFF8440A10BD2DE9F843DFF8A4090068007810F07F00E2
:204480000400002C0BD1DFF894090068407A10F0DF00DFF888190968487200209CE0022C2E
:2044A00040F09980DFF8740900684088002805D1DFF8680900680079002801D002208BE082
:2044C000DFF860090600DFF8540900684079804638F0800081464F46DFF840090068407936
:2044E000000607D5DFF8CC0950F8270010F03000050006E0DFF8BC0950F8270010F4405005
:2045000005003078814507D2002D05D0DFF80C090068807A002801D102205DE0404600061A
:2045200011D5DFF8900950F8270010F0300010284AD13800C0B203F07AFC30213800C0B225
:2045400003F0DBFB40E0DFF86C0950F8270010F44050B0F5805F37D1002F1DD1DFF8580942
:2045600090F82C1089B23800C0B203F0C3FCDFF8441951F827104BF68F721140080090F40D
:20458000805090F40050DFF82C1948F28002104380B241F8270017E03800C0B203F02FFCFB
:2045A000DFF8101951F827104BF68F721140080090F4805090F40050DFF8F81848F2800215
:2045C000104380B241F82700DFF85408006840698047002000E00220BDE8F283F8B5DFF82B
:2045E0003C0800684079040034F0800006003500DFF8280800684079000607D5DFF8B408D6
:2046000050F8250010F03000070006E0DFF8A40850F8250010F440500700DFF80808007826
:2046200085420DD2DFF8F40700684088002807D1002F05D0DFF8E4070068807A002801D1B0
:2046400002202DE02000000612D5DFF8681851F8251048F6BF721140080090F01000DFF81A
:20466000541848F28002104380B241F8250011E0DFF8401851F825104BF68F7211400800F6
:2046800090F48050DFF82C1848F28002104380B241F82500DFF8880700688069804700206E
:2046A000F2BD80B5DFF874070068407A50F02000DFF8681709684872DFF864070068C069EE
:2046C0008047002002BD10B40200DFF850070068408A030092B2002A07D18888C01ADFF804
:2046E0003C4724682082002001E00868181810BC7047F8B5DFF824070068103004002088E2
:204700000500A06800281BD0002D19D0A0880700BD4200D22F00380080B2A16888470600EC
:204720002088C01B2080608838186080002003F0C7FB3A0092B2010089B2300006F0C5FEC6
:20474000208800280CD0DFF874074FF4405101800021002003F0C1FBDFF864073021018002
:204760002088A188884205D3DFF8B0060068032101721DE02088012805D3DFF8A0060068AF
:204780000521017214E02088002811D1DFF88C06006806210172DFF82C07006880B2DFF8F4
:2047A0002817002241F81020DFF8140730210180F1BD2DE9F041DFF8640600681030040089
:2047C00020880500DFF854060068007A0600002D21D1042E1FD1DFF8F4060078012813D17C
:2047E000DFF8E006006880B2DFF8DC16002241F81020DFF8CC063021018004200600DFF892
:20480000CC060021017005E007200600DFF8B006102101802EE0A0888046A84501D30426FC
:2048200000E00226454500D2A846404680B2A16888470700002003F036FB424692B201007E
:2048400089B2380006F020FE414689B2002003F044FB2088B0EB08002080608818EB0000E7
:204860006080DFF85C0630210180DFF850064FF440510180DFF8A40500680672BDE8F08155
:2048800070B502200400DFF89405006840780500DFF88805006800787F2108425BD1092DA8
:2048A00003D1FFF7D7FC040079E0052D1DD1DFF86C050068C078802811D2DFF860050068C7
:2048C000807800280BD1DFF8540500688088002805D1DFF848050068807A002802D0082096
:2048E000060082E00020040059E0032D18D1DFF82C050068C07801280FD1DFF820050068C5
:204900008088002809D1DFF814050068407A800603D5FFF7C6FE040041E0022004003EE0FA
:20492000012D3CD1DFF8F4040068C07801280FD1DFF8E80400688088002809D1DFF8DC04D8
:204940000068407A800603D5FFF792FD040026E00220040023E0DFF8C4040068007810F0A0
:204960007F00012805D10B2D19D1FFF7B0FC040015E0DFF8A8040068007810F07F000228F0
:204980000BD1012D03D1FFF773FD040007E0032D05D1FFF723FE040001E002200400E4B22A
:2049A000002C0DD02800C0B2DFF800150968496988470400E4B2032C02D10920060014E0B7
:2049C000E4B2002C02D0082006000EE006200600DFF8F004006880B2DFF8EC14002241F864
:2049E0001020DFF8DC0430210180DFF830040068067270BD2DE9F04782B0DFF82004006804
:204A0000407806000020040000208146062E28D1DFF80804006800787F21084240F0D18072
:204A2000DFF8F813096889780800C0B2012805D1DFF878140968C9690C00C2E0C0B2022859
:204A400005D1DFF868140968096A0C00B9E0C0B2032840F0B680DFF854140968496A0C0032
:204A6000AFE0002E78D1DFF8B40300684088002872D1DFF8A8030068C08802286CD1DFF897
:204A80009C0300680079002866D1DFF89003006800787F21084209D1DFF88003006880885F
:204AA000002803D1DFF8280404008AE0DFF86C030068007810F07F00012815D10021DFF8DD
:204AC0005C0300684079DFF8E423126892699047002876D1DFF844030068807A002870D0D5
:204AE000DFF8EC0304006CE0DFF830030068007810F07F00022864D1DFF8200300684079BD
:204B000010F00F000700DFF814030068407910F070008046C14800684079000607D5DFF857
:204B2000940350F8270010F03000824606E0DFF8840350F8270010F440508246B9480078EF
:204B400087423ED2B8F1000F3BD1BAF1000F38D0DFF87C03040034E0082E09D1AF48006819
:204B600000787F2108422CD1DFF86803040028E00A2E26D1A9480068007810F07F000128E0
:204B80001FD1A6480068807A00281AD0A34800684088002815D1A14800680079002810D1C7
:204BA0009E480068C08801280BD100219B4800684079BE4A126892699047002801D1C648D9
:204BC0000400200000280BD094480068A0F812909248006884610020A047002005000FE0EE
:204BE0008E4800684078B1490968096988470500EDB2032D04D1894800680921017264E050
:204C000086480068008A4FF6FF71884204D1834800680921017258E0EDB2022D04D07F480F
:204C20000068008A002804D17C480068082101724BE07A480068007800063ED577480068B0
:204C4000C0880090009875490968098A884204D2724800680099018225E070480068008A95
:204C60006E490968C98888421DD26C480068008A8E49096891F82C1089B2884203D293489A
:204C8000002101700FE065480068008A8749096891F82C1090FBF1F201FB1200002802D177
:204CA0008A48012101705D4800688049096891F82C108182FFF77DFD07E0584800680321FD
:204CC00001727E484FF440510180BDE8F38738B50120050081487B49096889B2804A32F8E7
:204CE000111010EB410004004C480068007A092826D04A48006821780170641C474800683B
:204D000021784170641CADB214EB45042000841C008803F02FF9414909684880ADB214EB9E
:204D200045042000841C008803F024F93B4909688880ADB214EB4504384800682188C1805C
:204D4000364800680121017234480068C088002802D1FFF795FD01E0FFF74CFE00F064F8BC
:204D600032BD10B52D480068007A0400022C01D0042C06D1FFF71DFD28480068007A0400B8
:204D80001EE0062C1AD125480068407805280ED12248006800787F21084208D11F48006883
:204DA000C07800F05FF81E480068006A80473F480068806880470820040001E0082004009E
:204DC00016480068047200F02FF810BD10B513480068007A0400022C01D0042C02D1082083
:204DE000040015E0032C01D0052C06D1FFF781FC0A480068007A04000AE0072C06D12B48A0
:204E00000068C06880470820040001E00820040002480068047200F007F810BD8C4B002027
:204E2000944B00200C05002080B5234890F82C1089B2002003F05EF82A480068007A0828B6
:204E400006D11E484FF4805101801D481021018024480068007A092801D1012000E00020F7
:204E6000C0B202BD30B4204B1B781A0000231900914214D20B00DBB20E4C54F8233048F641
:204E80008F7423400C00E4B2234348F2800423430C00E4B2074D45F82430491CE8E7C0B253
:204EA00050F08003114C236030BC7047904B0020844B0020005C004000040020A24B0020F5
:204EC000A44B0020505C004004600040AF4B00205343000829420008A3420008006000407B
:204EE000086000408C4B00200C0500204C5C00407047000010B52A20040000F045FD0121DC
:204F00004FF4806005F0A7F90121022005F0A3F904F0EEFE00F02FF80400E4B22A2C02D04B
:204F20002000C0B226E000F04BF90400E4B22A2C02D02000C0B21DE0DFF8280401210175B9
:204F4000DFF8200400210160DFF8180400214160DFF8100400218160DFF808040021C1600D
:204F6000DFF8000400210161DFF8F80304F0DCFE2000C0B210BD2DE9F0412A20040000201F
:204F80000500002006000020070000208046DFF8D403B2210175DFF8CC0300210160DFF8E3
:204FA000C40300214160DFF8BC0300218160DFF8B4030021C160DFF8AC0300210161DFF820
:204FC000A40304F0B1FE032004F0C8FE012004F0C1FEDFF8940300210160DFF88C0300215F
:204FE0004160DFF8840300218160DFF87C030021C160DFF874034FF480610161DFF8680302
:020000040800F2
:020000020000FC
:2050000004F0CCFE00F02BFB0400E4B22A2C02D02000C0B2D2E0DFF850034FF4D5710160A2
:20502000DFF8440308214160DFF83C0340218160DFF834030021C160DFF82C034FF48061B6
:205040000161DFF8240304F0A9FE00F025FB0400E4B22A2C07D1DFF81403012101605FF0BD
:20506000804080461CE0DFF8000300210160DFF8F80237214160DFF8F00240218160DFF8A6
:20508000E8020021C160DFF8E0024FF480610161DFF8D40204F082FE372000F035FB040009
:2050A000DFF8C40200210160DFF8BC0237214160DFF8B40240218160DFF8AC020021C160AD
:2050C000DFF8A4024FF480610161DFF89C0204F065FE372000F018FB0400E4B22A2C6BD17B
:2050E000FFB2002F57D14FF6FF70864253D2DFF8780200210160DFF8700237214160DFF81B
:20510000680240218160DFF860020021C160DFF858024FF480610161DFF84C0204F03EFE5C
:20512000372000F0F1FA0400E4B22A2C02D02000C0B243E0DFF8380250EA0800DFF8281262
:205140000860DFF8240229214160DFF81C0240218160DFF814020021C160DFF80C024FF471
:2051600080610161DFF8000204F018FE00F05CFB0400E4B22A2C02D02000C0B21EE0002050
:2051800004F025FE0500E80F012801D1012700E00027761CA4E74FF6FF70864204D31B2027
:2051A00004002000C0B209E015F08045002D03D0DFF8B801022101602000C0B2BDE8F081EA
:2051C00010B582B02A2004000120ADF8000004F0D1FD002804D1252004002000C0B2C0E08A
:2051E000DFF888010068042839D0DFF87C0100210160DFF8740102214160DFF86C01C021A7
:205200008160DFF864010021C160DFF85C014FF480610161DFF8500104F0C0FD00F026FB8B
:205220000400E4B22A2C02D02000C0B299E0002004F0CDFDDFF83C110860042004F0C7FD5B
:20524000DFF830114860082004F0C1FDDFF8241188600C2004F0BBFDDFF81811C860DFF8E9
:205260000C01006800280ED0DFF800010068012809D0DFF8F8000068062804D0DFF8EC0075
:205280000068022823D1DFF8E00000210160DFF8D80003214160DFF8D00040218160DFF81B
:2052A000C8000021C160DFF8C0004FF480610161DFF8B40004F072FD00A9032000F006FB1C
:2052C0000400E4B22A2C02D02000C0B249E0DFF89C000068042840D0DFF89C00BDF8001002
:2052E0000160BDF800000004DFF87C100860DFF8780009214160DFF87000C0218160DFF8CF
:2053000068000021C160DFF860004FF480610161DFF8540004F042FD00F0A8FA0400E4B29C
:205320002A2C02D02000C0B21BE0002004F04FFDDFF848100860042004F049FDDFF83C1040
:205340004860082004F043FDDFF8301088600C2004F03DFDDFF82410C8602A20040020004F
:20536000C0B216BD484A0020604A00202C4B002000001080E84A0020304B0020D84A002016
:2053800010B52A200400DFF8FC0500210160DFF8F4050C214160DFF8EC0540218160DFF821
:2053A000E4050021C160DFF8DC054FF480610161DFF8D00504F0F2FC0C2000F0A5F9040038
:2053C0002000C0B210BD38B50020040000200500DFF8AC050068012840F082804FF400406A
:2053E00004F017FD00281BD000200400082C08D204F0F8FCDFF8CC15096841F82400641C72
:20540000F4E7DFF8C00500682030DFF8B8150860DFF8B40500682030DFF8AC1508605FE0CA
:205420004FF4804004F0F5FC002859D0B5480068DFF894150968401A202836D2B1480068D2
:20544000DFF884150968401A0421B0FBF1F202FB1102002A07D1AB480068DFF86C15096828
:20546000401A850807E0A7480068DFF85C150968401A8008451C00200400AC4230D2DFF820
:205480004C050068006804F0B0FC641CDFF83C050068001DDFF834150860DFF82C05006836
:2054A000001DDFF824150860E7E700200400082C08D2DFF81805006850F8240004F095FC0A
:2054C000641CF4E7DFF8040500682030DFF8FC140860DFF8F40400682030DFF8EC140860C4
:2054E0004FF4807004F095FC002846D0DFF890040068002821D05FF4001004F079FC0028D6
:205500001BD0DFF8C40400687E490968884214D204F068FCDFF8AC1409680860DFF8A4046A
:205520000068001DDFF89C140860DFF89C040068001DDFF894140860DDE7DFF88C03006882
:20554000012804D1FFF71CFF6C49087002E06B482A2101704FF4807004F069FC00214CF2D3
:205560003A3004F00CFC664801210160DFF85804002101606148007870E0022004F049FC13
:20558000002810D0022004F052FC00214CF23A3004F0F5FBDFF830040021016057480221A3
:2055A000017002205AE0082004F033FC002810D0082004F03CFC00214CF23A3004F0DFFBE0
:2055C000DFF80404002101604C4804210170042044E0202004F01DFC002810D0202004F06F
:2055E00026FC00214CF23A3004F0C9FBDFF8D8030021016041480621017006202EE010204F
:2056000004F007FC002810D0102004F010FC00214CF23A3004F0B3FBDFF8AC0300210160E8
:20562000364805210170052018E04FF4007004F0F0FB002811D04FF4007004F0F8FB0021E2
:205640004CF23A3004F09BFBDFF87C03002101602A4807210170072000E02A2032BD38B508
:205660002A20040042F210700500002D06D0802004F0BEFB002801D16D1EF6E7002D04D16F
:20568000032004002000C0B205E040F2FF5004F0BDFB2000C0B232BD70B52A20040042F217
:2056A00010700600DFF818030068050015F04500002807D1002E05D0761EDFF804030068DE
:2056C0000500F3E7002E02D02800400707D503200400042004F09AFB2000C0B20CE0280026
:2056E000400607D52A200400402004F08FFB2000C0B201E02000C0B270BD000011050020F4
:20570000444B0020344B0020F8B504002A200500DFF8AC020068060016F04500002804D100
:20572000DFF89C0200680600F6E73000400707D503200500042004F069FB2800C0B272E0C6
:205740003000C00707D501200500012004F05EFB2800C0B267E004F036FBE4B2A04204D090
:20576000102005002800C0B25DE040F2FF5004F04DFB002004F02BFB0700DFF854020742A9
:2057800002D12800C0B24EE0002F01D51C204AE0780001D5092046E0B80001D50A2042E08C
:2057A000F80001D50B203EE0380101D50C203AE0780101D50D2036E0F80101D50E2032E0DC
:2057C000380201D50F202EE0780201D510202AE0B80201D5112026E0F80201D5122022E027
:2057E000380301D513201EE0780301D514201AE0B80301D5152016E0F80301D5162012E033
:20580000380401D517200EE0780401D518200AE0B80401D5192006E03800000701D51A20DD
:2058200001E02800C0B2F2BD38B52A200400DFF890010068050015F04500002804D1DFF810
:20584000800100680500F6E72800400707D503200400042004F0DAFA2000C0B205E040F276
:20586000FF5004F0D3FA2000C0B232BD38B52A200400DFF84C010068050015F04500002859
:2058800004D1DFF83C0100680500F6E72800400707D503200400042004F0B8FA2000C0B207
:2058A00010E02800C00707D501200400012004F0ADFA2000C0B205E040F2FF5004F0A6FAC0
:2058C0002000C0B232BD0000384B00202DE9F04104000D002A200600DFF8E40000680700D2
:2058E00017F04500002804D1DFF8D40000680700F6E73800400707D503200600042004F0CC
:2059000085FA3000C0B238E03800C00707D501200600012004F07AFA3000C0B22DE004F020
:2059200052FAE4B2A04204D0102006003000C0B223E040F2FF5004F069FA002004F047FAC7
:2059400080464FF4604018EA000F05D15FEA184028803000C0B210E05FEA884001D51320C2
:205960000BE05FEA484001D5102006E05FEA084001D50F2001E03000C0B2BDE8F081000050
:2059800004050020604A002080B50121302004F071FC4FF4F850ADF8000003208DF8020032
:2059A00018208DF8030000A90A4803F057FE0420ADF8000000A9084803F050FE01BD000023
:2059C00034800140404B0020484B00203C4B002008E0FFFD001001400014014070B50446D4
:2059E0000D46DFF8546800220721072001F082F8F06302220721084601F07CF830640022DD
:205A00000721084601F076F8706400220721084601F070F8B06400220321084601F06AF8F1
:205A2000F06500220321084601F064F8306600220321072001F05EF8F06400220321072025
:205A400001F058F830650020DFF8F017DFF8F027F36B5B6853F8203043F82020736C5B68AB
:205A600053F8203043F82010401C0728F0DBF06D4068DFF8D01702681160426851608068E9
:205A80008160306E4068DFF8C01702681160426851608068816000220721032001F02AF8B2
:205AA000706500220721032001F024F8B065DFF89C073060DFF898077060DFF89807B060AC
:205AC000DFF89407F06006F110000321002240F8042B491EFBD12260DFF880076060A2607B
:205AE000E26022616261A261E26122626262A262DFF86C072860DFF86C076860DFF8680762
:205B0000A86070BD2DE9F74F05462868401C28606E68DFF824476869216905F0D1F831468D
:205B200005F040F98046A869616905F0C9F8314605F038F98146E869A16905F0C1F83146FC
:205B400005F030F90646206C476888F000403968486089F000413A68916086F000423B68F7
:205B6000DA607B68C3F800807B689E607B68D960B968C1F80090B9684A60B968C1F80C8035
:205B8000F9680E60F968C1F80490F96888606168686805F007F939680861A168686805F0D9
:205BA00001F939684861E168686805F0FBF8396888612168686805F0F5F880F0004079684A
:205BC0000861E168686805F0EDF879684861A168686805F0E7F880F0004079688861E1686F
:205BE000686805F0DFF880F00040B96808612168686805F0D7F880F00040B968486161686F
:205C0000686805F0CFF8B9688861A168686805F0C9F8F96808616168686805F0C3F880F0DC
:205C20000040F96848612168686805F0BBF880F00040F96888616068414605F0B3F80146E9
:205C4000206805F03DF80746A068494605F0AAF80146384605F034F80746E068314605F030
:205C6000A1F80146384605F02BF80746E7612068414605F097F8616805F03EFB8246E0687F
:205C8000494605F08FF80146504605F019F88246A068314605F086F8514605F02DFB8246E0
:205CA000C4F820A0E068414605F07CF8A16805F023FB83462068494605F074F8594605F03F
:205CC0001BFB83466068314605F06CF80146584604F0F6FF8346C4F824B0A068414605F0A2
:205CE00061F80146E06804F0EBFF80466068494605F058F8414605F0FFFA80462068314642
:205D000005F050F8414605F0F7FAA0622760C4F804A0C4F808B0E060A36C626C216CE06B87
:205D200004F05CFDA064E16B00F04EFF2878C00700F1D980D4F80880E6686768D4F800A0FB
:205D4000DFF828953846314605F02CF883465046414605F027F80146584604F0B1FF49468F
:205D600005F020F8E0625046394605F01BF883464046314605F016F8594605F0BDFA494614
:205D800005F010F820635046514605F00BF882463846394605F006F80146504604F090FF46
:205DA00007464046414604F0FDFF0146384604F087FF07463046314604F0F4FF394605F0C5
:205DC0009BFADFF8AC1404F0EDFF6063666D7768DFF8A0A44046514604F0E4FF396808602A
:205DE000E068494604F0DEFF396848602068514604F0D8FF396888606068494604F0D2FF23
:205E00003968C8606068494604F0CCFF796808602068494604F0C6FF79684860E06849462A
:205E200004F0C0FF79688860A068494604F0BAFF7968C8602068494604F0B4FFB968086052
:205E40006068514604F0AEFFB9684860A068514604F0A8FFB9688860E068494604F0A2FFCA
:205E6000B968C860E36CE26D3146E06B04F0D5FC8046C4F84C80A146D8F80460072756F8CF
:205E800004ABA868E16A04F01BFFDAF8001004F089FF8346E868216B04F012FFDAF80410FC
:205EA00004F080FF594605F027FA83462869616B04F006FFDAF8081004F074FF594605F0B6
:205EC0001BFAD9F8001005F017FA49F8040B7F1ED5D1A36C626D4146E06B04F0DBFCA064B4
:205EE000E16B00F071FE2878C00700F1DF80296AE14805F001FA6066696AE04805F0FCF9E9
:205F0000A066A86AE066D4F80C90A6686768D4F800804046414604F045FF05463846394605
:205F200004F040FF294605F0E7F905463046314604F038FF0146284604F0C2FE0546484645
:205F4000494604F02FFF0146284604F0B9FECC4904F028FFE062CB4D3846314604F022FF9C
:205F600082464846414604F01DFF0146504604F0A7FE294604F016FF20633846494604F0C2
:205F800011FF07463046414604F00CFF394605F0B3F9294604F006FF6063A76D7E684046DD
:205FA000294604F0FFFE316808606068294604F0F9FE31684860DFF8D082A068414604F071
:205FC000F1FE31688860E068414604F0EBFE3168C860E068414604F0E5FE71680860A068F5
:205FE000294604F0DFFE716848606068294604F0D9FE716888602068414604F0D3FE716870
:20600000C860A068294604F0CDFEB1680860E068294604F0C7FEB16848602068294604F085
:20602000C1FEB16888606068294604F0BBFEB168C860236D226E3946E06B04F0EEFB054669
:206040002565A046D5F80490072659F8047B606EE16A04F035FE396804F0A4FE8246A06E25
:20606000216B04F02DFE796804F09CFE514605F043F98246E06E616B04F022FEB96804F033
:2060800091FE514605F038F9D8F8001005F034F948F8040B761ED8D1A36CA26D2946E06B4E
:2060A00004F0F8FBA064E16B00F08EFDE568A768D4F804902168084604F074FE064648465B
:2060C000494604F06FFE314605F016F906463846394604F067FE314605F00EF90646284686
:2060E000294604F05FFE314605F006F905F0E0FA04F0FAFC02460B460020644902F0A2F9C9
:2061000005F0B2F80546A046DDF808900426D8F80000294604F046FEC8F8000058F8040B82
:2061200049F8040B761EF2D1D4F80880D4F804904FF080454846494604F034FE06464046EB
:20614000414604F02FFE314605F0D6F8294604F029FE01464FF07E5004F0B2FD05F0A8FA45
:2061600006460F462068494604F01CFE8146E068414604F017FE494605F0BEF8294604F01D
:2061800011FE05F095FA32463B4603F033FF05F06BF8019908606168E06804F003FE0646A2
:2061A0002168A06804F0FEFD0146304604F088FD4FF0404104F0F6FD05F07AFA04F07AFAB1
:2061C00005F052F801994860D4F80C80D4F808904846494604F0E6FD06464046414604F041
:2061E000E1FD314605F088F8294604F0DBFD01464FF07E5004F064FD05F05AFA06460F4607
:206200006068494604F0CEFD81462068414604F0C9FD494605F070F8294604F0C3FD05F0D4
:2062200047FA32463B4603F0E5FE05F01DF80199886003B0BDE8F08F1849002095BFD6330D
:20624000CDCCCC3D88437C3AB5FE16379A99093F8351493D7A362BBDAB3E57BF0AD7233C6F
:206260004E62E24025750A40E75BE5C2C3F59CC1C3F51CC1C3F59C41BC7413BC6F12033E7F
:206280006666E63E6666663F666666BF0000F03F2DE9FB4F82B014000E9D0F9E109FDDF8FB
:2062A00044803900200080B200F02EFB8246BAF1000F6CD0A4B2DAF8300010EB8400001FC2
:2062C00083465FEADB0B5FEACB0BA4B2009443462A000399504600F09FFA049A0299584678
:2062E00004F02EFECAF8000004F052FEDFF820070068401CDFF818170860DFF814070068EE
:20630000012806D1DFF80C07C0F800A000F0A8FA0EE0DFF804070068002809D1DFF8F4069E
:206320000068C06A854203D3DFF8E806C0F800A0DFF8E8060068DAF82C10884204D2DAF864
:206340002C00DFF8D8160860DFF8D4060068401CDFF8CC160860DFF8CC060068DAF82C102F
:20636000884204D2DAF82C00DFF8B81608601AF10401DAF82C001422DFF8AC3602FB003048
:2063800004F050FE0120814604F00BFE02E05FF0FF308146B9F1010F10D1002E01D0C6F857
:2063A00000A0DFF874060068002807D0DFF864060068C06AA84201D204F0E5FD484605B0DC
:2063C000BDE8F08F70B5040000200600002C2BD000F050F8DFF85C06006820180500DFF836
:2063E00034060068001D04F04AFEDFF8280600684560DFF840060068854209D2DFF8140678
:206400000068011DDFF83006006804F01AFE08E0DFF800060068011DDFF82006006804F0D1
:2064200010FE00F02FF80600002E01D104F0ABFD70BD1FB50020039000200290002001907E
:206440000020009000238022DFF80016DFF80006FFF71EFF0400012C0BD104F0B1FFDFF862
:20646000B80501210160DFF8CC050021016004F074FD1FBDDFF8D0050068401CDFF8C8154D
:206480000860704770B50020050004F081FDDFF8B8050068401EDFF8B0150860DFF8A8053F
:2064A000006800285CD1DFF868050068002857D000200600DFF88C050068002804D0DFF85B
:2064C0008405C068C46800E00024002C23D014F1180004F0D4FD201D04F0D1FDDFF84405BB
:2064E0000068E16A884203D2E06ADFF838150860211DE06A1422DFF8303502FB003004F059
:2065000091FDE06ADFF80C150968C96A8842D1D301200600CEE7DFF83C050068002810D035
:20652000DFF830050068002809D000F01DF8DFF824050068401EDFF81C150860F0E70120B3
:206540000600012E04D0DFF810050068012807D101200500DFF800050021016004F013FD55
:2065600004F01FFD280070BD10B5DFF8DC040068002852D1DFF8BC040068401CDFF8B4148D
:206580000860DFF8B0040068002813D1DFF8AC1409680800DFF8A414DFF89C2412680A607A
:2065A000DFF894140860DFF8B4140968491CDFF8AC241160DFF8840400680068002805D03B
:2065C000DFF878040068C068C46800E00024002C2AD0DFF8600400686168884224D3201D18
:2065E00004F04DFDA06A002803D014F1180004F046FDDFF830040068E16A884203D2E06A5D
:20660000DFF820140860211DE06A1422DFF8183402FB003004F006FDCCE7DFF838040068D4
:20662000401CDFF83014086010BDDFF81C040068002804D0DFF82004012101602BE0DFF8F3
:20664000E40300681421DFF8E02301FB00200068002807D1DFF8CC030068401EDFF8C4133E
:206660000860ECE7DFF8BC1309681422DFF8B83302FB01310800416849684160416810F1F4
:206680000802914202D14168496841604068C068DFF880130860704770B504000D00DFF8E9
:2066A0007403006810F11801200004F0CAFCDFF864030068001D04F0E2FC15F1010F08D183
:2066C000DFF850030068011DDFF8740304F0AAFC20E0DFF86003006828180600DFF834032C
:2066E00000684660DFF84C030068864209D2DFF824030068011DDFF84003006804F0A1FCC4
:2067000008E0DFF810030068011DDFF83003006804F097FC70BD70B504002068002802D050
:20672000E068C66800E0002616F1180004F0A7FCDFF814030068002813D1301D04F09FFCE9
:20674000B8480068F16A884202D2F06AB5490860311DF06A1422B44B02FB003004F062FCBC
:2067600004E016F11801B74804F05CFCF06AA9490968C96A884202D30120050001E0002014
:206780000500280070BDB54909680160A94909684160704770B504000D0004F0F9FB286866
:2067A00010F1010F02D10020060022E0AB4800682168884207D09F4800686168884202D391
:2067C0000120060015E09B4800686168401A296888420CD2286897490968401A61680818D2
:2067E00028602000FFF7CFFF0020060001E00120060004F0D6FB300070BD9748012101607B
:20680000704710B5040000F04EF8874800680228F9D304F0B8FBF6E72DE9F04105000E00B7
:2068200017009846069C1022310015F1340004F0D5FE002085F84300052F01D3042007004A
:20684000EF626F64281D04F0EAFB15F1180004F0E6FB2D61D7F10500A8616D62BDE8F081BA
:2068600010B500200400052C07D214206E4900FB041004F0C5FB641CF5E7794804F0C0FBAB
:20688000784804F0BDFB6F4804F0BAFB674804F0B7FB6B4804F0B4FB684871490160664808
:2068A0007049016010BD38B56148006800282AD0FFF7E0FD5D480068002801D1012400E0F2
:2068C0000024E4B2FFF7DEFD002C1CD104F060FB56480068002803D05448C068C56800E0F3
:2068E0000025281D04F0CBFB49480068401E484908604F480068401E4D49086004F051FB89
:20690000280000F020F831BD70B504000D00482003F02CFE0600002E13D0A4B2A00003F09E
:2069200025FE3063306B002805D1300003F093FE0020060005E0A4B2A200A521306B05F0FB
:2069400043F9300070BD10B50400206B03F083FE200003F080FE10BD2E49096808007047D1
:2069600038B504002500E86A2A490968C96A884229D228480068C06AD0F10500A861686931
:20698000E96A1422284B02FB0131884217D1281D04F075FB1F480068C06AE862214800685D
:2069A000E96A884202D2E86A1E490860291DE86A14221D4B02FB003004F034FB03E01548FF
:2069C0000068C06AE86231BD38B504002500002C1CD0E86A696C884218D0281D04F04FFB63
:2069E000686CE862E86AD0F10500A8610D480068E96A884202D2E86A0A490860291DE86A05
:206A00001422094B02FB003004F00CFB31BD00005C4B00204C4B00206C4B0020644B0020B2
:206A2000804B0020684B002088490020B04A0020584B0020604B0020544B0020504B002085
:206A4000C44A00209C4A0020704B002078BC000803680008744B0020784B00207C4B0020CF
:206A6000744A0020884A0020F8B504460D46082005F087F8060018D0002C01D0002D01D176
:206A80000020F2BD34807580A00005F07AF870600027012C09DBAD00284605F072F871681C
:206AA00041F827007F1CA742F6DB3046F2BDF8B504460D46082005F064F8060018D0002C1F
:206AC00001D0002D01D10020F2BD34807580A00005F057F870600027012C09DB6D002846A7
:206AE00005F04FF8716841F827007F1CA742F6DB3046F2BDF8B504460D461646002C01D004
:206B0000002D01D10020F2BDFFF7AEFF0028F9D0022E20D80021012C1DDB42684FF07E53EB
:206B20000027012D13DB012E04D1D2F800C04CF8273009E0022E01D1B942F6D0D2F800C0B3
:206B40004FF0000E4CF827E07F1CAF42EBDB491C121DA142E4DBF2BD70B40022835E012B13
:206B60000FDB0024B0F90250012D07DB466856F8226046F82410641CAC42F7DB521C9A4282
:206B8000EFDB70BC704738B5040001D1002032BD04E038B5040001D1002032BD0025605FDC
:206BA000012809DB606850F8250004F0F0FF6D1CB4F900008542F5DB606804F0E8FF2046DA
:206BC00004F0E5FF012032BDF0B4B0F90020B1F900309A4205D1B0F90230B1F90240A34228
:206BE00001D0002016E00024012A12DB40680025012B0ADB4E6856F82460076857F82570B9
:206C000046F825706D1C9D42F4DB641C001D9442EDDB0846F0BC70472DE9F14F0C46904600
:206C2000B0F90090B8F90000484505D1B8F90200B4F90210884201D0002024E00027B9F105
:206C4000010F1FDB0098456800260098B0F902A0BAF1010F12DBD8F8040050F827B02868B1
:206C600050F82600616851F8271051F8261004F043FB4BF82600761C5645ECDB7F1C2D1D6A
:206C80004F45E1DB4046BDE8F28F2DE9F04F0C469046B0F90090B8F90010894505D1B0F934
:206CA00002A0B8F902108A4501D0002020E00025B9F1010F1BDB46680027BAF1010F12DB5D
:206CC000D8F8040050F825B0306850F82700616851F8251051F8271003F0F2FF4BF82700A7
:206CE0007F1C5745ECDB6D1C361D4D45E4DB4046BDE8F08F2DE9F74F81B0B0F90040B2F99E
:206D00000000A0420AD1B1F90200ADF800000398B0F90200BDF90010884201D0002035E089
:206D2000012C32DB5568019846680027BDF90000012826DB4FF00008D5F8009049F8278082
:206D40000198B0F902A0BAF1010F15DB0298D0F804B0306850F828005BF8041B51F8271094
:206D600004F020F859F8271004F0C6FA49F8270008F10108D045ECDB7F1CBDF9000087426B
:206D8000D8DB361D2D1D641ECFD103984CE02DE9F74F81B0B0F90040B2F90000A0420AD1DC
:206DA000B1F90000ADF800000398B0F90200BDF90010884201D0002036E0012C33DB5568AF
:206DC000019846684FF00008BDF90000012826DB029847684FF00009D5F800A04AF828904D
:206DE0000198B0F902B0BBF1010F11DB306850F82900396851F8291003F0D4FF5AF828107B
:206E000004F07AFA4AF8280009F10109D945EDDB08F101083F1DBDF900008045DADB361DD5
:206E20002D1D641ECED1039804B0BDE8F08F2DE9F04782B006460C46B6F90250B6F9008027
:206E4000454501D000204EE029464046FFF70CFE5FEA0009F6D029464046FFF705FE070087
:206E600000D1EFE701214046FFF721FE8046B8F1000F38D049463046FFF7A6FE4146484674
:206E800000F033F810F1010F09D14846FFF77BFE3846FFF778FE4046FFF77BFED2E7002631
:206EA000012D14DB4FF07E5A00213846FFF754FE786850F82600C0F800A00096234642468A
:206EC0003946484600F0BCF8761CAE42ECDB4846FFF759FE3846FFF756FE4046FFF759FE42
:206EE000002CAFD02046BDE8F6872DE9F14F84B00024B0F90280002548680190B8F1010F67
:206F000005DB50F8041B0D806D1C4545F9DB0026019846E0751C701C40453FDA019800EB92
:206F20008507D7F800A0BAF9000059F820B05BF826000299B1F9001059F8211051F82610B3
:206F400003F0D6FC4BF8260006F1010BBAF9000059F820000090BAF9000059F8200050F8E0
:206F600026000299B1F9001059F8211051F82B1003F018FF0146BAF9000059F8200050F8D3
:206F80002B0003F09DFE009941F82B000BF1010BC345DBDB6D1C3F1D4545C2DB761C03983C
:206FA000001D0390464547DA354632460023019800EB85070498D0F80490D7F800A0BAF935
:206FC000000059F8200050F82600002104F05CFDBAF9000059F8200050F8261028BF81F06A
:206FE0000041184604F03EFD3CBF0B462A466D1C3F1D4545DEDB03980068029096420CD096
:020000040800F2
:020000020000FC
:20700000641CB0F90000019951F822100988029B1980019951F8221008800298B0F900008B
:2070200059F8200050F82600002104F08FFD7FF471AF4FF0FF3000E0204605B0BDE8F08FB0
:207040002DE9FF4F84B0B0F90240002650680090012C32DB074606F10108C146A04528DACA
:20706000009800EB89050598D0F804A055F804BBBBF900000499496851F8200050F8260011
:207080003968B1F900105AF82110096803F08AFE0146BBF900005AF82000006803F010FE50
:2070A000BBF900105AF82110086009F10109A145D9DB46463F1DA642CDDB009800EB840103
:2070C0000798406802900498406801900598D0F804A0119E029800EB840050F8047C51F830
:2070E000040CB0F900005AF82000006851F8041CB1F90010019A52F8211001EB840151F80A
:20710000041C03F0F5FB47F82600A61E42D4029800EB86000390009800EB86074FF0000838
:20712000751CD7F80090A54217DA029800EB850BB9F90000019951F8200050F825001199A6
:207140005BF8042B52F8211003F02CFE414604F0D3F880466D1CA542EADBB9F900005AF8D0
:2071600020000068414603F0ABFDB9F90010019A52F8211051F8261003F0BAFB119903AA0F
:2071800015682B1F13602A6842F82100761E3F1F002EC3D5079808B0BDE8F08F00B585B0AB
:2071A00001215FF4001003F074F80121082003F061F8C020ADF8000003208DF802001C20EA
:2071C0008DF8030000A9DFF82C0302F047FA0020ADF808004BF6FF70ADF80A000020ADF854
:2071E0000C004FF48060ADF80E004FF48040ADF81000DFF80403019001A9DFF8000301F011
:207200005DFB0121DFF8F40201F0D4FB05B000BD70B504000D00160003F0BAFE0121DFF805
:20722000DC0201F0D4FBDFF8D812DFF8D00201F008FC0028F7D000222100C9B2DFF8BC020F
:2072400001F0F4FBDFF8BC12DFF8B00201F0F9FB0028F7D03100C9B2DFF8A00201F0E0FB5B
:20726000DFF8A412DFF8940201F0EBFB0028F7D02978DFF8880201F0D3FBDFF88C12DFF841
:207280007C0201F0DEFB0028F7D00121DFF86C0201F0ABFB03F085FE70BDF8B504000D0058
:2072A00016001F0003F074FE5FF40031DFF84C0201F0E7FB0028F7D10121DFF8400201F09C
:2072C00086FBDFF83C12DFF8340201F0BAFB0028F7D000222100C9B2DFF8200201F0A6FB1D
:2072E000DFF82012DFF8140201F0ABFB0028F7D00121DFF8080201F05DFB3100C9B2DFF843
:20730000FC0101F08DFBDFF80012DFF8F00101F098FB0028F7D00121DFF8E00101F057FBB6
:20732000DFF8DC11DFF8D40101F08BFB0028F7D001222100C9B2DFF8C40101F077FBDFF8E2
:20734000CC11DFF8B80101F07CFB0028F7D0BFB2002F1CD0BFB2012F09D10021DFF89C01CD
:2073600001F051FB0121DFF8940101F03EFBDFF8A011DFF8880101F064FB0028E7D0DFF82A
:207380007C0101F050FB28706D1C7F1EDFE70121DFF8680101F037FB03F003FEF1BD10B5C4
:2073A00082B0040000208DF8010000208DF800009DF80100217862781143A2781143084336
:2073C0008DF801009DF80000E178227911436279114308438DF8000020220DF101013320B6
:2073E000FFF716FF232200A93320FFF711FF13BD10B582B0040000208DF8010000208DF825
:2074000000009DF80100217862781143E278114308438DF801009DF80000A17808438DF812
:20742000000021220DF101013320FFF7F1FE262200A93320FFF7ECFE13BD10B584B00400E0
:207440000123232202A93320FFF727FF0123282200A93320FFF721FF012329220DF10101BA
:207460003320FFF71AFF01232A220DF102013320FFF713FF01232B220DF103013320FFF722
:207480000CFF01232C2201A93320FFF706FF01232D220DF105013320FFF7FFFE9DF808001D
:2074A000400610D400210800032821DA00A911EB4001497800AA12F8102012EB012124F88D
:2074C0001010401CF0E700210800032810DA00A911F81010090209B200AA12EB40025278D0
:2074E0005118102291FBF2F124F81010401CECE71FBD0000000C0140A08601000054004033
:20750000010003008200070084000700020003004000030010B582B0040000208DF8020069
:2075200000208DF8010000208DF800009DF8020021786278114308438DF802009DF801003A
:20754000A17808438DF801009DF80000E17808438DF8000000220DF102013D20FFF758FEB7
:2075600001220DF101013D20FFF752FE022200A93D20FFF74DFE13BD1CB5040006230322E7
:2075800000A93D20FFF789FE0021080003280CDA00A911F8101000AA12EB4002527812EBAC
:2075A000012124F81010401CF0E713BDF8B504000D00002C32D04C2002F0D8FF0600002E15
:2075C0002CD0012005FB04000700380002F0CEFF3060306800281ED0306805FB04007060E2
:2075E0000020B0633068B060601E316805FB0010F060F46335645FF0FF3070645FF0FF3079
:20760000B06416F1100003F0FBFC16F1240003F0F7FC300003E0300003F01DF80020F2BD2A
:20762000F7B504000D001E000020070003F0B0FCA06BE16B884213D232002900200000F038
:2076400018F9606A002807D014F12400FFF763F8012801D103F097FC03F0A3FC012047E07B
:207660000298002803D103F09CFC002040E0002F04D100A8FFF787F80120070003F091FCE0
:20768000FEF7F8FE03F084FC606C10F1010F01D100206064A06C10F1010F01D10020A064E6
:2076A00003F07FFC02A900A8FFF774F8002819D1200000F071F900280ED0029914F1100065
:2076C000FEF7EAFF200000F023F9FEF7DBFE0028ACD103F058FCA9E7200000F019F9FEF73F
:2076E000D1FEA3E7200000F013F9FEF7CBFE0020FEBD2DE9F84304000D0016001F000020C5
:20770000814603F05DFEA06BE16B88421AD23A002900200000F0ADF8A06C10F1010F0BD136
:20772000606A00280BD014F12400FEF7F4FF002805D00120306002E0A06C401CA06401204E
:20774000804601E00020804603F041FE4046BDE8F2832DE9F44183B004000D001E000020FD
:20776000070003F015FCA06B00282DD0E06880462900200000F0B6F8002E14D1A06B401E5D
:20778000A0632068002802D1FFF7E6F860602069002815D014F11000FEF7BDFF01280FD16A
:2077A00003F0F1FB0CE0C4F80C80606A002807D014F12400FEF7AFFF002801D003F0E3FB57
:2077C00003F0EFFB012051E00398002803D103F0E8FB00204AE0002F04D100A8FEF7D3FF50
:2077E0000120070003F0DDFBFEF744FE03F0D0FB606C10F1010F01D100206064A06C10F101
:20780000010F01D10020A06403F0CBFB03A900A8FEF7C0FF002823D1200000F0AEF80028A7
:2078200018D02068002806D103F0B2FB6068FFF797F803F0B6FB039914F12400FEF72CFF63
:20784000200000F065F8FEF71DFE002889D103F09AFB86E7200000F05BF8FEF713FE80E764
:20786000200000F055F8FEF70DFE002004B0BDE8F08170B504000D001600206C002808D1E8
:20788000206800282AD16068FFF79EF80020606024E0002E0FD1226C2900A06804F089F9C2
:2078A000206CA1684018A060A0686168884215D32068A06012E0226C2900E06804F079F979
:2078C000206C4042E1684018E060E0682168884204D2206C404261684018E060A06B401C72
:2078E000A06370BD38B504000D00206800280ED0206CE1684018E060E0686168884201D3B0
:207900002068E060226CE168280004F052F931BD10B5040003F03CFBA06C01280EDB606A98
:2079200000280BD014F12400FEF7F5FE002801D0FEF763FFA06C401EA064EDE75FF0FF3023
:20794000A06403F02EFB03F023FB606C01280EDB206900280BD014F11000FEF7DCFE002880
:2079600001D0FEF74AFF606C401E6064EDE75FF0FF30606403F015FB10BD38B5040003F040
:2079800007FBA06B002801D1012500E00025EDB203F007FB280032BD38B5040003F0F8FA34
:2079A000A06BE16B884201D1012500E00025EDB203F0F7FA280032BD00B585B001215FF4B0
:2079C000800002F066FC0121082002F053FC4FF44060ADF8000003208DF802001C208DF855
:2079E000030000A9DFF8C40201F038FE0020ADF808004BF6FF70ADF80A00BA20ADF80C0060
:207A00004FF48060ADF80E004FF48040ADF81000DFF89C02019001A9DFF8980200F04EFF7A
:207A20000121DFF8900200F0C5FF05B000BD10B582B0040000208DF800009DF800002178C7
:207A400062781143A2781143E278114308438DF800000122202100A800F079F813BD10B50A
:207A600082B0040000208DF8010000208DF800009DF80100217862781143A27851EAC20110
:207A8000E278114308438DF80100012222210DF1010000F05CF89DF8000021796279114360
:207AA000A279114308438DF800000122342100A800F04DF813BD10B582B0040000208DF8C2
:207AC00000000122202100A800F082F8E4B2002C06D19DF8000050F040008DF8000005E018
:207AE0009DF8000010F0BF008DF800000122202100A800F02CF813BD38B5040000A8002103
:207B000001800020050000208DF80200012220210DF1020000F05CF80222282100A800F06B
:207B200057F89DF80200800708D49DF801009DF8001011EB00200500258007E09DF800007F
:207B40009DF8011011EB00200500258031BD70B504000D00160003F01BFA0121554800F0C8
:207B600036FF5549534800F06CFF0028F9D00022BA21504800F05AFF50494E4800F061FFEE
:207B80000028F9D0F6B2022E00D3803D2900C9B2484800F045FF4A49464800F052FF00289A
:207BA000F9D0F6B2002E0CD02178424800F038FF4349404800F045FF0028F9D0641C761EB3
:207BC000EFE701213B4800F010FF03F0EAF970BD70B504000D00160003F0DAF95FF4003192
:207BE000344800F04EFF0028F8D10121314800F0EEFE31492F4800F024FF0028F9D000224D
:207C0000BA212C4800F012FF2C492A4800F019FF0028F9D00121274800F0CCFEF6B2022E11
:207C200000D3803D2900C9B2224800F0F9FE2449204800F006FF0028F9D001211D4800F08D
:207C4000C6FE1D491B4800F0FCFE0028F9D00122BA21184800F0EAFE1A49164800F0F1FEE6
:207C60000028F9D0F6B2002E17D0F6B2012E07D10021104800F0C7FE01210E4800F0B5FE5E
:207C800011490C4800F0DDFE0028EBD0094800F0CAFE2070641C761EE4E70121054800F0B1
:207CA000B2FE03F07EF970BD00000000000C0140A0860100005800400100030082000700E4
:207CC0008400070002000300400003004FF6F8710140DFF8882211607047C0B2DFF880224E
:207CE00052F8202048F68F131A400A4392B2C0B2DFF86C3243F82020704710B4C0B2DFF809
:207D0000603253F8203048F6BF7423401A00CB0601D592F010028B0601D592F02002C0B290
:207D2000DFF83C3248F28004224392B243F8202010BC704710B4C0B2DFF8243253F820309B
:207D40004BF68F7423401A00CB0401D592F480528B0401D592F40052C0B2DFF8043248F26F
:207D60008004224392B243F8202010BC7047C0B2DFF8EC1151F8200010F030007047C0B2D0
:207D8000DFF8DC2152F8202048F6BF731A40110091F0100191F02001C0B2DFF8C42148F20E
:207DA0008003194389B242F820107047C0B2DFF8B02152F820204BF68F731A40110091F4B1
:207DC000805191F40051C0B2DFF8942148F28003194389B242F820107047C0B2DFF88011AF
:207DE00051F8201048F68F62114048F28002114389B2C0B2DFF8682142F820107047C0B2DA
:207E0000DFF85C1151F8201049040FD5C0B2DFF8501151F8201048F68F7211404CF2800201
:207E20001143C0B2DFF8382142F820107047C0B2DFF82C1151F8201049060FD5C0B2DFF8B0
:207E4000201151F8201048F68F72114048F2C0021143C0B2DFF8082142F82010704710B441
:207E6000DFF8F820126892B2C0B212EBC002DFF8F43089B24C08A4B2640043F8124010BC87
:207E8000704710B4DFF8D420126892B2C0B212EBC002DFF8D43089B24C08A4B2640043F84E
:207EA000124010BC7047DFF8B410096889B2C0B211EBC000DFF8AC1051F8100080B27047A3
:207EC000DFF89810096889B2C0B211EBC000DFF8981051F8100080B27047DFF88020126897
:207EE00092B2C0B212EBC002DFF8803089B243F81210704730B4DFF864301B689BB2C0B2A6
:207F000013EBC003DFF8684014EB43031A0089B23F290CD389B24C0923001F24214200D116
:207F20005B1E9BB29B0253F40043136008E089B24C082300CC0700D55B1C9BB29B021360CB
:207F400030BC70470549096889B2C0B211EBC000074951F810008005800D7047505C0040F8
:207F6000005C00400060004008600040046000400C60004001000B001A0089B2D2B21302D3
:207F800053EA1123180080B27047000080B501F0E6FA8E4800680021817203F0B1FB03F085
:207FA00039FD8B480021016001BD80B58748006800218172854800688649C9794172834834
:207FC00000680021C1720020FFF780FE4FF400710020FFF782FE10210020FFF78EFE4021D3
:207FE0000020FFF74EFF80210020FFF738FF0020FFF7F3FE784890F82C1089B20020FFF754
:2080000079FF0020FFF7D2FE00210120FFF765FEC0210120FFF723FF20210120FFF76DFE8A
:2080200000210120FFF786FE4FF4C0610220FFF754FE4FF480710220FFF711FF0021022017
:20804000FFF778FE20210220FFF757FE00210320FFF743FE4FF488710320FFF712FF4021C4
:208060000320FFF747FF4FF440510320FFF762FE00210320FFF741FE0020FCF7F3FE54483B
:208080000121016001BD55490800817A002902D04F4905220A6070474D4804210160704751
:2080A0004F480078202802D14D48002101707047704738B5040000200500E4B2212C09D12E
:2080C00042480068007810F07F00212811D1454805000EE0E4B2202C0BD13C4800680078EA
:2080E00010F07F00212801D13F4805003C48202101702800002801D1022009E03348006814
:20810000856132480068002141820020A847002032BD01002D480068007810F07F00212877
:2081200009D1C9B2022901D1002005E0C9B2222901D1002000E00220704710B504002B493A
:20814000200080B2FCF7BFFA10BD10B504002849200080B2FCF7B7FA10BD38B504001B4803
:208160000068C0780500EDB2052D01D3002007E0EDB2204810EBC501200080B2FCF7A3FA04
:2081800032BD0200C9B2012901D3022005E0D2B2022A01D3022000E000207047010089B2D5
:2081A000002905D10948006808220282002000E011487047010089B2002905D1034800685B
:2081C00008220282002000E00B4870478C4B0020984B002048B70008000400202C4A00202C
:2081E000B24B00209D810008B5810008E0040020E804002054040020D804002080B5002025
:20820000ADF800008748006887490880000440F107818548008810F00F00844908708348F9
:208220000078002840F0C08081488249096801807F48008810F030007F4908807C4800888D
:2082400010F440507A4908807A49096889B24BF6BF721140080090F4005090F0200080B25F
:2082600048F280010843734908606F480088C0062FD47048006880B248F60F7108406D49BE
:208280000860FCF76EFD6B49096889B24BF6BF721140080066490988C90401D590F48050B6
:2082A00063490988890401D590F4005062490988C90601D590F010005F490988890601D53B
:2082C00090F0200080B248F28001084359490860A6E058480068ADF80000BDF800000005CF
:2082E0002ED55448006840F68F71084051490860FCF7EDFC4F49096889B24BF6BF72114014
:2083000008004B490988C90401D590F4805048490988890401D590F4005047490988C906F0
:2083200001D590F0100044490988890601D590F0200080B248F2800108433E4908606FE03E
:20834000BDF8000000047FF55DAF3A48006840F68F71084037490860FCF738FD354909687D
:2083600089B24BF6BF721140080031490988C90401D590F480502E490988890401D590F406
:2083800000502D490988C90601D590F010002A490988890601D590F0200080B248F280015B
:2083A0000843244908603BE020480078214951F82000ADF80000BDF80000000414D51B4825
:2083C00000781C4951F8200040F68F71084017490978184A42F8210014480078174911EB0B
:2083E000800050F8040C8047BDF8000000067FF509AF0E4800780F4951F8200080B248F6F8
:208400000F710840094909780A4A42F82100074800780B4911EB800050F8040C8047F1E685
:2084200001BD0000445C0040A64B0020B04B0020A24B0020005C0040A44B0020AC040020EA
:2084400090040020F0B540F2FF7581EA030C0CF0004C15EA11541DBF15EA1357AC42AF42D3
:20846000E5E0BC41C1F31301C3F31303801A994143F4801304D2641E400049418018594114
:20848000C90241EA5051B1FBF3F603FB1611A2FB0675D7EBC020A94102D2761E801859414D
:2084A000C90241EA5051B1FBF3FE03FB1E11A2FB0E75D7EBC020A94103D2AEF1010E801894
:2084C0005941890241EA9051760546EA8E2EB1FBF3F603FB1611A2FB0675D7EB8020A941E6
:2084E00002D2761E80185941C90241EA50514EEA060EB1FBF3F603FB1611A2FB0675D7EB6B
:20850000C020A94102D2761E80185941C90241EA5051B1FBF3F703FB1711A2FB0735D3EB0D
:20852000C020A94167F100070CBF004247F0010766F3D5274FEA1E31B80814F5806412DD4D
:20854000BD0775F1004250EB0E5051EB045111F5801F5CBF41EA0C01F0BD4CF07F6141F093
:20856000E0410020F0BDBD076D0840EA0E5041F48011D4F10104B4F120060ADAC4F1200632
:208580000200E04001FA06F3E1401843B24015430EE0342C13DCC6F1200445EA40056D08FE
:2085A00020FA06F2154321FA06F0A1400D43002175F1004250F1000051EB0C01F0BD0020EF
:2085C0005FEA0C01F0BDCFB992185B41B3FA83F704BFB2FA82F6BF190B3FB7F120062FBFDE
:2085E00002FA06F3BB40C7F1200622FA06F638BF3343BA401CB1E419641E33E77F4231F0E6
:208600000041B1FA81F404BFB0FA80F6A4190B3CB4F120062FBF00FA06F1A140C4F12006AC
:2086200020FA06F638BF3143A0403C1B1AE7AC421ABF05EA1357AF4212E050EA41061CBF22
:2086400052EA4306BFE750EA4107304661461CBF41EA0551F0BD52EA430C08BFC143F0BD44
:2086600000204FF4001616EB410F98BF16EB430F08BF16EB410F24BFC14305E016EB430F4F
:208680000CBF61464CEA0551F0BD000010B5040001F060FA804800680528FBD101F0B7FA50
:2086A00000F07FF810BD1FB5040004210120FEF77DFF7A49086079480068002800D1FEE7C5
:2086C00000210120FEF772FF7549086074480068002806D000230022002171480068FEF72E
:2086E0009FFF6F480068002800D1FEE70023002200216B480068FFF72CF800200390002071
:208700000290002001900220009000234FF4A47264496548FDF7BCFD012800D0FEE70020E3
:20872000039000200290002001900120009000234FF4A4725D495E48FDF7AAFD012800D036
:20874000FEE71FBD10B582B004000020009000235FF0FF3200A951480068FEF7FAFF012849
:20876000F5D10098FAF7E4FCF1E710B5BCB0040000A801F011FA17AA38A91BA8FDF72EF999
:2087800000235FF0FF32002145480068FEF7E1FF0128F5D1FBF7FFFC00A9C0B2FAF7D6FF8E
:2087A000EEE730B585B0322005000121012001F070FD01215FF0804001F0D3FE02A801F044
:2087C00083FE3C48EDB2B0FBF5F0040001AA0DF10601200002F00AF9BDF80400401EADF8E0
:2087E0000C00BDF80600401EADF808000020ADF80E000020ADF80A0002A95FF0804001F05A
:208800000FFE01215FF0804001F082FE1C208DF8000000208DF802000D208DF8010001206D
:208820008DF8030000A802F02EFB05B030BD80B50020009002F062FE1F480068002809D044
:20884000002300AA1C4915480068FEF752FF1A48002101600098002801D002F094FB01BD27
:2088600080B501215FF0804001F05FFE002812D000200090002300AA002109480068FEF7EE
:2088800038FF01215FF0804001F06BFE0098002801D002F078FB01BD984B0020244B0020D0
:2088A000284B00203CBC00084587000848BC00086B87000800A24A04884B00202DE9F0431F
:2088C00085B004000D0000200600002007000420804635488146A08806004FF6C0700640EE
:2088E00000A801F046FC029881463048B9FBF0F007003E43A680208820F001002080002009
:20890000060028682A49884210D228684000B9FBF0F080461FFA88F8B8F1040F01D204202C
:20892000804658EA0606781C208426E0E8884BF6FF71884206D1286803214843B9FBF0F050
:20894000804607E0286819214843B9FBF0F0804658F480485FEA085001D158F0010858F497
:2089600000400643BFB24FF4967000FB07F04FF47A7190FBF1F0401C2084A683208850F017
:2089800001002080208806004FF6F5300640A8886989084306432680A889298908432081AD
:2089A00005B0BDE8F083000000127A0040420F00A1860100C9B2002904D0028852F001025E
:2089C000028003E0028822F0010202807047C9B2002905D002884FF480731A43028003E05F
:2089E000028822F4807202807047C9B2002905D002884FF400731A43028003E0028822F491
:208A0000007202807047C9B2002904D0028852F48062028003E0028822F480620280704761
:208A2000C9B201827047008AC0B27047D2B2002A02D051F0010101E011F0FE01C9B201822C
:208A4000704770B4020000263300002634000026350000263000968A3400168B35002D047A
:208A600055EA04063602360A330011EA03068E4202D10126300001E000263000C0B270BC2F
:208A8000704782B0020000231800002301930023009300920B0F01930902090A019B002B1E
:208AA00003D0009B1433009303E0090C009B18330093009B1B680B4202D00123180001E0A3
:208AC00000231800C0B202B07047000000B587B001214FF4047001F0CDFB3720ADF8000006
:208AE00000208DF8030000A9674800F0B7FD0020019001208DF8080001208DF809005FF471
:208B0000602003900020049005208DF81400072301220A215D4800F059FA072302220B21F6
:208B20005A4800F053FA072303220C21574800F04DFA072304220E21544800F047FA07238E
:208B400005220F21514800F041FA01A94F4800F0C7F901214D4800F0EDF94C4800F005FAF9
:208B60004A4800F007FA0028FAD1484800F00FFA464800F011FA0028FAD107B000BD00B551
:208B80008BB00121012001F066FB414800F09CFA404800904048019000200290052003905B
:208BA00000200490802005904FF4807006904FF480600790202008904FF400500990002025
:208BC0000A9000A9324800F003FB0BB000BD80B50121082001F04EFB4CF20200ADF80000D4
:208BE00003208DF8020010208DF8030000A92B4800F034FD01BD80B54FF40041274800F000
:208C0000D8FD2021254800F0D4FD01BD80B54FF48041224800F0CDFD0221204800F0C9FDB4
:208C200001BD10B5040002F0B3F90121174800F08EF90121154800F07DF90121144800F0C4
:208C4000E7FA0121114800F0B4F9022000F0EDFA0028FAD000210D4800F06CF900210B48F1
:208C600000F0A7F9022000F0F7FA00210800052806DA094931F810102180A41C401CF6E7F6
:208C800002F08FF910BD00000010014000240140080002404C240140F84A0020000C01402D
:208CA00010B584B0040000A8FFF7BBFFBDF90000BDF90410401A2080BDF90200BDF9041063
:208CC000401A00B240426080BDF90600BDF90810401AA0801FBD0000DFF8B401DFF8B4111E
:208CE0000160DFF8AC01DFF8B01101607047DFF8AC01006850F08000DFF8A011086070478C
:208D000038B5A52004000420050000F098F8002801D0002004005FF4302000F0C9F805007E
:208D2000EDB2042D53D1DFF87801DFF868110160DFF86C01DFF860110160DFF860010068B1
:208D400050F02000DFF854110860DFF85001006850F04000DFF8441108605FF4302000F0D8
:208D6000A7F80500EDB2042D25D1DFF83001006841F6DF710840DFF824110860DFF81C01E2
:208D8000006850F01000DFF814110860DFF8140104804FF4005000F08BF80500EDB2052D6B
:208DA00015D0DFF8F800006841F6EF710840DFF8EC1008600BE0EDB2052D08D0DFF8DC0036
:208DC000006841F6EF710840DFF8D01008602800C0B232BD70B504000D00042006004FF401
:208DE000005000F065F80600F6B2042E24D1DFF8B000DFF8A0100160DFF8A400DFF8981098
:208E00000160DFF89800006850F01000DFF88C100860EDB225804FF4005000F049F80600E1
:208E2000F6B2052E08D0DFF87400006841F6EF710840DFF8681008603000C0B270BD002146
:208E4000080019490968890702D50121080001E000210800C0B27047042108001349096879
:208E6000C90702D5012108000FE010490968490702D50221080008E00C490968C90602D5C2
:208E80000321080001E004210800C0B2704700000420024023016745AB89EFCD10200240D7
:208EA0000820024000F8FF1F1C2002400C20024038B5040004200500FFF7CEFF0500EDB2C5
:208EC000012D06D1002C04D0FFF7C6FF0500641EF5E7002C01D1052005002800C0B232BDBE
:208EE00030B4002423000024220044682300DFF8D04123400C680D7954EA0524234343607D
:208F000084682300DFF8BC412340CC688D682C434D7954EA450423438360C46A230033F465
:208F200070030C7C641E2243D2B253EA0253C36230BC7047C9B2002904D0826852F00102CA
:208F4000826003E0826822F0010282607047C9B2002905D082684FF480731A43826003E0F9
:208F6000826822F4807282607047816851F00801816070470100002210008A68120702D586
:208F80000122100001E000221000C0B27047816851F00401816070470100002210008A6876
:208FA000520702D50122100001E000221000C0B27047C9B2002904D0826852F4A0028260E6
:208FC00003E0826832F4A00282607047F0B40026350000263400C9B20A2916D3C668350010
:208FE0000726B1F10A075FF0030C0CFB07F7BE403400A543DBB2B1F10A0603277E4313FADD
:020000040800F2
:020000020000FC
:2090000006F634002543C56011E0066935000726032707FB01F7BE403400A543DBB20326DD
:2090200006FB01F613FA06F6340025430561D2B2072A14D2466B35001F26571E5FF0050C92
:209040000CFB07F7BE403400A543C9B2561E05277E4311FA06F63400254345632DE0D2B239
:209060000D2A14D2066B35001F26D71F5FF0050C0CFB07F7BE403400A543C9B2D61F0527D7
:209080007E4311FA06F634002543056315E0C66A35001F26B2F10D075FF0050C0CFB07F749
:2090A000BE403400A543C9B2B2F10D0605277E4311FA06F634002543C562F0BC704700004B
:2090C000FFFEF0FFFDF7F1FF016821F0010101600021016000214160002181600021C1605B
:2090E0006149884206D16149096851F00F015F4A11606CE05E49884206D15C49096851F0B4
:20910000F0015A4A116062E05A49884206D15749096851F47061554A116058E056498842EB
:2091200006D15249096851F47041504A11604EE05249884206D14D49096851F470214B4A6F
:20914000116044E04E49884206D14849096851F47001464A11603AE04A49884206D14349AF
:20916000096851F07061414A116030E04649884206D14649096851F00F01444A116026E0DA
:209180004349884206D14149096851F0F0013F4A11601CE03F49884206D13C49096851F41B
:2091A00070613A4A116012E03B49884206D13749096851F47041354A116008E037498842C9
:2091C00005D13249096851F47021304A1160704710B400231A0003681A00314B1A408B6806
:2091E0000C6A23430C6923434C6923438C692343CC6923434C6A23438C6A23431A43026070
:20920000CB6843600B6883604B68C36010BC7047C9B2002904D0026852F00102026003E05D
:20922000026822F001020260704701000023180000231A00CB0003D51A4B1B681A0002E096
:20924000194B1B681A000A4202D00123180001E000231800C0B27047C10002D50B4908601A
:2092600001E002490860704708000240040002401C00024030000240440002405800024023
:209280006C0002408000024008040240040402401C040240300402404404024058040240C6
:2092A0000F80FFFF000402400000024000B585B001215FF4800000F0ECFF0121082000F0A5
:2092C000D9FF4FF44060ADF8000003208DF802001C208DF8030000A9644800F0BFF90020A3
:2092E000ADF808004BF6FF70ADF80A009020ADF80C004FF48060ADF80E004FF48040ADF883
:2093000010005B48019001A95A48FFF7D7FA01215848FFF74FFB05B000BD10B582B0040087
:2093200000A8002101800222002100A800F02EF89DF800009DF8011011EB0020208013BD19
:2093400070B582B004000020050000A800210180002006000222002100A800F017F89DF89C
:209360000100C0B2C009C0B29DF8001010EB410005009DF8000010F08000EDB215EB002085
:209380000600052000FB06F0208073BD70B504000D00160001F0FCFD5FF400313548FFF7B4
:2093A00070FB0028F8D101213248FFF710FB32493048FFF746FB0028F9D0002290212D4851
:2093C000FFF734FB2D492B48FFF73BFB0028F9D001212848FFF7EEFAF6B2022E03D3012122
:2093E0002448FFF710FB2900C9B22248FFF718FB23492048FFF725FB0028F9D001211D4887
:20940000FFF7E5FA1C491B48FFF71BFB0028F9D0012290211748FFF709FB1A491548FFF7CF
:2094200010FB0028F9D0F6B2002E17D0F6B2012E07D100210F48FFF7E6FA01210D48FFF709
:20944000D4FA11490B48FFF7FCFA0028EBD00948FFF7E9FA2070641C761EE4E701210548BA
:20946000FFF7D1FA01F09DFD70BD0000000C0140A0860100005800400100030082000700DA
:209480008400070002000300400003004048006810F4E0603F4908433D490860BFF34F8F74
:2094A000FEE780B50121042000F0E4FE4FF48060ADF8000003208DF8020010208DF8030050
:2094C00000A9354800F0CAF8002000F001F801BD10B50400E4B2002C05D04FF480612E48F3
:2094E00000F064F904E04FF480612B4800F061F910BD2A480068C0B2704780B50020FFF73F
:20950000E7FFFFF7C3FF01BD80B5FFF7E5FBFFF7F7FB2349087001212048FFF75BFC2049D8
:209520000870FFF7E4FB01BD80B5002000F01EFE01215FF4000000F0ACFE01BD80B5142089
:209540008DF800000E208DF8010000208DF8020001208DF8030000A801F095FC01BD70B575
:209560001048006804001048006805000F48006806003419002C09D008220D49200000F0BB
:209580004CF804220B49280000F047F870BD00000CED00E00400FA050008014004F8FF1F4A
:2095A000B34B0020E8F7FF1FECF7FF1FF0F7FF1F76040020860400202DE9F04104000D00EE
:2095C0002E0000200700FFB2EDB2AF4223D2F6B2402E01D2B04601E0402080460120FEF704
:2095E000C6FB3028FAD05FFA88F8424692B2C021FFB2381901F048FF5FFA88F8414689B22D
:209600000120FEF76AFC0120FEF7B9FBB6EB080618EB0707D7E7BDE8F08130B40024230045
:2096200000242300DBB2D2B2934215D2040F0A2C05D2DBB2040F303401F8134004E0DBB235
:20964000040F373401F813400001DBB211EB4304002565705B1CE5E730BC7047F0B55FF09B
:20966000000C62465FF0000C63465FF0000C64465FF0000C65465FF0000C66465FF0000CC5
:20968000674691F803C01CF00F0C624691F803C05FEACC6C03D591F802C05CEA020291F83F
:2096A00000C05FEA0C6C3AD0D0F800C066465FF0000C6446082C31D25FF0010C1CFA04FC3D
:2096C0006546B1F800C015EA0C0C6346AB4223D15FEA840C65465FF00F0C1CFA05FC674623
:2096E000BE4312FA05FC5CEA060691F803C0BCF1280F06D15FF0010C1CFA04FCC0F814C005
:209700000AE091F803C0BCF1480F05D15FF0010C1CFA04FCC0F810C0641CCBE70660B1F8FE
:2097200000C04FF4807EF4453FD3D0F804C066465FF0000C6446082C36D25FF0010C14F103
:20974000080E1CFA0EFC6546B1F800C015EA0C0C6346AB4226D15FEA840C65465FF00F0C2D
:209760001CFA05FC6746BE4312FA05FC5CEA060691F803C0BCF1280F07D15FF0010C14F15C
:20978000080E1CFA0EFCC0F814C091F803C0BCF1480F07D15FF0010C14F1080E1CFA0EFC48
:2097A000C0F810C0641CC6E74660F0BD89B20161704789B24161704730B400231A000F2366
:2097C00011F00304E4B2A400A3401A00C9B28B100E4C54F823309343C9B28C100B4D45F8B9
:2097E0002430C9B28B10094C54F82330C0B211F00304E4B2A40010FA04F42343C9B28C10D8
:20980000024D45F8243030BC7047000008000140B0B581EA030C0CF0004C40F2FF7515EAB0
:2098200011541DBF15EA1357AC42AF423AE0E41923EA455343F48013C90241F0004141EAB1
:2098400050574FEAC02E1100AEFB020200284FF00000E7FB01204FF00001E3FB0E2118BFEE
:2098600042F00102401800214941E3FB0701A4F580640F0302D252004041494154F10104C0
:209880006BDD470872F1004250F1000051EB0451A1F580115CBF41EA0C01B0BD4CEA055147
:2098A0000020B0BD05EA1357AC4214BFAF4240E050EA410E1CBF52EA430E02E06146002056
:2098C000B0BD24423C441AD13F42F7D0090302BF01460020143FB1FA81FEA7EB0E0401FAB2
:2098E0000EF70EF10C0ECEF1200100FA0EFEC84047EA000723EA455343F48013A3E733F008
